:100000000C94680A0C94990A0C94990A0C94990A15
:100010000C94990A0C94990A0C94990A0C94990AD4
:100020000C94990A0C94990A0C94990A0C94990AC4
:100030000C94990A0C94990A0C94990A0C94990AB4
:100040000C94990A0C943C330C94990A0C94990AD8
:100050000C94990A0C94990A0C94990A0C946F3494
:100060000C94990A0C94B51E0C948B1E0C94990A4E
:100070000C94990A0C94990A0C94990A0C94990A74
:100080000C940E330C94990A0C94990A0C94F22156
:100090000C94990A0C94990A0C94990A0C94BF2018
:1000A0000C94990A0C94990A0C94E0320C94990AD5
:1000B0000C94990A0C94990A0C94990A0C94B232F3
:1000C0000C94990A0C94990A0C94990A0C94990A24
:1000D0000C94990A0C94990A0C94990A0C94990A14
:1000E0000C94990AA81BA21BDC175B18F6186F1951
:1000F000021A4F1A9C1A7B171F1B331B931B3F2698
:100100004426492653265D26D62667266F2677265F
:1001100081268B269526A426AE26D626B826C2266C
:10012000CC26B230B530A430A830AE30EC30B93087
:10013000BD30C330C730CB30D130D530D930EC30C2
:10014000DF30E330E7300C9444260C94A81B0C9469
:10015000C2260C942A1D0C94CB300C949C1A0C943F
:10016000E3300C9467260C94D9300C94E7300C944F
:100170006F190C947B170C94A4260C94181C0C94E7
:100180003B1D0C941F1B0C94021A0C94D5300C943C
:10019000BD300C943F260C94841D0C942B1D0C94A4
:1001A000A21B0C9453260C94BD1B0C94931B0C9413
:1001B000B5300C944F1A0C94B2300C94B9300C94A6
:1001C0008B260C9495260C945B180C94A4300C94FC
:1001D00077260C94501C0C946F260C94D1300C9400
:1001E000A8300C94C3300C94571D0C949D1C0C9497
:1001F000F61B0C942C1D0C94F6180C94B41D0C9446
:10020000CE3B0C94DF300C94F1210C94DC170C9451
:10021000D6260C945D260C94B91D0C940A1C0C94E3
:1002200049260C94CC260C94AE300C94451E0C94AC
:10023000E71B0C94B8260C94EC300C94331B0C94F4
:100240004F1D0C9481260C94C7300C94AE262C20A4
:10025000002C2000202020436F72204469726569C1
:10026000746F3A2020002C20002C2000436F722055
:10027000457371756572646F3A20002C20002C2044
:1002800000202020436F72204469726569746F3AC0
:100290002020002C20002C2000436F722045737119
:1002A000756572646F3A2000202044697265697434
:1002B0006F3A20002020457371756572646F3A2093
:1002C0000056616C6F7220646F2073656E736F727D
:1002D0002066726F6E74616C3A20003B20003B20F8
:1002E000003B200053656E736F7265732072656604
:1002F0006C6574616E6369613A202B6573713B2094
:100300006573713B206469723B202B646972200025
:100310000A4F70C3A7C3A36F20496E76616C6964EE
:10032000612C2074656E7465206E6F76616D656EEC
:100330007465210028446967697465202D31207037
:10034000617261207465726D696E6172206F204CFC
:10035000696D70657A61290A000A456E7472616E72
:10036000646F20656D204C6F6F702070617261202A
:100370006769726172206F206D6F746F72204469BB
:10038000726569746F2E2E2E002844696769746542
:1003900020312070617261206C696D706172206F14
:1003A000206D6F746F72204469726569746F290AD9
:1003B000000A456E7472616E646F20656D204C6F2B
:1003C0006F702070617261206769726172206F20A6
:1003D0006D6F746F7220457371756572646F2E2E28
:1003E0002E204C656D6272652D7365206465206CEE
:1003F00069676172206F20537769746368000A2807
:10040000446967697465202D3120706172612076BE
:100410006F6C74617220616F206D656E75290000CC
:1004200028446967697465202D31207061726120EC
:100430007361697220646120526570657469C3A735
:10044000C3A36F290A000A456E7472616E646F203F
:10045000656D204C6F6F70207061726120766572DF
:1004600020746F646F73206F73206461646F7320F6
:10047000646F2073656E736F7220494D552E2E2E5A
:100480000028446967697465202D312070617261AC
:10049000207361697220646120526570657469C35C
:1004A000A7C3A36F290A000A456E7472616E646F58
:1004B00020656D204C6F6F702070617261207665D1
:1004C00072206F204769726F7363C3B470696F20C5
:1004D000646F2073656E736F7220494D552E2E2EFA
:1004E0000028446967697465202D3120706172614C
:1004F000207361697220646120526570657469C3FC
:10050000A7C3A36F290A000A456E7472616E646FF7
:1005100020656D204C6F6F70207061726120766570
:1005200072206F204163656C6572C3B46D6574722F
:100530006F20646F2073656E736F7220494D552E66
:100540002E2E0028446967697465202D3120706162
:1005500072612073616972206461205265706574F4
:1005600069C3A7C3A36F290A000A456E7472616E3E
:10057000646F20656D204C6F6F7020706172612018
:10058000766572206F732053656E736F726573208A
:10059000646520436F72206E6120666F726D61200A
:1005A0004853562E2E2E0028446967697465202D05
:1005B0003120706172612073616972206461205220
:1005C0006570657469C3A7C3A36F290A000A456EE5
:1005D0007472616E646F20656D204C6F6F70207057
:1005E00061726120766572206F732053656E736F40
:1005F0007265732064652044697374616E63696118
:100600002E2E2E0028446967697465202D312070D4
:100610006172612073616972206461205265706546
:100620007469C3A7C3A36F290A000A456E74726177
:100630006E646F20656D204C6F6F70207061726109
:1006400020766572206F732053656E736F726573C9
:10065000206465205265666C6574616E6369612E05
:100660002E2E002E2E2E00566F63C3AA20646967BB
:1006700069746F753A2000446967697465202D318B
:100680002070617261207361697220646F204D6512
:100690006E752053657269616C00202031312D2008
:1006A0005465737461722056657264650020203150
:1006B000302D204C696D70617220526F6461002092
:1006C00020392D205665722076616C6F726573201B
:1006D00064612063616C69627261C3A7C3A36F0028
:1006E0002020382D2043616C69627261722073652D
:1006F0006E736F7220494D55002020372D205665AE
:10070000722073656E736F7220494D552028436FB8
:100710006D706C65746F29002020362D205665722F
:100720002073656E736F7220494D5520284769729A
:100730006F7363C3B470696F29002020352D205674
:1007400065722073656E736F7220494D5520284184
:1007500063656C6572C3B46D6574726F2900202087
:10076000342D205665722073656E736F7265732029
:10077000646520436F7220485356002020332D209B
:100780005665722073656E736F72657320646520A1
:10079000436F7220524742002020322D205665724E
:1007A0002073656E736F726573206465204469738E
:1007B00074616E636961002020312D2056657220BE
:1007C00073656E736F726573206465205265666C25
:1007D0006574616E636961000A4F207175652064FC
:1007E0006573656A612046617A657220636F6D206A
:1007F0006F2073657520526F62C3B43F202844692F
:1008000067697465206F206EC3BA6D65726F20656D
:1008100071756976616C656E74652061206F70C357
:10082000A7C3A36F29002D2D2D2D2D2D2D2D2D2D61
:100830002D2D2D2D2D2D2D2D2D2D004D656E752041
:1008400053657269616C20496E69636961646F0008
:100850000A2D2D2D2D2D2D2D2D2D2D2D2D2D2D2DEB
:100860002D2D2D2D2D000A20204461646F7320470B
:100870007561726461646F73206E612045455052EA
:100880004F4D00202020202020563A2000202056C6
:100890003A20002020202020202020533A20002031
:1008A00020533A2000202020202020483A200020F9
:1008B00020483A200020206573712020202020202D
:1008C000202020202020646972202020000A20207F
:1008D00056616C6F7265732043616C63756C616403
:1008E0006F7320646F732073656E736F726573200E
:1008F000646520436F723A200020202000202020D1
:100900000020202000202020002020202B65737153
:10091000202020206573712020202020646972200F
:10092000202020202B646972000A202056616C6F01
:100930007265732043616C63756C61646F732064CE
:100940006F732073656E736F7265732064652072B8
:1009500065666C6574C3A26E6369613A20002020ED
:10096000563A20002020533A20002020483A200008
:100970000A202056616C6F72657320646F20566583
:100980007264652043617074757261646F73206472
:100990006F2053656E736F7220646520436F722001
:1009A0004469726569746F3A200020207C20202001
:1009B00020436F6E636C7569646F202020207C007B
:1009C0007C002D0020207C2D2D2D2D2D2D2D000A7D
:1009D00020207C20436F6C6574616E646F204461DD
:1009E000646F73207C002020563A20002020533A68
:1009F00020002020483A20000A202056616C6F72A7
:100A0000657320646F20566572646520436170745D
:100A1000757261646F7320646F2053656E736F72BB
:100A200020646520436F7220457371756572646F31
:100A30003A200020207C20202020436F6E636C75BC
:100A400069646F202020207C007C002D0020207C09
:100A50002D2D2D2D2D2D2D000A20207C20436F6C57
:100A60006574616E646F204461646F73207C002044
:100A70002020202020563A20002020563A20002016
:100A800020202020202020533A20002020533A20EC
:100A900000202020202020483A20002020483A2012
:100AA000002020657371202020202020202020207D
:100AB0002020646972202020000A202056616C6F7B
:100AC000726573204272616E636F7320436170744C
:100AD000757261646F7320646F732053656E736FFA
:100AE00072657320646520436F723A2000202020D5
:100AF00000202020002020200020200020202B6526
:100B000073712020202065737120202020206469CB
:100B10007220202020202B646972000A2020566158
:100B20006C6F726573204272616E636F73204361F4
:100B30007074757261646F7320646F732053656E97
:100B4000736F726573206465205265666C6574C34B
:100B5000A26E6369613A200020207C20202020437F
:100B60006F6E636C7569646F202020207C007C00B0
:100B70002D0020207C2D2D2D2D2D2D2D000A202007
:100B80007C20436F6C6574616E646F204461646F98
:100B900073207C00202020202020563A2000202096
:100BA000563A20002020202020202020533A2000E8
:100BB0002020533A2000202020202020483A2000E6
:100BC0002020483A2000202065737120202020201A
:100BD00020202020202020646972202020000A206C
:100BE0002056616C6F72657320507265746F73204C
:100BF00043617074757261646F7320646F73205306
:100C0000656E736F72657320646520436F723A205E
:100C10000020207C20202020436F6E636C75696467
:100C20006F202020207C007C002D0020207C2D2D9A
:100C30002D2D2D2D2D000A20207C20436F6C6574F6
:100C4000616E646F204461646F73207C00202020FB
:100C500000202020002020200020200020202B65C4
:100C6000737120202020657371202020202064696A
:100C70007220202020202B646972000A20205661F7
:100C80006C6F72657320507265746F73204361706E
:100C900074757261646F7320646F732053656E7333
:100CA0006F726573206465205265666C6574C3A2BB
:100CB0006E6369613A200020207C20202020436F51
:100CC0006E636C7569646F202020207C007C002D91
:100CD0000020207C2D2D2D2D2D2D2D000A20207C57
:100CE00020436F6C6574616E646F204461646F7340
:100CF000207C000A43414C49425241C387C3834F81
:100D00002046494E414C495A4144412121000A5252
:100D100065616C697A616E646F20C39A6C74696DE9
:100D200061732041C3A7C3B565732E2E2E00507288
:100D3000657373696F6E65206F20426F74C3A36F14
:100D40002033207061726120436F6E74696E75612B
:100D50007221000A506172746520353A20436F6C2D
:100D6000657461722076616C6F72657320646F20A8
:100D700056657264652070617261206F2053656EE4
:100D8000736F7220646520436F72204469726569D5
:100D9000746F005072657373696F6E65206F2042C7
:100DA0006F74C3A36F2033207061726120436F6D35
:100DB00065C3A7617221000A506172746520343ADC
:100DC00020436F6C657461722076616C6F7265731D
:100DD00020646F2056657264652070617261206FB7
:100DE0002053656E736F7220646520436F722045D7
:100DF0007371756572646F005072657373696F6E9D
:100E000065206F20426F74C3A36F2032207061721F
:100E10006120436F6D65C3A7617221000A50617242
:100E2000746520333A20436F6C657461722076617B
:100E30006C6F72657320646F204272616E636F2005
:100E400070617261206F732053656E736F7265738A
:100E5000206465205265666C6574C3A26E63696127
:100E6000206520436F72005072657373696F6E6501
:100E7000206F20426F74C3A36F20312070617261B4
:100E800020436F6E74696E75617221000A50617241
:100E9000746520323A20436F6C657461722076610C
:100EA0006C6F72657320646F20507265746F207070
:100EB000617261206F732053656E736F726573206A
:100EC000646520436F720050726563696F6E6520C0
:100ED0006F20426F74C3A36F203120706172612054
:100EE000436F6D65C3A76172210050617274652004
:100EF000313A20436F6C657461722076616C6F7259
:100F0000657320646F20507265746F207061726128
:100F1000206F732053656E736F7265732064652054
:100F20005265666C6574C3A26E636961002D2D2DD8
:100F30002D2D2D2D2D2D2D2D2D2D2D2D2D2D2D2DE1
:100F40000A0043616C69627261C3A7C3A36F204941
:100F50006E696369616461000A2D2D2D2D2D2D2D83
:100F60002D2D2D2D2D2D2D2D2D2D2D2D00202042E3
:100F70006F74C3A36F20332053656C6563696F6E14
:100F800061646F3A20496E6963696172204D656ED4
:100F9000752053657269616C002020426F74C3A391
:100FA0006F20322053656C6563696F6E61646F3AC0
:100FB00020496E69636961722043616C6962726184
:100FC00067656D21002D2D2D2D2D2D2D2D2D2D2DD8
:100FD0002D2D2D2D2D2D2D2D2D2D2D2D2D2D2D2D41
:100FE0002D0A0045737472617465676961204578E4
:100FF00065637574617220496E69636961646F210C
:10100000000A2D2D2D2D2D2D2D2D2D2D2D2D2D2D60
:101010002D2D2D2D2D2D2D2D2D2D2D2D2D2D00203A
:1010200020426F74C3A36F20312053656C656369E0
:101030006F6E61646F3A20496E6963696172204323
:101040006F6D70657469C3A7C3A36F21004361739B
:101050006F206573636F6C686120496E69636961B5
:101060007220436F6D70657469C3A7C3A36F2C2092
:101070006F73206461646F732064612063616C69C5
:10108000627261C3A7C3A36F20736572C3A36F208D
:1010900070656761646F7320646120454550524FED
:1010A0004D2028C39A6C74696D612043616C69623C
:1010B0007261C3A7C3A36F204665697461290020CC
:1010C00020426F74C3A36F20333A20496E6963696D
:1010D0006172204D656E752053657269616C0020E8
:1010E00020426F74C3A36F20323A20496E6963694E
:1010F00061722043616C69627261646F72002020CA
:10110000426F74C3A36F20313A20496E69636961ED
:101110007220436F6D70657469C3A7C3A36F0056D7
:101120006F63C3AA2064657665206573636F6C681E
:101130006572206F2071756520646573656A612032
:1011400066617A657220636F6D206F7320626F74C1
:10115000C3B56573002D2D2D2D2D2D2D2D2D2D2D50
:101160002D2D2D2D2D2D2D2D2D0A004D656E75202B
:10117000426F74C3B5657320496E69636961646FBA
:10118000000A2D2D2D2D2D2D2D2D2D2D2D2D2D2DDF
:101190002D2D2D2D2D2D00202020202020563A20D1
:1011A000002020563A2000202020202020202053FC
:1011B0003A20002020533A200020202020202048E0
:1011C0003A20002020483A2000202065737120201A
:1011D0002020202020202020202064697220202030
:1011E000000A202053656E736F726573206465205A
:1011F000436F7220284272616E636F293A2000208B
:101200002020202020563A20002020563A2000207E
:1012100020202020202020533A20002020533A2054
:1012200000202020202020483A20002020483A207A
:1012300000202065737120202020202020202020E5
:101240002020646972202020000A202053656E73DC
:101250006F72657320646520436F72202856657233
:101260006465293A2000202020202020563A2000C2
:101270002020563A20002020202020202020533AF1
:1012800020002020533A2000202020202020483A0F
:1012900020002020483A2000202065737120202063
:1012A000202020202020202020646972202020007F
:1012B0000A202053656E736F726573206465204346
:1012C0006F722028507265746F293A200020202008
:1012D000202020002020202020200020202020204E
:1012E000200020200020202B657371202020206505
:1012F0007371202020202064697220202020202B60
:1013000064697200202053656E736F726573206488
:1013100065205265666C6574C3A26E6369613A00AC
:101320002D2D2D2D2D2D2D2D2D2D2D2D2D2D2D2DED
:101330002D2D2D2D2D2D2D2D2D2D2D2D2D2D2D2DDD
:101340002D2D2D004461646F7320646120C39A6C5D
:1013500074696D612043616C69627261C3A7C3A344
:101360006F2028454550524F4D29002D2D2D2D2DF4
:101370002D2D2D2D2D2D2D2D2D2D2D2D2D2D2D2D9D
:101380002D2D2D2D2D2D2D2D2D2D2D2D2D2D005691
:101390006F6C74616E646F2070617261204D656E58
:1013A0007520426F74C3B565732E2E2E0000000A9F
:1013B0000B02090C0D0E08070304010000000000D9
:1013C000000000000000000000000000000000001D
:1013D00000000000000000000012111000000000DA
:1013E00000000000000000000000000000000000FD
:1013F00000000000002100240027002A002D0030FA
:1014000000330001010000040107010A010000226D
:1014100000250028002B002E0031003400020100BE
:1014200000050108010B010000200023002600290F
:10143000002C002F0032000001000003010601090A
:101440000105050505070508080808020202020A49
:101450000A08080404040401010101010101010357
:1014600003030303030303040707070C0C0C0C0C12
:101470000C0C0C0202020206060606060606060B05
:101480000B0B0B0B0B0B0B0102102020080810207C
:101490004010204080020102010804020101020400
:1014A00008102040808040201008040201800402BF
:1014B0000180402010080402010804020101020416
:1014C0000810204080010204081020408000CE3B1C
:1014D00011241FBECFEFD1E2DEBFCDBF00E00CBFB5
:1014E00012E0A0E0B2E0ECECF1E800E00BBF02C0DB
:1014F00007900D92A43FB107D9F726E1A4EFB2E01F
:1015000001C01D92A33EB207E1F71AE0C8E6DAE097
:1015100000E006C021970109802FFE010E94B83F1C
:10152000C736D10780E00807A9F70E941F380C943E
:10153000E4400C940000CF92DF92EF92FF920F9361
:101540001F93CF93DF93CDB7DEB7C457D1090FB642
:10155000F894DEBF0FBECDBF81E891E10E94DF2C81
:101560008BE691E10E94DF2C85E591E10E94DF2C62
:101570008FE191E10E94DF2C8EEF90E10E94DF2C41
:101580008FED90E10E94DF2C8FEB90E10E94DF2C29
:101590008DE490E10E94DF2C8EE29DE00E941B22F0
:1015A0006BE470E081E090E00E944A3610E0111197
:1015B0000C94AD1B86E396E00E94D3258823F9F0B6
:1015C0008EE29DE00E941B2288EF94E00E94BA20E8
:1015D0008FE190E10E94DF2C68EE73E080E090E004
:1015E0000E94A63381E090E10E94DF2C83EE9FE011
:1015F0000E94DF2C85EC9FE00E94DF2C11E088E345
:1016000096E00E94D325882311F40C944E1789E9A3
:101610009FE00E94DF2C8EE29DE00E941B228AEF59
:1016200094E00E94BA2068EE73E080E090E00E94AF
:10163000A63364E670E083E090E00E944A3688E5D5
:101640009FE00E94DF2C82E49FE00E94DF2C8DE26D
:101650009FE00E94DF2C8AEE9EE00E94DF2C87EC48
:101660009EE00E94DF2C81E895E10E94D32588232B
:10167000D1F387E19CE00E941B2288EF94E00E9456
:10168000BA208CED9CE00E94DF2C81ED9CE00E9452
:10169000C12C0AE010E0C090900CD090910CE0902A
:1016A000920CF090930C86E390E00E94522B9B01E9
:1016B000AC01C701B6010E94C13F6093900C7093CA
:1016C000910C8093920C9093930CC090940CD090BA
:1016D000950CE090960CF090970C87E390E00E94B8
:1016E000522B9B01AC01C701B6010E94C13F609320
:1016F000940C7093950C8093960C9093970CC090DB
:10170000980CD090990CE0909A0CF0909B0C88E388
:1017100090E00E94522B9B01AC01C701B6010E94D0
:10172000C13F6093980C7093990C80939A0C90939E
:101730009B0CC0909C0CD0909D0CE0909E0CF09067
:101740009F0C89E390E00E94522B9B01AC01C701E2
:10175000B6010E94C13F60939C0C70939D0C8093D6
:101760009E0C90939F0C68EC70E080E090E00E94EB
:10177000A6338FEC9CE00E94C12C0150110909F0A6
:101780008ACF8DEC9CE00E94DF2C87EB9CE00E94CE
:10179000DF2C20E030E040E251E46091900C709149
:1017A000910C8091920C9091930C0E942D4060932B
:1017B000900C7093910C8093920C9093930C20E07A
:1017C00030E040E251E46091940C7091950C80916E
:1017D000960C9091970C0E942D406093940C7093FE
:1017E000950C8093960C9093970C20E030E040E2AB
:1017F00051E46091980C7091990C80919A0C9091A1
:101800009B0C0E942D406093980C7093990C8093D0
:101810009A0C90939B0C20E030E040E251E4609100
:101820009C0C70919D0C80919E0C90919F0C0E943D
:101830002D4060939C0C70939D0C80939E0C909314
:101840009F0C81E090E00E94EB2C8BE79CE00E94D3
:10185000DF2C8CE59CE00E94DF2C89E59CE00E9457
:10186000C12C6091900C7091910C8091920C909190
:10187000930C0E94DC2C85E59CE00E94C12C6091B9
:10188000940C7091950C8091960C9091970C0E94FD
:10189000DC2C81E59CE00E94C12C6091980C709139
:1018A000990C80919A0C90919B0C0E94DC2C8DE4F9
:1018B0009CE00E94C12C60919C0C70919D0C8091C9
:1018C0009E0C90919F0C0E94B42C8CE89EE00E948C
:1018D000DF2C87E69EE00E94DF2C81E895E10E94E4
:1018E000D3258823D1F388EF94E00E94B52068ECDB
:1018F00070E080E090E00E94A63388EF94E00E94C0
:10190000BA2086E39CE00E94DF2C8BE29CE00E94E0
:10191000C12C61E275E1CE0187599F4F0E945D2D78
:101920008CE0FE01E759FF4FA0EBBCE001900D9267
:101930008A95E1F761E275E1CE0187599F4F0E94D8
:101940004B2D8CE0FE01E759FF4FACEBBCE0019062
:101950000D928A95E1F78091B00C9091B10CA09115
:10196000B20CB091B30C8093E60C9093E70CA0936B
:10197000E80CB093E90C8091BC0C9091BD0CA09147
:10198000BE0CB091BF0C8093F20C9093F30CA0931B
:10199000F40CB093F50C8091B40C9091B50CA0911F
:1019A000B60CB091B70C8093EA0C9093EB0CA0931B
:1019B000EC0CB093ED0C8091C00C9091C10CA091F7
:1019C000C20CB091C30C8093F60C9093F70CA093CB
:1019D000F80CB093F90C8091B80C9091B90CA091CF
:1019E000BA0CB091BB0C8093EE0C9093EF0CA093CB
:1019F000F00CB093F10C8091C40C9091C50CA091A7
:101A0000C60CB091C70C8093FA0C9093FB0CA0937A
:101A1000FC0CB093FD0C0AE010E061E275E1CE0130
:101A200087599F4F0E945D2D8CE0FE01E759FF4FC3
:101A3000A0EBBCE001900D928A95E1F761E275E1BF
:101A4000CE0187599F4F0E944B2D8CE0FE01E75934
:101A5000FF4FACEBBCE001900D928A95E1F720912D
:101A6000B00C3091B10C4091B20C5091B30C60911C
:101A7000E60C7091E70C8091E80C9091E90C0E94C3
:101A8000C13F20E030E040E05FE30E94A83E609369
:101A9000E60C7093E70C8093E80C9093E90C20918E
:101AA000BC0C3091BD0C4091BE0C5091BF0C6091AC
:101AB000F20C7091F30C8091F40C9091F50C0E9453
:101AC000C13F20E030E040E05FE30E94A83E609329
:101AD000F20C7093F30C8093F40C9093F50C20911E
:101AE000B40C3091B50C4091B60C5091B70C60918C
:101AF000EA0C7091EB0C8091EC0C9091ED0C0E9433
:101B0000C13F20E030E040E05FE30E94A83E6093E8
:101B1000EA0C7093EB0C8093EC0C9093ED0C2091FD
:101B2000C00C3091C10C4091C20C5091C30C60911B
:101B3000F60C7091F70C8091F80C9091F90C0E94C2
:101B4000C13F20E030E040E05FE30E94A83E6093A8
:101B5000F60C7093F70C8093F80C9093F90C20918D
:101B6000B80C3091B90C4091BA0C5091BB0C6091FB
:101B7000EE0C7091EF0C8091F00C9091F10C0E94A2
:101B8000C13F20E030E040E05FE30E94A83E609368
:101B9000EE0C7093EF0C8093F00C9093F10C20916D
:101BA000C40C3091C50C4091C60C5091C70C60918B
:101BB000FA0C7091FB0C8091FC0C9091FD0C0E9432
:101BC000C13F20E030E040E05FE30E94A83E609328
:101BD000FA0C7093FB0C8093FC0C9093FD0C68EC5A
:101BE00070E080E090E00E94A63389E29CE00E94D1
:101BF000C12C0150110909F010CF87E29CE00E942E
:101C0000DF2C81E19CE00E94DF2C81E090E00E94CB
:101C1000EB2C8EED9BE00E94DF2C86EC9BE00E947B
:101C2000DF2C80EC9BE00E94C12C6091E60C70914F
:101C3000E70C8091E80C9091E90C0E94DC2C86EB7B
:101C40009BE00E94C12C6091F20C7091F30C80918A
:101C5000F40C9091F50C0E94B42C80EB9BE00E9458
:101C6000C12C6091EA0C7091EB0C8091EC0C90917E
:101C7000ED0C0E94DC2C84EA9BE00E94C12C609158
:101C8000F60C7091F70C8091F80C9091F90C0E9471
:101C9000B42C8EE99BE00E94C12C6091EE0C7091F7
:101CA000EF0C8091F00C9091F10C0E94DC2C84E9F7
:101CB0009BE00E94C12C6091FA0C7091FB0C80910A
:101CC000FC0C9091FD0C0E94B42C8CE19EE00E94D3
:101CD000DF2C88EF9DE00E94DF2C83E895E10E94D5
:101CE000D3258823D1F38AEF94E00E94BA208DE7B0
:101CF0009BE00E94DF2C82E79BE00E94C12C61E206
:101D000075E1CE0187599F4F0E945D2D8CE0FE0149
:101D1000E759FF4FA0EBBCE001900D928A95E1F7E7
:101D200061E275E1CE0187599F4F0E944B2D8CE0F7
:101D3000FE01E759FF4FACEBBCE001900D928A9594
:101D4000E1F78091B00C9091B10CA091B20CB091E0
:101D5000B30C8093CE0C9093CF0CA093D00CB09387
:101D6000D10C8091BC0C9091BD0CA091BE0CB09197
:101D7000BF0C8093DA0C9093DB0CA093DC0CB09337
:101D8000DD0C8091B40C9091B50CA091B60CB09183
:101D9000B70C8093D20C9093D30CA093D40CB09337
:101DA000D50C8091C00C9091C10CA091C20CB09147
:101DB000C30C8093DE0C9093DF0CA093E00CB093E7
:101DC000E10C8091B80C9091B90CA091BA0CB09133
:101DD000BB0C8093D60C9093D70CA093D80CB093E7
:101DE000D90C8091C40C9091C50CA091C60CB091F7
:101DF000C70C8093E20C9093E30CA093E40CB09397
:101E0000E50C0AE010E0C090800CD090810CE090CE
:101E1000820CF090830C86E390E00E94522B9B0191
:101E2000AC01C701B6010E94C13F6093800C709362
:101E3000810C8093820C9093830CC090840CD09082
:101E4000850CE090860CF090870C87E390E00E9470
:101E5000522B9B01AC01C701B6010E94C13F6093A8
:101E6000840C7093850C8093860C9093870CC090A3
:101E7000880CD090890CE0908A0CF0908B0C88E351
:101E800090E00E94522B9B01AC01C701B6010E9459
:101E9000C13F6093880C7093890C80938A0C909357
:101EA0008B0CC0908C0CD0908D0CE0908E0CF09030
:101EB0008F0C89E390E00E94522B9B01AC01C7017B
:101EC000B6010E94C13F60938C0C70938D0C80937F
:101ED0008E0C90938F0C61E275E1CE0187599F4F74
:101EE0000E945D2D8CE0FE01E759FF4FA0EBBCE0A6
:101EF00001900D928A95E1F761E275E1CE01875973
:101F00009F4F0E944B2D8CE0FE01E759FF4FACEB39
:101F1000BCE001900D928A95E1F72091B00C3091D0
:101F2000B10C4091B20C5091B30C6091CE0C7091F9
:101F3000CF0C8091D00C9091D10C0E94C13F20E039
:101F400030E040E05FE30E94A83E6093CE0C7093C7
:101F5000CF0C8093D00C9093D10C2091BC0C30917D
:101F6000BD0C4091BE0C5091BF0C6091DA0C709189
:101F7000DB0C8091DC0C9091DD0C0E94C13F20E0D5
:101F800030E040E05FE30E94A83E6093DA0C70937B
:101F9000DB0C8093DC0C9093DD0C2091B40C309121
:101FA000B50C4091B60C5091B70C6091D20C709169
:101FB000D30C8091D40C9091D50C0E94C13F20E0AD
:101FC00030E040E05FE30E94A83E6093D20C709343
:101FD000D30C8093D40C9093D50C2091C00C3091ED
:101FE000C10C4091C20C5091C30C6091DE0C7091F9
:101FF000DF0C8091E00C9091E10C0E94C13F20E049
:1020000030E040E05FE30E94A83E6093DE0C7093F6
:10201000DF0C8093E00C9093E10C2091B80C309190
:10202000B90C4091BA0C5091BB0C6091D60C7091D8
:10203000D70C8091D80C9091D90C0E94C13F20E020
:1020400030E040E05FE30E94A83E6093D60C7093BE
:10205000D70C8093D80C9093D90C2091C40C30915C
:10206000C50C4091C60C5091C70C6091E20C709168
:10207000E30C8091E40C9091E50C0E94C13F20E0BC
:1020800030E040E05FE30E94A83E6093E20C709372
:10209000E30C8093E40C9093E50C68EC70E080E036
:1020A00090E00E94A63380E79BE00E94C12C015083
:1020B000110909F0A8CE8EE69BE00E94DF2C88E58E
:1020C0009BE00E94DF2C20E030E040E251E4609190
:1020D000800C7091810C8091820C9091830C0E94F5
:1020E0002D406093800C7093810C8093820C9093B0
:1020F000830C20E030E040E251E46091840C709168
:10210000850C8091860C9091870C0E942D406093E5
:10211000840C7093850C8093860C9093870C20E040
:1021200030E040E251E46091880C7091890C80911C
:102130008A0C90918B0C0E942D406093880C7093B8
:10214000890C80938A0C90938B0C20E030E040E265
:1021500051E460918C0C70918D0C80918E0C90915B
:102160008F0C0E942D4060938C0C70938D0C80938B
:102170008E0C90938F0C82E090E00E94EB2C8BE110
:102180009BE00E94DF2C8CEF9AE00E94DF2C89EF0D
:102190009AE00E94C12C6091800C7091810C80911A
:1021A000820C9091830C0E94DC2C85EF9AE00E94B7
:1021B000C12C6091840C7091850C8091860C90915B
:1021C000870C0E94DC2C81EF9AE00E94C12C609168
:1021D000880C7091890C80918A0C90918B0C0E94D4
:1021E000DC2C8DEE9AE00E94C12C60918C0C7091D9
:1021F0008D0C80918E0C90918F0C0E94B42C89EBE9
:102200009AE00E94DF2C81EA9AE00E94DF2C8BE9A1
:102210009AE00E94C12C6091CE0C7091CF0C8091FD
:10222000D00C9091D10C0E94DC2C81E99AE00E94A4
:10223000C12C6091DA0C7091DB0C8091DC0C9091D8
:10224000DD0C0E94B42C8BE89AE00E94C12C6091B6
:10225000D20C7091D30C8091D40C9091D50C0E942B
:10226000DC2C8FE79AE00E94C12C6091DE0C70910B
:10227000DF0C8091E00C9091E10C0E94B42C89E776
:102280009AE00E94C12C6091D60C7091D70C80917D
:10229000D80C9091D90C0E94DC2C8FE69AE00E9419
:1022A000C12C6091E20C7091E30C8091E40C909150
:1022B000E50C0E94B42C87EB9DE00E94DF2C83E9A3
:1022C0009DE00E94DF2C85E895E10E94D3258823BC
:1022D000D1F38CEF94E00E94BA2088E59AE00E9446
:1022E000DF2C8DE49AE00E94C12C61E275E1CE0101
:1022F00087599F4F0E945D2D8CE0FE01E759FF4FEB
:10230000A0EBBCE001900D928A95E1F78091B00CB2
:102310009091B10CA091B20CB091B30C8093FE0CD3
:102320009093FF0CA093000DB093010D8091B40C1D
:102330009091B50CA091B60CB091B70C8093020DA2
:102340009093030DA093040DB093050D8091B80CEC
:102350009091B90CA091BA0CB091BB0C8093060D72
:102360009093070DA093080DB093090D81E295E1BC
:102370000E94722D2093160D3093170D4093180D67
:102380005093190D60931A0D70931B0D81E295E126
:102390000E94722D2093220D3093230D4093240D23
:1023A0005093250D6093260D7093270D0AE010E0E1
:1023B00061E275E1CE0187599F4F0E945D2D8CE04F
:1023C000FE01E759FF4FA0EBBCE001900D928A950A
:1023D000E1F72091B00C3091B10C4091B20C5091CA
:1023E000B30C6091FE0C7091FF0C8091000D9091E8
:1023F000010D0E94C13F20E030E040E05FE30E9419
:10240000A83E6093FE0C7093FF0C8093000D909398
:10241000010D2091B40C3091B50C4091B60C509147
:10242000B70C6091020D7091030D8091040D909195
:10243000050D0E94C13F20E030E040E05FE30E94D4
:10244000A83E6093020D7093030D8093040D90934A
:10245000050D2091B80C3091B90C4091BA0C5091F7
:10246000BB0C6091060D7091070D8091080D909145
:10247000090D0E94C13F20E030E040E05FE30E9490
:10248000A83E6093060D7093070D8093080D9093FE
:10249000090D81E295E10E94722D2093C80C3093C2
:1024A000C90C4093CA0C5093CB0C6093CC0C709326
:1024B000CD0C4091CA0C5091CB0C8091180D90918D
:1024C000190D8417950724F45093190D4093180D96
:1024D0002091C80C3091C90C8091160D9091170D68
:1024E0008217930724F43093170D2093160D8091D3
:1024F000CC0C9091CD0C60911A0D70911B0D68174A
:10250000790724F490931B0D80931A0D6091240D8C
:102510007091250D4617570724F45093250D4093CD
:10252000240D4091220D5091230D2417350724F4DA
:102530003093230D2093220D2091260D3091270DED
:102540008217930724F49093270D8093260D68EC4F
:1025500070E080E090E00E94A6338BE49AE00E9455
:10256000C12C0150110909F023CF89E49AE00E949F
:10257000DF2C83E39AE00E94DF2C83E090E00E944E
:10258000EB2C88EF99E00E94DF2C82EF99E00E940B
:10259000C12C6091FE0C7091FF0C8091000D909108
:1025A000010D0E94B42C8CEE99E00E94C12C609128
:1025B000020D7091030D8091040D9091050D0E9404
:1025C000B42C86EE99E00E94C12C6091060D7091AA
:1025D000070D8091080D9091090D0E94B42C83E5A0
:1025E0009DE00E94DF2C8EE29DE00E94DF2C85E8BA
:1025F00095E10E94D3258823D1F38CEF94E00E94CB
:10260000B52068EC70E080E090E00E94A6338CEF8B
:1026100094E00E94BA208FEC99E00E94DF2C84ECB9
:1026200099E00E94C12C61E275E1CE0187599F4F6C
:102630000E944B2D8CE0FE01E759FF4FACEBBCE054
:1026400001900D928A95E1F78091BC0C9091BD0CA0
:10265000A091BE0CB091BF0C80930A0D90930B0D0E
:10266000A0930C0DB0930D0D8091C00C9091C10CF6
:10267000A091C20CB091C30C80930E0D90930F0DDE
:10268000A093100DB093110D8091C40C9091C50CC6
:10269000A091C60CB091C70C8093120D9093130DAE
:1026A000A093140DB093150D81E295E10E94B02D19
:1026B00020931C0D30931D0D40931E0D50931F0D44
:1026C0006093200D7093210D81E295E10E94B02D61
:1026D0002093280D3093290D40932A0D50932B0DF4
:1026E00060932C0D70932D0D0AE010E061E275E10E
:1026F000CE0187599F4F0E944B2D8CE0FE01E75978
:10270000FF4FACEBBCE001900D928A95E1F7209170
:10271000BC0C3091BD0C4091BE0C5091BF0C60912F
:102720000A0D70910B0D80910C0D90910D0D0E9472
:10273000C13F20E030E040E05FE30E94A83E6093AC
:102740000A0D70930B0D80930C0D90930D0D20913D
:10275000C00C3091C10C4091C20C5091C30C6091DF
:102760000E0D70910F0D8091100D9091110D0E9422
:10277000C13F20E030E040E05FE30E94A83E60936C
:102780000E0D70930F0D8093100D9093110D2091ED
:10279000C40C3091C50C4091C60C5091C70C60918F
:1027A000120D7091130D8091140D9091150D0E94D2
:1027B000C13F20E030E040E05FE30E94A83E60932C
:1027C000120D7093130D8093140D9093150D81E2EB
:1027D00095E10E94B02D2093C80C3093C90C409312
:1027E000CA0C5093CB0C6093CC0C7093CD0C4091E1
:1027F000CA0C5091CB0C80911E0D90911F0D841727
:10280000950724F450931F0D40931E0D2091C80C82
:102810003091C90C80911C0D90911D0D821793076A
:1028200024F430931D0D20931C0D8091CC0C9091BD
:10283000CD0C6091200D7091210D6817790724F45B
:102840009093210D8093200D60912A0D70912B0D96
:102850004617570724F450932B0D40932A0D4091AF
:10286000280D5091290D2417350724F43093290D94
:102870002093280D20912C0D30912D0D8217930758
:1028800024F490932D0D80932C0D68EC70E080E083
:1028900090E00E94A63382EC99E00E94C12C015086
:1028A000110909F023CF80EC99E00E94DF2C8AEA1D
:1028B00099E00E94DF2C83E090E00E94EB2C80E7FF
:1028C00099E00E94DF2C8AE699E00E94C12C609179
:1028D0000A0D70910B0D80910C0D90910D0D0E94C1
:1028E000B42C84E699E00E94C12C60910E0D709189
:1028F0000F0D8091100D9091110D0E94B42C8EE55A
:1029000099E00E94C12C6091120D7091130D80917D
:10291000140D9091150D0E94B42C8EE09DE00E9444
:10292000DF2C68EE73E080E090E00E94A6332091F7
:10293000800C3091810C4091820C5091830C6091FD
:10294000900C7091910C8091920C9091930C0E943C
:10295000C13F20E030E040E05FE30E94A83E60938A
:10296000AC0C7093AD0C8093AE0C9093AF0C209197
:10297000840C3091850C4091860C5091870C6091AD
:10298000940C7091950C8091960C9091970C0E94EC
:10299000C13F20E030E040E05FE30E94A83E60934A
:1029A000A80C7093A90C8093AA0C9093AB0C209167
:1029B000880C3091890C40918A0C50918B0C60915D
:1029C000980C7091990C80919A0C90919B0C0E949C
:1029D000C13F20E030E040E05FE30E94A83E60930A
:1029E000A40C7093A50C8093A60C9093A70C209137
:1029F0008C0C30918D0C40918E0C50918F0C60910D
:102A00009C0C70919D0C80919E0C90919F0C0E944B
:102A1000C13F20E030E040E05FE30E94A83E6093C9
:102A2000A00C7093A10C8093A20C9093A30C89E24C
:102A300099E00E94DF2C89E099E00E94DF2C85E07C
:102A400099E00E94C12C6091AC0C7091AD0C80910A
:102A5000AE0C9091AF0C0E94DC2C81E099E00E94BA
:102A6000C12C6091A80C7091A90C8091AA0C909136
:102A7000AB0C0E94DC2C8DEF98E00E94C12C609181
:102A8000A40C7091A50C8091A60C9091A70C0E94AB
:102A9000DC2C89EF98E00E94C12C6091A00C709111
:102AA000A10C8091A20C9091A30C0E94B42C8DECEF
:102AB00098E00E94DF2C85EB98E00E94DF2C8FEAE3
:102AC00098E00E94C12C6091E60C7091E70C809117
:102AD000E80C9091E90C0E94DC2C85EA98E00E94B9
:102AE000C12C6091F20C7091F30C8091F40C9091D8
:102AF000F50C0E94B42C8FE998E00E94C12C6091E3
:102B0000EA0C7091EB0C8091EC0C9091ED0C0E9412
:102B1000DC2C83E998E00E94C12C6091F60C709146
:102B2000F70C8091F80C9091F90C0E94B42C8DE870
:102B300098E00E94C12C6091EE0C7091EF0C809196
:102B4000F00C9091F10C0E94DC2C83E898E00E943C
:102B5000C12C6091FA0C7091FB0C8091FC0C90914F
:102B6000FD0C0E94B42C6091AC0C7091AD0C809166
:102B7000AE0C9091AF0C0E949F4070937F0C6093BD
:102B80007E0C6091A80C7091A90C8091AA0C909178
:102B9000AB0C0E949F4070937D0C60937C0C609105
:102BA000A40C7091A50C8091A60C9091A70C0E948A
:102BB0009F407093790C6093780C6091A00C709199
:102BC000A10C8091A20C9091A30C0E949F40709345
:102BD0007B0C60937A0C8091E60C9091E70CA091AD
:102BE000E80CB091E90C80933C0C90933D0CA093C1
:102BF0003E0CB0933F0C8091EA0C9091EB0CA091AD
:102C0000EC0CB091ED0C8093400C9093410CA09390
:102C1000420CB093430C8091EE0C9091EF0CA0917C
:102C2000F00CB091F10C8093440C9093450CA09360
:102C3000460CB093470C8091F20C9091F30CA0914C
:102C4000F40CB091F50C8093300C9093310CA09360
:102C5000320CB093330C8091F60C9091F70CA0914C
:102C6000F80CB091F90C8093340C9093350CA09330
:102C7000360CB093370C8091FA0C9091FB0CA0911C
:102C8000FC0CB091FD0C8093380C9093390CA09300
:102C90003A0CB0933B0C8091CE0C9091CF0CA0914C
:102CA000D00CB091D10C8093240C9093250CA09360
:102CB000260CB093270C8091D20C9091D30CA0914C
:102CC000D40CB091D50C8093280C9093290CA09330
:102CD0002A0CB0932B0C8091D60C9091D70CA0911C
:102CE000D80CB091D90C80932C0C90932D0CA09300
:102CF0002E0CB0932F0C8091DA0C9091DB0CA091EC
:102D0000DC0CB091DD0C8093180C9093190CA093FF
:102D10001A0CB0931B0C8091DE0C9091DF0CA091EB
:102D2000E00CB091E10C80931C0C90931D0CA093CF
:102D30001E0CB0931F0C8091E20C9091E30CA091BB
:102D4000E40CB091E50C8093200C9093210CA0939F
:102D5000220CB093230C8091FE0C9091FF0CA0915B
:102D6000000DB091010D8093540C9093550CA093DD
:102D7000560CB093570C8091020D9091030DA091C9
:102D8000040DB091050D8093580C9093590CA093AD
:102D90005A0CB0935B0C8091060D9091070DA09199
:102DA000080DB091090D80935C0C90935D0CA0937D
:102DB0005E0CB0935F0C80910A0D90910B0DA09169
:102DC0000C0DB0910D0D8093480C9093490CA0937D
:102DD0004A0CB0934B0C80910E0D90910F0DA09169
:102DE000100DB091110D80934C0C90934D0CA0934D
:102DF0004E0CB0934F0C8091120D9091130DA09139
:102E0000140DB091150D8093500C9093510CA0931C
:102E1000520CB093530C88E6E8E1FCE0DE01119619
:102E200001900D928A95E1F7CE0101966C01E12C9B
:102E3000F12CF60111916F01C7010E94663F18172E
:102E400021F0612FC7010E946E3FFFEFEF1AFF0ACA
:102E500028E6E216F10469F786E698E00E94DF2C86
:102E600088E19CE00E94ED2D83EF9CE00E94DF2C26
:102E700068EC70E080E090E00E94A63364E070E0CF
:102E800087E19CE00E94272268EC70E080E090E0FF
:102E90000E94A63381E08093160C5FC48AE396E01B
:102EA0000E94D325882311F40C94D70A8DE69FE065
:102EB0000E94DF2C8EE29DE00E941B228CEF94E0AA
:102EC0000E94BA2068EE73E080E090E00E94A63392
:102ED00063E070E08EE29DE00E94272280E598E0AA
:102EE0000E94DF2C8BE398E00E94DF2C86E298E0C2
:102EF0000E94DF2C10E0111134C088ED97E00E9491
:102F0000DF2C87EB97E00E94DF2C88E997E00E9496
:102F1000DF2C8BE797E00E94DF2C8EE597E00E9484
:102F2000DF2C8AE397E00E94DF2C88E197E00E9483
:102F3000DF2C89EF96E00E94DF2C80EE96E00E9465
:102F4000DF2C8FEB96E00E94DF2C8DEA96E00E944A
:102F5000DF2C8AE996E00E94DF2C87E796E00E944A
:102F6000DF2C8DE493E00E94181C892BD1F30E9482
:102F7000B9346B017C01672BC9F087E696E00E94AB
:102F8000C12CC6010E94092E0E94B02C0D2C000CF1
:102F9000EE08FF08F6013196ED30F10508F0D2C3D6
:102FA0008827EE58FF4F8F4F0C94B83F83E696E08A
:102FB0000E94DF2C11E0D5CF8AE296E00E94DF2C40
:102FC00084E096E00E94DF2C0E94B9346F3F7F4F6F
:102FD0008F4F9F4F09F4BAC386E390E00E94522BB3
:102FE0006093280F7093290F80932A0F90932B0FD3
:102FF00087E390E00E94522B60932C0F70932D0F6B
:1030000080932E0F90932F0F88E390E00E94522B15
:103010006093300F7093310F8093320F9093330F82
:1030200089E390E00E94522B6093340F7093350F28
:103030008093360F9093370F84EE92E00E94C12C5C
:103040006091280F7091290F80912A0F90912B0F7A
:103050000E94DC2C81EE92E00E94C12C60912C0F2A
:1030600070912D0F80912E0F90912F0F0E94DC2CCC
:103070008EED92E00E94C12C6091300F7091310F63
:103080008091320F9091330F0E94DC2C8BED92E0F7
:103090000E94C12C6091340F7091350F8091360FD2
:1030A0009091370F0E94B42C6AEF70E080E090E0BE
:1030B0000E94A63389CF8DEC95E00E94DF2C87EA31
:1030C00095E00E94DF2C0E94B9346F3F7F4F8F4FF5
:1030D0009F4F09F43BC38EE495E00E94EB1E0E94D3
:1030E000493E20915205309153054091540550912D
:1030F00055050E942D4020E030E040E05FE30E9453
:10310000A83E60935510709356108093571090937B
:1031100058108EE395E00E94EB1E0E94493E2091DC
:1031200042053091430540914405509145050E9468
:103130002D4020E030E040E05FE30E94A83E609335
:1031400051107093521080935310909354108EE24C
:1031500095E00E94EB1E0E94493E2091320530917D
:10316000330540913405509135050E942D4020E0F3
:1031700030E040E05FE30E94A83E60934D10709302
:103180004E1080934F109093501081EC92E00E946B
:10319000C12C60914D1070914E1080914F10909104
:1031A00050100E94DC2C84EB92E00E94C12C6091B4
:1031B00051107091521080915310909154100E94B0
:1031C000DC2C88EA92E00E94C12C6091551070912D
:1031D000561080915710909158100E94B42C64EFB3
:1031E00071E080E090E00E94A6336DCF8EE29DE01A
:1031F0000E941B2281E392E00E944B308FE692E016
:103200000E944B300E94B9346F3F7F4F8F4F9F4FCA
:1032100009F49CC284E496E00E94722D2093E00F92
:103220003093E10F4093E20F5093E30F6093E40F6C
:103230007093E50F84E496E00E94B02D2093E60F92
:103240003093E70F4093E80F5093E90F6093EA0F34
:103250007093EB0F89E992E00E94C12C8091E20FFC
:103260009091E30F0E94092E86E992E00E94C12C02
:103270008091E00F9091E10F0E94092E83E992E086
:103280000E94C12C8091E40F9091E50F0E94092EBD
:1032900081E892E00E94C12C8091E80F9091E90FA3
:1032A0000E94092E8EE792E00E94C12C8091E60FC9
:1032B0009091E70F0E94092E8BE792E00E94C12CAB
:1032C0008091EA0F9091EB0F0E94092E0E94B02C82
:1032D00064EF71E080E090E00E94A63393CF8EE22D
:1032E0009DE00E941B2289E695E00E94DF2C83E48A
:1032F00095E00E94DF2C0E94B9346F3F7F4F8F4FC3
:103300009F4F09F423C264E476E0CE0187599F4FB2
:103310000E945D2D8CE0FE01E759FF4FACEEBFE04F
:1033200001900D928A95E1F764E476E0CE01875929
:103330009F4F0E944B2D8CE0FE01E759FF4FA8EFF5
:10334000BFE001900D928A95E1F78CE692E00E9431
:10335000C12C6091EC0F7091ED0F8091EE0F909168
:10336000EF0F0E94DC2C89E692E00E94C12C609154
:10337000F00F7091F10F8091F20F9091F30F0E9476
:10338000DC2C86E692E00E94C12C6091F40F7091D3
:10339000F50F8091F60F9091F70F0E94DC2C84E5D9
:1033A00092E00E94C12C6091F80F7091F90F80910A
:1033B000FA0F9091FB0F0E94DC2C81E592E00E94B5
:1033C000C12C6091FC0F7091FD0F8091FE0F9091C8
:1033D000FF0F0E94DC2C8EE492E00E94C12C6091D1
:1033E00000107091011080910210909103100E94C2
:1033F000DC2C0E94B02C64E670E080E090E00E943B
:10340000A63379CF87E095E00E94DF2C81EE94E02F
:103410000E94DF2C0E94B9346F3F7F4F8F4F9F4F28
:1034200009F494C185E992E00E9448360E94BB35B8
:1034300060915B1070915C10072E000C880B990B4B
:103440000E94493E0E94DC2C8CE992E00E944836A2
:103450000E94BB3560915D1070915E10072E000CCC
:10346000880B990B0E94493E0E94DC2C86EA92E070
:103470000E9448360E94BB3560915F1070916010C9
:10348000072E000C880B990B0E94493E0E94B42C19
:103490006CE271E080E090E00E94A633BBCF87EA47
:1034A00094E00E94DF2C81E894E00E94DF2C0E94CF
:1034B000B9346F3F7F4F8F4F9F4F09F447C187EC5F
:1034C00092E00E9448360E94BB3560916110709175
:1034D0006210072E000C880B990B0E94493E0E9437
:1034E000DC2C80EB92E00E9448360E94BB35609154
:1034F000631070916410072E000C880B990B0E94CA
:10350000493E0E94DC2C8AEB92E00E9448360E94E1
:10351000BB356091651070916610072E000C880B0A
:10352000990B0E94493E0E94B42C6CE271E080E04D
:1035300090E00E94A633BBCF86E494E00E94DF2C8B
:1035400080E294E00E94DF2C0E94B9346F3F7F4FED
:103550008F4F9F4F09F4FAC085E992E00E944836E8
:103560000E94BB3560915B1070915C10072E000CBF
:10357000880B990B0E94493E0E94DC2C8CE992E05A
:103580000E9448360E94BB3560915D1070915E10BC
:10359000072E000C880B990B0E94493E0E94DC2CE0
:1035A00086EA92E00E9448360E94BB3560915F1027
:1035B00070916010072E000C880B990B0E94493EF9
:1035C0000E94DC2C84EC92E00E9448360E94BB35BD
:1035D0006091611070916210072E000C880B990B9E
:1035E0000E94493E0E94DC2C80EB92E00E9448360B
:1035F0000E94BB356091631070916410072E000C1F
:10360000880B990B0E94493E0E94DC2C8AEB92E0C9
:103610000E9448360E94BB3560916510709166101B
:10362000072E000C880B990B0E94493E0E94B42C77
:103630006CE271E080E090E00E94A63385CF8FE1DC
:1036400094E00E94DF2C86E19CE00E94B5248EEF7E
:1036500093E00E94DF2C0E94B9346F3F7F4F8F4F61
:103660009F4FC9F773C081EB93E00E94DF2C89E87C
:1036700093E00E94DF2C60ED77E080E090E00E9414
:10368000A6330E94B93400E010E098016130710562
:103690008105910549F040E050E068E472E486ED70
:1036A00095E00E946527EDCFB901A80186ED95E070
:1036B0000E94652789E593E00E94DF2C84E393E074
:1036C0000E94DF2C60ED77E080E090E00E94A6335E
:1036D0000E94B9346F3F7F4F8F4F9F4F61F000E0E2
:1036E00010E028E432E440E050E0BA0186ED95E0D5
:1036F0000E946527EDCF00E010E09801B901A80114
:1037000086ED95E00E94652721C088E49FE00E9435
:103710001F24882381F080E496E00E94BA208EEC7A
:1037200092E00E944B300E94B9346F3F7F4F8F4F21
:103730009F4F59F707C080E496E00E94B52087EDBF
:1037400092E0EFCF80E193E00E94DF2C10E0D5CB38
:103750000E949B0A11E00C94D70ACC58DF4F0FB699
:10376000F894DEBF0FBECDBFDF91CF911F910F91B7
:10377000FF90EF90DF90CF900895CF92DF92EF927D
:10378000FF920F931F93CF93DF936C017A018B010C
:10379000C0E0D0E0CE15DF0581F0D8016D918D013C
:1037A000D601ED91FC910190F081E02DC6011995B3
:1037B000892B11F02196EECF7E01C701DF91CF91C9
:1037C0001F910F91FF90EF90DF90CF900895FC0133
:1037D000538D448D252F30E0842F90E0821B930B76
:1037E000541710F0CF96089501970895FC01918D1C
:1037F000828D981761F0828DDF01A80FB11D5D9653
:103800008C91928D9F5F9F73928F90E008958FEFC0
:103810009FEF0895FC01918D828D981731F0828D74
:10382000E80FF11D858D90E008958FEF9FEF0895CB
:10383000FC01918D228D892F90E0805C9F4F821B2F
:1038400091098F73992708958DE493E00E94181CC5
:1038500021E0892B09F420E0822F0895FC01848D5A
:10386000DF01A80FB11DA35ABF4F2C91848D90E0AA
:1038700001968F739927848FA689B7892C93A08985
:10388000B1898C91837080648C93938D848D98130F
:1038900006C00288F389E02D80818F7D80830895A2
:1038A000EF92FF920F931F93CF93DF93EC0181E090
:1038B000888F9B8D8C8D981305C0E889F98980814C
:1038C00085FD26C0F62E0B8D10E00F5F1F4F0F7386
:1038D0001127E02E8C8DE8120CC00FB607FCFACF32
:1038E000E889F989808185FFF5CFCE010E942E1CE1
:1038F000F1CF8B8DFE01E80FF11DE35AFF4FF082EF
:103900009FB7F8940B8FEA89FB89808180620AC097
:103910009FB7F894EE89FF896083E889F9898081EF
:103920008370806480839FBF81E090E0DF91CF91BE
:103930001F910F91FF90EF900895CF93DF93EC01CB
:10394000888D8823C9F0EA89FB89808185FD05C0BF
:10395000A889B9898C9186FD0FC00FB607FCF5CFF9
:10396000808185FFF2CFA889B9898C9185FFEDCF41
:10397000CE010E942E1CE7CFDF91CF91089580E009
:1039800090E0892B21F00E94241C811125C080E049
:1039900090E0892B41F080E090E0892B21F00E949B
:1039A000000081111CC080E090E0892B41F080E094
:1039B00090E0892B21F00E940000811113C080E06B
:1039C00090E0892BA1F080E090E0892B81F00E94AB
:1039D000000081110AC008950E940000D8CF0E9403
:1039E0000000E1CF0E940000EACF0C94000008958F
:1039F00085ED8093BC008091BC0084FDFCCF1092CB
:103A0000E216089540911403262F30E0240F311D53
:103A100021323105DCF42091E2162430C9F4FC0196
:103A200080E090E0861758F4309114032191DC0176
:103A3000AC50BD4FA30FB11D2C930196F3CF8091D5
:103A40001403680F6093140380E0089581E00895E3
:103A500082E0089508950895E09177168091761692
:103A6000E81730F4F0E0E456F94E808190E00895D4
:103A70008FEF9FEF089590917716809176169817A3
:103A800050F4E92FF0E0E456F94E208130E09F5FDA
:103A90009093771602C02FEF3FEFC90108958091F0
:103AA000761690E020917716821B91090895CF92A7
:103AB000DF92EF92FF920F931F93CF93DF937C01DE
:103AC000CB018A0120917816222389F0EB016B014A
:103AD000C40ED51ECC15DD0569F06991D701ED91B5
:103AE000FC910190F081E02DC7011995F3CF642F6F
:103AF0000E94021DC801DF91CF911F910F91FF908D
:103B0000EF90DF90CF900895CF93DF931F92CDB7C2
:103B1000DEB76983209178162223D1F020919B167D
:103B2000203240F021E030E0FC013383228380E04A
:103B300090E015C080917916E82FF0E0E658F94E34
:103B4000998190838F5F8093791680939B1605C02F
:103B500061E0CE0101960E94021D81E090E00F908D
:103B6000DF91CF910895089580E090E008950E943C
:103B7000DF40CF92DF92EF92FF920F931F93CF938C
:103B8000DF93EC0187E3E82E83E0F82E00E010E0FD
:103B900080914B0390914C03081719075CF4F701CF
:103BA0008081F2E0EF0EF11C60E00E94BC310F5FFB
:103BB0001F4FEECF61E088850E94BC3164E070E069
:103BC00080E090E00E94A6330E94E0336CE370E056
:103BD00080E090E00E94A6338091EA03811102C048
:103BE0000E94E03384E10E94383186E10E9438313E
:103BF0006C0188E10E9438317C018AE10E943831F1
:103C00008C018091ED039091EE03853D910519F1B2
:103C100050F4009729F1803C910541F56AE970E084
:103C200080E090E021C0863F910581F08F3F9105B3
:103C300041F08B3E9105D1F462E370E080E090E0CA
:103C400013C063E070E080E090E00EC068E170E0D7
:103C500080E090E009C065E670E080E090E004C09C
:103C60006CEB72E080E090E00E94A633DD82CC82B3
:103C7000FB82EA821F830E83DF91CF911F910F9108
:103C8000FF90EF90DF90CF900895CF93DF93EC01FA
:103C900060E088850E94BC3160E08A850E94BC316A
:103CA0008C850E94933161E0019709F460E020E483
:103CB00032E44FE050E08C850E9461317D836C835B
:103CC00061E08A850E94BC318C850E94933161E05D
:103CD000019709F460E020E432E44FE050E08C8585
:103CE0000E9461317F836E8361E088850E94BC31D0
:103CF0008C850E94933161E0019709F460E020E433
:103D000032E44FE050E08C850E9461317B836A830E
:103D1000DF91CF9108951F920F920FB60F92112449
:103D20000BB60F922F933F934F935F936F937F93B5
:103D30008F939F93AF93BF93EF93FF938DE493E0A3
:103D40000E942E1CFF91EF91BF91AF919F918F9197
:103D50007F916F915F914F913F912F910F900BBE8B
:103D60000F900FBE0F901F9018951F920F920FB6D5
:103D70000F9211240BB60F922F938F939F93EF9373
:103D8000FF93E0915D03F0915E038081E091630316
:103D9000F091640382FD12C09081809166038F5F71
:103DA0008F7320916703821751F0E0916603F0E072
:103DB000E35BFC4F958F8093660301C08081FF9188
:103DC000EF919F918F912F910F900BBE0F900FBE8F
:103DD0000F901F901895CF93DF93EC0160E08881DE
:103DE0000E94BC3183E090E00197F1F761E08881A7
:103DF0000E94BC3183E290E00197F1F760E0888196
:103E00000E94BC3120E137E240E050E061E08A816D
:103E10000E946131161617061806190624F060E193
:103E200077E280E090E0DF91CF9108952F923F926A
:103E30004F925F926F927F928F929F92AF92BF92BA
:103E4000CF92DF92EF92FF920F931F93CF93DF9366
:103E500000D01F92CDB7DEB79A8389838B01DB0137
:103E6000ED91FC910190F081E02DCB011995F801C5
:103E700024803580268137813C832B830281138106
:103E80004101032C000CAA08BB082016310664F07F
:103E900020173107CCF40215130584F0B101221567
:103EA0003305CCF4B90117C02B813C8122153305B1
:103EB00084F58B819C810817190744F0AB81BC8184
:103EC0002A163B0634F402C0B80105C060E070E079
:103ED00002C06B817C81072E000C880B990B0E941D
:103EE000493E2B013C010215130544F0EB81FC8196
:103EF0000E171F072CF520163106B4F02B813C81DC
:103F000022163306C4F420173107BCF06B817C8184
:103F100018C0C501B4010E94493E2B013C01EB8150
:103F2000FC810E171F0764F48B819C818215930519
:103F300024F0BC0106C0B10104C060E070E001C023
:103F4000B801072E000C880B990B0E94493E6B01AB
:103F50007C01C501B4010E94493E9B01AC01C7012F
:103F6000B6010E94423E81113EC0C801AB81BC81B6
:103F70008A1B9B0B2CE3289FB001299F700D1124F5
:103F8000072E000C880B990B0A171B07BCF00E9428
:103F9000493E4B015C01A3019201C701B6010E9499
:103FA000C03F9B01AC01C501B4010E942D40E981D5
:103FB000FA8160837183828393837FC00E94493E2C
:103FC0004B015C01A3019201C701B6010E94C03FF1
:103FD0009B01AC01C501B4010E942D4020E030E0FE
:103FE00044EB53E431C0B801012E000C880B990B4F
:103FF0000E94493E9B01AC01C701B6010E94423EAE
:10400000EB81FC8181112AC0E219F3098CE38E9FB8
:10401000B0018F9F700D1124072E000C880B990B97
:104020000E94493E4B015C01A3019201C701B60108
:104030000E94C03F9B01AC01C501B4010E942D400C
:1040400020E030E040EF52E40E94C13FA981BA81F4
:104050006D937D938D939C9313972FC0BF01FF0F9A
:10406000880B990B0E94493E9B01AC01C701B60128
:104070000E94423E811121C0201A310A8CE3829DA8
:10408000B001839D700D1124072E000C880B990B35
:104090000E94493E4B015C01A3019201C701B60198
:1040A0000E94C03F9B01AC01C501B4010E942D409C
:1040B00020E030E040E753E4C7CFA3019201C701FD
:1040C000B6010E94C03FA70196010E942D40E981E0
:1040D000FA816483758386839783C086D186E2865E
:1040E000F386CF010F900F900F900F90DF91CF913B
:1040F0001F910F91FF90EF90DF90CF90BF90AF9006
:104100009F908F907F906F905F904F903F902F90F7
:1041100008950F931F93CF93DF9300D000D0CDB7B6
:10412000DEB78C01DC01ED91FC910190F081E02D76
:10413000199586E0F8013296DE01119601900D92F4
:104140008A95E1F729813A814B815C816D817E817D
:1041500080E090E026960FB6F894DEBF0FBECDBF8C
:10416000DF91CF911F910F91089560E0FC01808154
:104170000C94BC3161E0FC0180810C94BC311F9235
:104180000F920FB60F9211240BB60F922F933F93FD
:104190004F935F936F937F938F939F93AF93BF934F
:1041A000EF93FF938091B900887F803609F49CC01B
:1041B00068F5883209F45BC090F4803109F454C08A
:1041C00038F4882309F4F6C0883009F44DC0F6C0ED
:1041D000883109F44CC0803209F45DC0EFC08034EE
:1041E00009F468C048F4803309F455C0883309F0F5
:1041F000E5C08093E016D8C0803509F44FC08835FB
:1042000009F45DC0883409F0D9C0D6C0883909F4F2
:10421000C7C0A8F4883709F467C038F4883609F4B1
:1042200063C0803709F460C0C9C0883809F4B8C0D9
:10423000803909F45FC0803809F0C0C05BC0803BA2
:1042400009F486C038F4803A09F466C0883A09F463
:104250007FC0B4C0803C09F4A7C0883C09F4A4C066
:10426000883B09F48AC0AAC08091DD1610C09091E5
:10427000DF168091DE16981770F5E091DF1681E069
:104280008E0F8093DF16F0E0E454F94E8081809326
:10429000BB0085EC86C08093E0168EC0E091DF16EF
:1042A00081E08E0F8093DF168091BB00F0E0E45434
:1042B000F94E80839091DF168091DE166EC0E091FA
:1042C000DF1681E08E0F8093DF168091BB00F0E057
:1042D000E454F94E80838091E11681116DC081E034
:1042E0008093DC1684EA61C083E08093E21610922A
:1042F0003603CFCF80913603803208F051C0E09171
:10430000360381E08E0F809336038091BB00F0E08E
:10431000EA5EFC4F8083BDCF85EC8093BC00109299
:10432000E21680913603803230F4E0913603F0E0FB
:10433000EA5EFC4F10826091360370E0E0916916EE
:10434000F0916A1686E193E019951092360336C013
:1043500084E08093E2161092150310921403E0910A
:104360006B16F0916C16199580911403811105C09C
:1043700081E0809314031092F402E091150381E030
:104380008E0F80931503F0E0EC50FD4F80818093F9
:10439000BB009091150380911403981708F479CF0E
:1043A00085E88093BC000AC085EC8093BC00109225
:1043B000E21604C01092E0160E94F81CFF91EF91E3
:1043C000BF91AF919F918F917F916F915F914F912D
:1043D0003F912F910F900BBE0F900FBE0F901F902B
:1043E000189508951F920F920FB60F9211240BB6D5
:1043F0000F922F933F934F935F936F937F938F937E
:104400009F93AF93BF93EF93FF93E0E0F0E0199594
:10441000FF91EF91BF91AF919F918F917F916F919C
:104420005F914F913F912F910F900BBE0F900FBE58
:104430000F901F90189588EF94E00E94B5208AEFA6
:1044400094E00E94B5208CEF94E00C94B520EF929C
:10445000FF920F931F93CF93DF938C017B01C0E0FA
:10446000D0E0CE15DF05E9F088EF94E00E94BA2095
:104470008AEF94E00E94BA208CEF94E00E94BA2068
:1044800066E970E080E090E00E94A633C8010E94D7
:104490001B2266E970E080E090E00E94A63321963E
:1044A000E0CFDF91CF911F910F91FF90EF90089592
:1044B0004F925F926F927F928F929F92AF92BF9234
:1044C000CF92DF92EF92FF920F931F93CF93DF93E0
:1044D000CDB7DEB72E970FB6F894DEBF0FBECDBFB7
:1044E0009E878D87FC01E451FF4F80809180A280E0
:1044F000B3808C0108591F4F789720813181428108
:104500005381C501B4010E94C13F20E030E040E08A
:104510005FE30E94A83ED8016D937D938D939C9399
:104520001397ED85FE85E051FF4F408051806280FA
:104530007380ED84FE84BCE6EB0EF11CED85FE85F8
:10454000E852FF4F2081318142815381C301B20182
:104550000E94C13F20E030E040E05FE30E94A83EBF
:10456000F7016083718382839383ED85FE85EC5030
:10457000FF4F80819181A281B38189839A83AB832C
:10458000BC83ED84FE8490E7E90EF11CED85FE8589
:10459000E452FF4F208131814281538169817A81C8
:1045A0008B819C810E94C13F20E030E040E05FE3CE
:1045B0000E94A83ED7016D937D938D939C93139792
:1045C000ED85FE85E850FF4F80819181A281B38106
:1045D0008D839E83AF83B887ED84FE8490E8E90ED7
:1045E000F11CED85FE85E052FF4F20813181428133
:1045F00053816D817E818F8198850E94C13F20E02B
:1046000030E040E05FE30E94A83ED7016D937D93C8
:104610008D939C931397ED85FE85E450FF4F808129
:104620009181A281B38189879A87AB87BC87ED840A
:10463000FE8494E8E90EF11CED85FE85EC51FF4FF8
:10464000208131814281538169857A858B859C8562
:104650000E94C13F20E030E040E05FE30E94A83EBE
:10466000D7016D937D938D939C931397ED85FE8574
:10467000F395C080D180E280F3800D851E850857B8
:104680001F4FED85FE85E851FF4F2081318142812A
:104690005381C701B6010E94C13F20E030E040E0F5
:1046A0005FE30E94A83EF801608371838283938355
:1046B0000D851E850C581F4FED85FE85E454FF4F78
:1046C0002081318142815381C501B4010E94C13FE3
:1046D00020E030E040E05FE30E94A83ED8016D9307
:1046E0007D938D939C931397AD84BE84B8E7AB0EF6
:1046F000B11CED85FE85E054FF4F20813181428160
:104700005381C301B2010E94C13F20E030E040E08C
:104710005FE30E94A83EF5016083718382839383E7
:10472000AD84BE84FCE7AF0EB11CED85FE85EC5375
:10473000FF4F208131814281538169817A818B8150
:104740009C810E94C13F20E030E040E05FE30E9496
:10475000A83ED5016D937D938D939C931397AD8463
:10476000BE84BCE8AB0EB11CED85FE85E853FF4F5F
:1047700020813181428153816D817E818F81988535
:104780000E94C13F20E030E040E05FE30E94A83E8D
:10479000F5016083718382839383AD84BE84F0E9E5
:1047A000AF0EB11CED85FE85E453FF4F20813181B2
:1047B0004281538169857A858B859C850E94C13FA2
:1047C00020E030E040E05FE30E94A83ED5016D9319
:1047D0007D938D939C9313970D851E850C561F4FCB
:1047E000ED85FE85E053FF4F208131814281538169
:1047F000C701B6010E94C13F20E030E040E05FE326
:104800000E94A83ED8016D937D938D939C9313973E
:104810002E960FB6F894DEBF0FBECDBFDF91CF91BD
:104820001F910F91FF90EF90DF90CF90BF90AF90CE
:104830009F908F907F906F905F904F9008958F9290
:104840009F92AF92BF92CF92DF92EF92FF920F931F
:104850001F93CF93DF93CDB7DEB72C970FB6F894A5
:10486000DEBF0FBECDBF8C017C0184EAE80EF11CD7
:1048700064E476E0CE0101960E945D2D8CE0FE019D
:104880003196D70101900D928A95E1F7F801E45530
:10489000FF4F80809180A280B380FC97208131817E
:1048A00042815381C501B4010E94423E87FF2CC062
:1048B000F801E458FF4F2081318142815381C501C5
:1048C000B4010E94423E87FF1FC0F701C080D18023
:1048D000E280F380FC972081318142815381C701BE
:1048E000B6010E94423E87FF0FC0F801EC58FF4F0F
:1048F0002081318142815381C701B6010E94423E2D
:10490000881F8827881F01C080E02C960FB6F89476
:10491000DEBF0FBECDBFDF91CF911F910F91FF90F2
:10492000EF90DF90CF90BF90AF909F908F900895C1
:104930000F931F9300E010E09801B901A8018AE6E7
:1049400095E00E9465271F910F9108950F931F9383
:1049500000E010E028EC31E4B901A8018AE695E016
:104960000E9465271F910F910895CF93DF93EC016B
:1049700002960E94ED2D8BE693E10E94DF2C84E4E9
:1049800093E10E94DF2C80E293E10E94DF2C84E01F
:1049900093E10E94DF2C85EE92E10E94DF2C82EEF3
:1049A00092E10E94C12CFE01E859FF4F8081918164
:1049B0000E94092E8BED92E10E94C12CFE01EA5962
:1049C000FF4F808191810E94092E84ED92E10E9427
:1049D000C12CFE01EE59FF4F808191810E94092E6A
:1049E0008DEC92E10E94C12CFE01EC59FF4F8081B9
:1049F00091810E94092E0E94B02C80EB92E10E94CE
:104A0000DF2C88E992E10E94DF2C82E992E10E948A
:104A1000C12C6EA17FA188A599A50E94DC2C88E8F5
:104A200092E10E94C12C6A8D7B8D8C8D9D8D0E94A0
:104A3000B42C82E892E10E94C12C6AA57BA58CA5CA
:104A40009DA50E94DC2C86E792E10E94C12C6E8D10
:104A50007F8D88A199A10E94B42C80E792E10E94E9
:104A6000C12C6EA57FA588A999A90E94DC2C86E699
:104A700092E10E94C12C6AA17BA18CA19DA10E9400
:104A8000B42C89E492E10E94DF2C81E392E10E9440
:104A9000DF2C8BE292E10E94C12CFE01FE96608128
:104AA0007181828193810E94DC2C81E292E10E94DB
:104AB000C12C6AA97BA98CA99DA90E94B42C8BE169
:104AC00092E10E94C12CFE01EE5BFF4F608171817B
:104AD000828193810E94DC2C8FE092E10E94C12CA4
:104AE0006EA97FA988AD99AD0E94B42C89E092E1AE
:104AF0000E94C12CFE01EA5BFF4F608171818281BF
:104B000093810E94DC2C8FEF91E10E94C12C6AAD51
:104B10007BAD8CAD9DAD0E94B42C81EE91E10E94E5
:104B2000DF2C89EC91E10E94DF2C83EC91E10E9463
:104B3000C12C6E857F85888999890E94DC2C89EB40
:104B400091E10E94C12C6A817B818C819D810E94B0
:104B5000B42C83EB91E10E94C12C6A897B898C89FA
:104B60009D890E94DC2C87EA91E10E94C12C6E8114
:104B70007F81888599850E94B42C81EA91E10E9409
:104B8000C12C6E897F89888D998D0E94DC2C87E9E4
:104B900091E10E94C12C6A857B858C859D85DF9182
:104BA000CF910C94B42CFC0180810E94933121E0C0
:104BB000892B09F020E0822F0895CF92DF92EF92A7
:104BC000FF920F931F93CF93DF936B017C018A01B8
:104BD00020E030E048EC52EC0E94423E87FD11C0DC
:104BE00020E030E048EC52E4C701B6010E94D54015
:104BF00018166CF4C12CD12C98ECE92E92E4F92E05
:104C000006C0C12CD12C88ECE82E82ECF82E23E3D0
:104C100033E343E250E4C701B6010E94A83E6B01B2
:104C20007C0120E030E0A9010E94D54018161CF458
:104C3000C701B60103C0C701B60190580E949F404A
:104C4000EB0161E0802F0E946A33209709F4B1C024
:104C5000CF3FD10509F4AFC0F801FF27E355FC4E63
:104C6000E4918E2F90E0FC013197E231F10508F0DC
:104C70009DC08827E158FF4F8F4F0C94B83F84B5F3
:104C8000806884BDC7BDA3C084B5806284BDC8BD33
:104C90009EC080918000806880938000D0938900BE
:104CA000C093880094C080918000806280938000CF
:104CB000D0938B00C0938A008AC080918000886066
:104CC00080938000D0938D00C0938C0080C0809131
:104CD000B00080688093B000C093B30078C080912A
:104CE000B00080628093B000C093B40070C0809127
:104CF0009000806880939000D0939900C0939800B2
:104D000066C080919000806280939000D0939B0059
:104D1000C0939A005CC0809190008860809390005E
:104D2000D0939D00C0939C0052C08091A0008068E9
:104D30008093A0008091A0008F7B8093A000D093EF
:104D4000A900C093A80043C08091A0008062809316
:104D5000A000D093AB00C093AA0039C08091A000FE
:104D600088608093A000D093AD00C093AC002FC0AA
:104D700080912001806880932001D0932901C09305
:104D8000280125C080912001806280932001D0936A
:104D90002B01C0932A011BC0809120018860809361
:104DA0002001D0932D01C0932C0111C0C038D10532
:104DB00014F460E001C061E0802FDF91CF911F917A
:104DC0000F91FF90EF90DF90CF900C94BC31DF916A
:104DD000CF911F910F91FF90EF90DF90CF900895AA
:104DE000CF92DF92EF92FF92CF93DF93CDB7DEB7F2
:104DF0002C970FB6F894DEBF0FBECDBF64E476E00B
:104E0000CE0101960E944B2D8CE0FE013196AEEA58
:104E1000BBE001900D928A95E1F7C090B60BD0905F
:104E2000B70BE090B80BF090B90B2091860B309146
:104E3000870B4091880B5091890BC701B6010E94E6
:104E4000423E87FF34C02091920B3091930B4091EA
:104E5000940B5091950BC701B6010E94423E87FF0B
:104E600026C0C090AE0BD090AF0BE090B00BF0908E
:104E7000B10B20917E0B30917F0B4091800B5091B4
:104E8000810BC701B6010E94423E87FF10C02091EE
:104E90008A0B30918B0B40918C0B50918D0BC7017D
:104EA000B6010E94423E881F8827881F01C080E00B
:104EB0002C960FB6F894DEBF0FBECDBFDF91CF9119
:104EC000FF90EF90DF90CF9008958F929F92AF92D6
:104ED000BF92CF92DF92EF92FF920F931F934A01FE
:104EE0005B016801790120E030E0A901C501B4014E
:104EF0000E94423E87FF09C060E084E00E94BC310E
:104F000045E050E0C501B4010EC061E084E00E94BC
:104F1000BC31A501940160E070E088EC92E40E944D
:104F2000C03F45E050E00E94DD2520E030E0A901CF
:104F3000C701B6010E94423E87FF09C060E087E0DA
:104F40000E94BC3146E050E0C701B6010EC061E0EE
:104F500087E00E94BC31A701960160E070E088EC18
:104F600092E40E94C03F46E050E01F910F91FF90F5
:104F7000EF90DF90CF90BF90AF909F908F900C9468
:104F8000DD2582E09CE00E9498248AEC95E00E9456
:104F9000D3258823D1F363E070E082E09CE00C9499
:104FA0002722FF920F931F93CF93DF93182F062F83
:104FB000F42EC3E0D0E0112321F088EF94E00E94AA
:104FC000B520002321F08AEF94E00E94B520FF2055
:104FD00021F08CEF94E00E94B52066E970E080E05B
:104FE00090E00E94A633112321F088EF94E00E9404
:104FF000BA20002321F08AEF94E00E94BA20FF201B
:1050000021F08CEF94E00E94BA2066E970E080E025
:1050100090E00E94A633219771F6DF91CF911F9106
:105020000F91FF9008950F931F9300E010E020E28E
:1050300032ECB901A8018AE695E00E94652762E397
:1050400070E080E090E00E94A63382E09CE00E9445
:10505000982440E061E081E00E94D1271F910F91E8
:105060000C94C1270F931F9300E010E020E232EC74
:10507000B901A8018AE695E00E94652762E370E025
:1050800080E090E00E94A63382E09CE00E94982499
:1050900041E061E080E00E94D1271F910F910C94C4
:1050A000C1270F931F9300E010E020E232ECB9011A
:1050B000A8018AE695E00E94652769E170E080E03A
:1050C00090E00E94A63382E09CE01F910F910C9427
:1050D0009824CF9382E09CE00E9498248EEF9AE07F
:1050E0000E941F24882351F08CE499E00E941B2227
:1050F0008CEF94E00E94BA20C1E001C0C0E00E94A1
:10510000F026882341F08CE499E00E941B228CEF6A
:1051100094E00E94BA20C11102C0C0E001C0C1E009
:105120000E94C1278C2FCF9108950F931F93CF9387
:1051300082E09CE00E94A62468EC70E080E090E0B1
:105140000E94A63382E09CE00E9498240E9451288D
:1051500068EC70E080E090E00E94A6338EEF9AE069
:105160000E941F24882351F08CE499E00E941B22A6
:105170008CEF94E00E94BA20C1E001C0C0E00E9420
:10518000F026882361F08CE499E00E941B228CEFCA
:1051900094E00E94BA20CC2349F1C1E027C0C1119C
:1051A000FCCF00E010E028EC31ECB901A8018AE660
:1051B00095E00E94652768EC70E080E090E00E9436
:1051C000A63300E010E020E232E4B901A8018AE64B
:1051D00095E00E94652769E170E080E090E00E9420
:1051E000A63382E09CE00E949824C0E00E94C12780
:1051F0008C2FCF911F910F910895CF9382E09CE067
:105200000E94A62464E670E080E090E00E94A6334D
:1052100082E09CE00E9498240E94512864E670E09D
:1052200080E090E00E94A6338EEF9AE00E941F2457
:10523000882351F08CE499E00E941B228CEF94E0CB
:105240000E94BA20C1E001C0C0E00E94F02688237D
:1052500041F08CE499E00E941B228CEF94E00E94C4
:10526000BA20C11102C0C0E001C0C1E00E94C12744
:105270008C2FCF91089589E390E00E94522B9B01DF
:10528000AC016091DA0A7091DB0A8091DC0A90919E
:10529000DD0A0E94423E87FF14C089E390E00E942D
:1052A000522B9B01AC016091FA0A7091FB0A80912C
:1052B000FC0A9091FD0A0E94D540181614F481E072
:1052C000089580E00895CF938234B9F08035C1F419
:1052D00089E390E00E94522B9B01AC01C1E06091F8
:1052E000DA0A7091DB0A8091DC0A9091DD0A0E9453
:1052F000D54018162CF0C0E003C0CF910C943B2988
:105300008C2FCF91089588E390E00E94522B9B014F
:10531000AC016091D60A7091D70A8091D80A909119
:10532000D90A0E94423E87FF14C088E390E00E94A1
:10533000522B9B01AC016091F60A7091F70A8091A3
:10534000F80A9091F90A0E94D540181614F481E0E9
:10535000089580E00895CF9388E390E00E94522B57
:105360009B01AC01C1E06091D60A7091D70A80918F
:10537000D80A9091D90A0E94D54018160CF0C0E0C6
:105380008C2FCF91089587E390E00E94522B9B01D0
:10539000AC016091D20A7091D30A8091D40A9091A5
:1053A000D50A0E94423E87FF14C087E390E00E9426
:1053B000522B9B01AC016091F20A7091F30A80912B
:1053C000F40A9091F50A0E94D540181614F481E071
:1053D000089580E00895CF9387E390E00E94522BD8
:1053E0009B01AC01C1E06091D20A7091D30A809117
:1053F000D40A9091D50A0E94D54018160CF0C0E04E
:105400008C2FCF91089586E390E00E94522B9B0150
:10541000AC016091CE0A7091CF0A8091D00A909130
:10542000D10A0E94423E87FF14C086E390E00E94AA
:10543000522B9B01AC016091EE0A7091EF0A8091B2
:10544000F00A9091F10A0E94D540181614F481E0F8
:10545000089580E00895CF938234B9F08035C1F487
:1054600086E390E00E94522B9B01AC01C1E0609169
:10547000CE0A7091CF0A8091D00A9091D10A0E94F1
:10548000D54018162CF0C0E003C0CF910C94032A2D
:105490008C2FCF9108958F929F92AF92BF92CF920F
:1054A000DF92EF92FF920F931F93CF93DF93EC0164
:1054B0000BE012E0198308838CE190E099878887DC
:1054C0008EE190E09B878A8780E290E09D878C87C1
:1054D00061E08CE10E946A3361E08A850E946A3350
:1054E00060E08C850E946A331F870E8780E390E01E
:1054F0009F8B8E8B82E390E0998F888F84E390E07E
:105500009B8F8A8F61E080E30E946A3361E0888D1F
:105510000E946A3360E08A8D0E946A3385E092E0DF
:105520009D8F8C8F26E230E03DA32CA380914B030E
:1055300090914C038A30910564F4FC01EE0FFF1F3B
:10554000E95CFC4F31832083019690934C03809358
:105550004B0385E092E09FA38EA322E330E03FA7B8
:105560002EA780914B0390914C038A30910564F4EF
:10557000FC01EE0FFF1FE95CFC4F31832083019695
:1055800090934C0380934B0361E080E10E946A3367
:1055900060E081E10E946A3380E190E099AB88ABE2
:1055A00081E190E09BAB8AAB85E8882E8CEF982E4A
:1055B0008CEDA82E81E4B82E8CAA9DAAAEAABFAA13
:1055C0009CE9C92E93E5D92E9CE8E92E92E4F92EA8
:1055D000C8AED9AEEAAEFBAE61E086E10E946A33A6
:1055E00060E088E10E946A33FE01E05CFF4F86E1E3
:1055F00090E09183808388E190E09383828384822A
:105600009582A682B782C086D186E286F38661E063
:1056100087E10E946A3360E089E10E946A33FE01FB
:10562000E05BFF4F87E190E09183808389E190E028
:105630009383828384829582A682B782C086D18634
:10564000E286F38670968DE190E0918380833296B6
:1056500081E290E091838083329689E290E09183A9
:105660008083329685E390E091838083329683E352
:1056700090E091838083C659DF4F81E390E0998366
:1056800088831092430610924206DF91CF911F91BA
:105690000F91FF90EF90DF90CF90BF90AF909F90D1
:1056A0008F900895863308F0865390917B00282FC1
:1056B0002870977F922B90937B00877080648093F3
:1056C0007C0080917A00806480937A0080917A00D7
:1056D00086FDFCCF609178008091790070E0782B96
:1056E000072E000C880B990B0E94493E20E030E009
:1056F00048EC52E40E94A83E20E030EC4FE754E42E
:105700000E942D409B01AC0160E070E088EC92E4C7
:105710000E94C03F0895009769F0FC0101900020AD
:10572000E9F73197AF01481B590BBC018DE493E0B9
:105730000C94BD1B80E090E008958F929F92AF92F1
:10574000BF920F931F93CF93DF93CDB7DEB7A1978F
:105750000FB6F894DEBF0FBECDBF19A2423008F4D9
:105760004AE08E010F5D1F4F842E912CA12CB12C8D
:10577000A50194010E94873FE62FB901CA0101509B
:105780001109EA3014F4E05D01C0E95CD801EC9342
:10579000232B242B252B61F7C8010E948B2BA1966C
:1057A0000FB6F894DEBF0FBECDBFDF91CF911F9132
:1057B0000F91BF90AF909F908F9008958F929F927E
:1057C000AF92BF92CF92DF92EF92FF920F931F930F
:1057D000CF93DF936B017C01142F9B01AC010E94DE
:1057E000DA40882319F085EE92E027C04601570180
:1057F000E894B7F82FEF3FEF4FE75FE7C501B4013B
:105800000E94DA4081110DC02FEF3FEF4FE75FE7B5
:10581000C501B4010E94423E18161CF489EE92E0C4
:105820000CC02FEF3FEF4FE75FE4C701B6010E94C6
:10583000D540181684F48DEE92E0DF91CF911F9140
:105840000F91FF90EF90DF90CF90BF90AF909F901F
:105850008F900C948B2B2FEF3FEF4FE75FECC7013E
:10586000B6010E94423E87FDE6CF20E030E0A9016C
:10587000C701B6010E94423E87FF0BC06DE28DE476
:1058800093E00E94501CEC01F7FAF094F7F8F094C2
:1058900002C0C0E0D0E000E060E070E080E09FE3A4
:1058A000101741F020E030E040E251E40E942D402A
:1058B0000F5FF6CFA70196010E94C13F6B017C01EB
:1058C0000E94A6404B015C014AE00E949D2BC80F3C
:1058D000D91F1123B9F1C501B4010E94473E9B01B4
:1058E000AC01C701B6010E94C03F6B017C016EE2B2
:1058F0008DE493E00E94501CC80FD91F20E030E0D7
:1059000040E251E4C701B6010E94A83E4B015C0190
:105910000E94A6406B01E12CF12C4AE0C701B601C0
:105920000E949D2BC80FD91FC701B6010E94473E98
:105930009B01AC01C501B4010E94C03F6B017C0119
:105940001150E1F6CE01DF91CF911F910F91FF90A1
:10595000EF90DF90CF90BF90AF909F908F90089581
:1059600081EF92E00C948B2BCF93DF9342E00E9467
:10597000DE2BEC010E94B02C8C0F9D1FDF91CF918C
:1059800008950F931F93CF93DF938C01C0E0D0E075
:10599000F801EC0FFD1F6491662341F08DE493E064
:1059A0000E94501C892B11F02196F2CFCE01DF917D
:1059B000CF911F910F91089542E00C94DE2BCF936D
:1059C000DF930E94C12CEC010E94B02C8C0F9D1F14
:1059D000DF91CF910895CF93DF938230910549F005
:1059E00083309105D1F1019709F052C0CAE0D0E0AF
:1059F00003C0C0E0D0E018C088EF94E00E94B5205A
:105A000062E370E080E090E00E94A63388EF94E0CB
:105A10000E94BA2062E370E080E090E00E94A6332A
:105A2000219751F7CAE0D0E0CA30D105C1F08AEF22
:105A300094E00E94B52062E370E080E090E00E9474
:105A4000A6338AEF94E00E94BA2062E370E080E01F
:105A500090E00E94A6332196E7CFC0E0D0E0CA30A4
:105A6000D105B1F08CEF94E00E94B52062E370E0C4
:105A700080E090E00E94A6338CEF94E00E94BA2070
:105A800062E370E080E090E00E94A6332196E7CFC9
:105A9000DF91CF910895CF93DF93EC01809142067F
:105AA00090914306019711F4645E7F4FCE010E94EE
:105AB000161FCE01DF91CF910895CF93DF93EC01B4
:105AC0008091420690914306019719F46A5D7F4FD9
:105AD00002C0625F7F4FCE010E94161FCE01DF9190
