:100000000C94680A0C94990A0C94990A0C94990A15
:100010000C94990A0C94990A0C94990A0C94990AD4
:100020000C94990A0C94990A0C94990A0C94990AC4
:100030000C94990A0C94990A0C94990A0C94990AB4
:100040000C94990A0C94AE2F0C94990A0C94990A6A
:100050000C94990A0C94990A0C94990A0C94E13026
:100060000C94990A0C94A02A0C94762A0C94990A60
:100070000C94990A0C94990A0C94990A0C94990A74
:100080000C94802F0C94990A0C94990A0C94990A58
:100090000C94990A0C94990A0C94990A0C94D01F08
:1000A0000C94990A0C94990A0C94522F0C94990A66
:1000B0000C94990A0C94990A0C94990A0C94242F84
:1000C0000C94990A0C94990A0C94990A0C94990A24
:1000D0000C94990A0C94990A0C94990A0C94990A14
:1000E0000C94990AF41BEE1BDC175B18F6186F19B9
:1000F000021A4F1A9C1A7B171F1B331BE61B242D59
:10010000272D162D1A2D202D5E2D2B2D2F2D352D23
:10011000392D3D2D432D472D4B2D5E2D512D552D28
:10012000592D8D3192319731A131AB312432B53116
:10013000BD31C531CF31D931E331F231FC31243217
:10014000063210321A320C941A320C94592D0C9437
:1001500024320C94EF290C94D9310C94B5310C94C1
:100160004B2D0C94F6180C947D1C0C941A2D0C94A9
:10017000E61B0C94472D0C945B180C949C1A0C9461
:1001800097310C94D51C0C9406320C94E3310C94EA
:10019000A01C0C94BD310C947B170C94F41B0C9494
:1001A00002210C942B2D0C94BE290C94072A0C943C
:1001B000272D0C9494290C94941D0C94DC170C940A
:1001C000512D0C94A1310C948C1C0C94392D0C9451
:1001D00055360C94C5310C946F190C94AB310C94BA
:1001E000CF310C94242D0C94A81C0C94E1290C9470
:1001F000081D0C9410320C9492310C94202D0C9408
:10020000CD290C94051D0C94021A0C94352D0C94D8
:10021000542A0C94331B0C94FC310C943D2D0C94FB
:10022000162D0C945E2D0C947C1C0C944F1A0C947F
:100230007B1C0C94F2310C94552D0C942F2D0C94A6
:10024000432D0C948D310C941F1B0C94EE1B2C2011
:10025000002C2000202020436F72204469726569C1
:10026000746F3A2020002C20002C2000436F722055
:10027000457371756572646F3A20002C20002C2044
:1002800000202020436F72204469726569746F3AC0
:100290002020002C20002C2000436F722045737119
:1002A000756572646F3A2000202044697265697434
:1002B0006F3A20002020457371756572646F3A2093
:1002C0000056616C6F7220646F2073656E736F727D
:1002D0002066726F6E74616C3A20003B20003B20F8
:1002E000003B200053656E736F7265732072656604
:1002F0006C6574616E6369613A202B6573713B2094
:100300006573713B206469723B202B646972200025
:100310000A4F70C3A7C3A36F20496E76616C6964EE
:10032000612C2074656E7465206E6F76616D656EEC
:100330007465210028446967697465202D31207037
:10034000617261207465726D696E6172206F204CFC
:10035000696D70657A61290A000A456E7472616E72
:10036000646F20656D204C6F6F702070617261202A
:100370006769726172206F206D6F746F72204469BB
:10038000726569746F2E2E2E002844696769746542
:1003900020312070617261206C696D706172206F14
:1003A000206D6F746F72204469726569746F290AD9
:1003B000000A456E7472616E646F20656D204C6F2B
:1003C0006F702070617261206769726172206F20A6
:1003D0006D6F746F7220457371756572646F2E2E28
:1003E0002E204C656D6272652D7365206465206CEE
:1003F00069676172206F20537769746368000A2807
:10040000446967697465202D3120706172612076BE
:100410006F6C74617220616F206D656E75290000CC
:1004200028446967697465202D31207061726120EC
:100430007361697220646120526570657469C3A735
:10044000C3A36F290A000A456E7472616E646F203F
:10045000656D204C6F6F70207061726120766572DF
:1004600020746F646F73206F73206461646F7320F6
:10047000646F2073656E736F7220494D552E2E2E5A
:100480000028446967697465202D312070617261AC
:10049000207361697220646120526570657469C35C
:1004A000A7C3A36F290A000A456E7472616E646F58
:1004B00020656D204C6F6F702070617261207665D1
:1004C00072206F204769726F7363C3B470696F20C5
:1004D000646F2073656E736F7220494D552E2E2EFA
:1004E0000028446967697465202D3120706172614C
:1004F000207361697220646120526570657469C3FC
:10050000A7C3A36F290A000A456E7472616E646FF7
:1005100020656D204C6F6F70207061726120766570
:1005200072206F204163656C6572C3B46D6574722F
:100530006F20646F2073656E736F7220494D552E66
:100540002E2E0028446967697465202D3120706162
:1005500072612073616972206461205265706574F4
:1005600069C3A7C3A36F290A000A456E7472616E3E
:10057000646F20656D204C6F6F7020706172612018
:10058000766572206F732053656E736F726573208A
:10059000646520436F72206E6120666F726D61200A
:1005A0004853562E2E2E0028446967697465202D05
:1005B0003120706172612073616972206461205220
:1005C0006570657469C3A7C3A36F290A000A456EE5
:1005D0007472616E646F20656D204C6F6F70207057
:1005E00061726120766572206F732053656E736F40
:1005F0007265732064652044697374616E63696118
:100600002E2E2E0028446967697465202D312070D4
:100610006172612073616972206461205265706546
:100620007469C3A7C3A36F290A000A456E74726177
:100630006E646F20656D204C6F6F70207061726109
:1006400020766572206F732053656E736F726573C9
:10065000206465205265666C6574616E6369612E05
:100660002E2E002E2E2E00566F63C3AA20646967BB
:1006700069746F753A2000446967697465202D318B
:100680002070617261207361697220646F204D6512
:100690006E752053657269616C00202031312D2008
:1006A0005465737461722056657264650020203150
:1006B000302D204C696D70617220526F6461002092
:1006C00020392D205665722076616C6F726573201B
:1006D00064612063616C69627261C3A7C3A36F0028
:1006E0002020382D2043616C69627261722073652D
:1006F0006E736F7220494D55002020372D205665AE
:10070000722073656E736F7220494D552028436FB8
:100710006D706C65746F29002020362D205665722F
:100720002073656E736F7220494D5520284769729A
:100730006F7363C3B470696F29002020352D205674
:1007400065722073656E736F7220494D5520284184
:1007500063656C6572C3B46D6574726F2900202087
:10076000342D205665722073656E736F7265732029
:10077000646520436F7220485356002020332D209B
:100780005665722073656E736F72657320646520A1
:10079000436F7220524742002020322D205665724E
:1007A0002073656E736F726573206465204469738E
:1007B00074616E636961002020312D2056657220BE
:1007C00073656E736F726573206465205265666C25
:1007D0006574616E636961000A4F207175652064FC
:1007E0006573656A612046617A657220636F6D206A
:1007F0006F2073657520526F62C3B43F202844692F
:1008000067697465206F206EC3BA6D65726F20656D
:1008100071756976616C656E74652061206F70C357
:10082000A7C3A36F29002D2D2D2D2D2D2D2D2D2D61
:100830002D2D2D2D2D2D2D2D2D2D004D656E752041
:1008400053657269616C20496E69636961646F0008
:100850000A2D2D2D2D2D2D2D2D2D2D2D2D2D2D2DEB
:100860002D2D2D2D2D000A20204461646F7320470B
:100870007561726461646F73206E612045455052EA
:100880004F4D00202020202020563A2000202056C6
:100890003A20002020202020202020533A20002031
:1008A00020533A2000202020202020483A200020F9
:1008B00020483A200020206573712020202020202D
:1008C000202020202020646972202020000A20207F
:1008D00056616C6F7265732043616C63756C616403
:1008E0006F7320646F732073656E736F726573200E
:1008F000646520436F723A200020202000202020D1
:100900000020202000202020002020202B65737153
:10091000202020206573712020202020646972200F
:10092000202020202B646972000A202056616C6F01
:100930007265732043616C63756C61646F732064CE
:100940006F732073656E736F7265732064652072B8
:1009500065666C6574C3A26E6369613A20002020ED
:10096000563A20002020533A20002020483A200008
:100970000A202056616C6F72657320646F20566583
:100980007264652043617074757261646F73206472
:100990006F2053656E736F7220646520436F722001
:1009A0004469726569746F3A200020207C20202001
:1009B00020436F6E636C7569646F202020207C007B
:1009C0007C002D0020207C2D2D2D2D2D2D2D000A7D
:1009D00020207C20436F6C6574616E646F204461DD
:1009E000646F73207C002020563A20002020533A68
:1009F00020002020483A20000A202056616C6F72A7
:100A0000657320646F20566572646520436170745D
:100A1000757261646F7320646F2053656E736F72BB
:100A200020646520436F7220457371756572646F31
:100A30003A200020207C20202020436F6E636C75BC
:100A400069646F202020207C007C002D0020207C09
:100A50002D2D2D2D2D2D2D000A20207C20436F6C57
:100A60006574616E646F204461646F73207C002044
:100A70002020202020563A20002020563A20002016
:100A800020202020202020533A20002020533A20EC
:100A900000202020202020483A20002020483A2012
:100AA000002020657371202020202020202020207D
:100AB0002020646972202020000A202056616C6F7B
:100AC000726573204272616E636F7320436170744C
:100AD000757261646F7320646F732053656E736FFA
:100AE00072657320646520436F723A2000202020D5
:100AF00000202020002020200020200020202B6526
:100B000073712020202065737120202020206469CB
:100B10007220202020202B646972000A2020566158
:100B20006C6F726573204272616E636F73204361F4
:100B30007074757261646F7320646F732053656E97
:100B4000736F726573206465205265666C6574C34B
:100B5000A26E6369613A200020207C20202020437F
:100B60006F6E636C7569646F202020207C007C00B0
:100B70002D0020207C2D2D2D2D2D2D2D000A202007
:100B80007C20436F6C6574616E646F204461646F98
:100B900073207C00202020202020563A2000202096
:100BA000563A20002020202020202020533A2000E8
:100BB0002020533A2000202020202020483A2000E6
:100BC0002020483A2000202065737120202020201A
:100BD00020202020202020646972202020000A206C
:100BE0002056616C6F72657320507265746F73204C
:100BF00043617074757261646F7320646F73205306
:100C0000656E736F72657320646520436F723A205E
:100C10000020207C20202020436F6E636C75696467
:100C20006F202020207C007C002D0020207C2D2D9A
:100C30002D2D2D2D2D000A20207C20436F6C6574F6
:100C4000616E646F204461646F73207C00202020FB
:100C500000202020002020200020200020202B65C4
:100C6000737120202020657371202020202064696A
:100C70007220202020202B646972000A20205661F7
:100C80006C6F72657320507265746F73204361706E
:100C900074757261646F7320646F732053656E7333
:100CA0006F726573206465205265666C6574C3A2BB
:100CB0006E6369613A200020207C20202020436F51
:100CC0006E636C7569646F202020207C007C002D91
:100CD0000020207C2D2D2D2D2D2D2D000A20207C57
:100CE00020436F6C6574616E646F204461646F7340
:100CF000207C000A43414C49425241C387C3834F81
:100D00002046494E414C495A4144412121000A5252
:100D100065616C697A616E646F20C39A6C74696DE9
:100D200061732041C3A7C3B565732E2E2E00507288
:100D3000657373696F6E65206F20426F74C3A36F14
:100D40002033207061726120436F6E74696E75612B
:100D50007221000A506172746520353A20436F6C2D
:100D6000657461722076616C6F72657320646F20A8
:100D700056657264652070617261206F2053656EE4
:100D8000736F7220646520436F72204469726569D5
:100D9000746F005072657373696F6E65206F2042C7
:100DA0006F74C3A36F2033207061726120436F6D35
:100DB00065C3A7617221000A506172746520343ADC
:100DC00020436F6C657461722076616C6F7265731D
:100DD00020646F2056657264652070617261206FB7
:100DE0002053656E736F7220646520436F722045D7
:100DF0007371756572646F005072657373696F6E9D
:100E000065206F20426F74C3A36F2032207061721F
:100E10006120436F6D65C3A7617221000A50617242
:100E2000746520333A20436F6C657461722076617B
:100E30006C6F72657320646F204272616E636F2005
:100E400070617261206F732053656E736F7265738A
:100E5000206465205265666C6574C3A26E63696127
:100E6000206520436F72005072657373696F6E6501
:100E7000206F20426F74C3A36F20312070617261B4
:100E800020436F6E74696E75617221000A50617241
:100E9000746520323A20436F6C657461722076610C
:100EA0006C6F72657320646F20507265746F207070
:100EB000617261206F732053656E736F726573206A
:100EC000646520436F720050726563696F6E6520C0
:100ED0006F20426F74C3A36F203120706172612054
:100EE000436F6D65C3A76172210050617274652004
:100EF000313A20436F6C657461722076616C6F7259
:100F0000657320646F20507265746F207061726128
:100F1000206F732053656E736F7265732064652054
:100F20005265666C6574C3A26E636961002D2D2DD8
:100F30002D2D2D2D2D2D2D2D2D2D2D2D2D2D2D2DE1
:100F40000A0043616C69627261C3A7C3A36F204941
:100F50006E696369616461000A2D2D2D2D2D2D2D83
:100F60002D2D2D2D2D2D2D2D2D2D2D2D00202042E3
:100F70006F74C3A36F20332053656C6563696F6E14
:100F800061646F3A20496E6963696172204D656ED4
:100F9000752053657269616C002020426F74C3A391
:100FA0006F20322053656C6563696F6E61646F3AC0
:100FB00020496E69636961722043616C6962726184
:100FC00067656D21002D2D2D2D2D2D2D2D2D2D2DD8
:100FD0002D2D2D2D2D2D2D2D2D2D2D2D2D2D2D2D41
:100FE0002D0A0045737472617465676961204578E4
:100FF00065637574617220496E69636961646F210C
:10100000000A2D2D2D2D2D2D2D2D2D2D2D2D2D2D60
:101010002D2D2D2D2D2D2D2D2D2D2D2D2D2D00203A
:1010200020426F74C3A36F20312053656C656369E0
:101030006F6E61646F3A20496E6963696172204323
:101040006F6D70657469C3A7C3A36F21004361739B
:101050006F206573636F6C686120496E69636961B5
:101060007220436F6D70657469C3A7C3A36F2C2092
:101070006F73206461646F732064612063616C69C5
:10108000627261C3A7C3A36F20736572C3A36F208D
:1010900070656761646F7320646120454550524FED
:1010A0004D2028C39A6C74696D612043616C69623C
:1010B0007261C3A7C3A36F204665697461290020CC
:1010C00020426F74C3A36F20333A20496E6963696D
:1010D0006172204D656E752053657269616C0020E8
:1010E00020426F74C3A36F20323A20496E6963694E
:1010F00061722043616C69627261646F72002020CA
:10110000426F74C3A36F20313A20496E69636961ED
:101110007220436F6D70657469C3A7C3A36F0056D7
:101120006F63C3AA2064657665206573636F6C681E
:101130006572206F2071756520646573656A612032
:1011400066617A657220636F6D206F7320626F74C1
:10115000C3B56573002D2D2D2D2D2D2D2D2D2D2D50
:101160002D2D2D2D2D2D2D2D2D0A004D656E75202B
:10117000426F74C3B5657320496E69636961646FBA
:10118000000A2D2D2D2D2D2D2D2D2D2D2D2D2D2DDF
:101190002D2D2D2D2D2D00202020202020563A20D1
:1011A000002020563A2000202020202020202053FC
:1011B0003A20002020533A200020202020202048E0
:1011C0003A20002020483A2000202065737120201A
:1011D0002020202020202020202064697220202030
:1011E000000A202053656E736F726573206465205A
:1011F000436F7220284272616E636F293A2000208B
:101200002020202020563A20002020563A2000207E
:1012100020202020202020533A20002020533A2054
:1012200000202020202020483A20002020483A207A
:1012300000202065737120202020202020202020E5
:101240002020646972202020000A202053656E73DC
:101250006F72657320646520436F72202856657233
:101260006465293A2000202020202020563A2000C2
:101270002020563A20002020202020202020533AF1
:1012800020002020533A2000202020202020483A0F
:1012900020002020483A2000202065737120202063
:1012A000202020202020202020646972202020007F
:1012B0000A202053656E736F726573206465204346
:1012C0006F722028507265746F293A200020202008
:1012D000202020002020202020200020202020204E
:1012E000200020200020202B657371202020206505
:1012F0007371202020202064697220202020202B60
:1013000064697200202053656E736F726573206488
:1013100065205265666C6574C3A26E6369613A00AC
:101320002D2D2D2D2D2D2D2D2D2D2D2D2D2D2D2DED
:101330002D2D2D2D2D2D2D2D2D2D2D2D2D2D2D2DDD
:101340002D2D2D004461646F7320646120C39A6C5D
:1013500074696D612043616C69627261C3A7C3A344
:101360006F2028454550524F4D29002D2D2D2D2DF4
:101370002D2D2D2D2D2D2D2D2D2D2D2D2D2D2D2D9D
:101380002D2D2D2D2D2D2D2D2D2D2D2D2D2D005691
:101390006F6C74616E646F2070617261204D656E58
:1013A0007520426F74C3B565732E2E2E0000002188
:1013B00000240027002A002D003000330001010026
:1013C00000040107010A0100002200250028002B6B
:1013D000002E003100340002010000050108010B5D
:1013E00001000020002300260029002C002F0032DD
:1013F00000000100000301060109010505050507BC
:101400000508080808020202020A0A08080404047F
:1014100004010101010101010103030303030303AB
:1014200003040707070C0C0C0C0C0C0C0C0202023A
:101430000206060606060606060B0B0B0B0B0B0B2D
:101440000B010210202008081020401020408002CC
:1014500001020108040201010204081020408080FA
:10146000402010080402018004020180402010087E
:101470000402010804020101020408102040800156
:101480000204081020408000000A0B02090C0D0E17
:101490000807030401000000000000000000000035
:1014A000000000000000000000000000000000003C
:1014B00000000012111000000000000000000000F9
:1014C0000000000000000000000000000000553691
:1014D00011241FBECFEFD1E2DEBFCDBF00E00CBFB5
:1014E00012E0A0E0B2E0E8E5FBE700E00BBF02C0DD
:1014F00007900D92A43FB107D9F72BE1A4EFB2E01A
:1015000001C01D92A23FB207E1F71AE0C8E6DAE097
:1015100000E006C021970109802FFE010E947E3C59
:10152000C736D10780E00807A9F70E9461380C94FC
:10153000AA3D0C940000CF92DF92EF92FF920F939E
:101540001F93CF93DF93CDB7DEB7C457D1090FB642
:10155000F894DEBF0FBECDBF81E891E10E943A282A
:101560008BE691E10E943A2885E591E10E943A28B4
:101570008FE191E10E943A288EEF90E10E943A2893
:101580008FED90E10E943A288FEB90E10E943A287B
:101590008DE490E10E943A288DED9EE00E940321A7
:1015A0006BE470E081E090E00E94D33510E011110F
:1015B0000C94001C82EA96E00E949C258823F9F096
:1015C0008DED9EE00E94032188EF94E00E94CB1FE6
:1015D0008FE190E10E943A2868EE73E080E090E0AD
:1015E0000E94183081E090E10E943A2883EE9FE04B
:1015F0000E943A2885EC9FE00E943A2811E084EA94
:1016000096E00E949C25882311F40C944E1789E9DA
:101610009FE00E943A288DED9EE00E9403218AEF10
:1016200094E00E94CB1F68EE73E080E090E00E949F
:10163000183064E670E083E090E00E94D33588E5DE
:101640009FE00E943A2882E49FE00E943A288DE2BF
:101650009FE00E943A288AEE9EE00E943A2887EC9A
:101660009EE00E943A2880E99AE10E949C25882306
:10167000D1F386EC9DE00E94032188EF94E00E9464
:10168000CB1F8CED9CE00E943A2881ED9CE00E94EB
:101690001C280AE010E0C0903F0ED090400EE09071
:1016A000410EF090420E86E390E00E94AD269B0131
:1016B000AC01C701B6010E94873C60933F0E709356
:1016C000400E8093410E9093420EC090430ED090F6
:1016D000440EE090450EF090460E87E390E00E94A5
:1016E000AD269B01AC01C701B6010E94873C609307
:1016F000430E7093440E8093450E9093460EC09017
:10170000470ED090480EE090490EF0904A0E88E3C4
:1017100090E00E94AD269B01AC01C701B6010E947A
:10172000873C6093470E7093480E8093490E9093C8
:101730004A0EC0904B0ED0904C0EE0904D0EF090A3
:101740004E0E89E390E00E94AD269B01AC01C701DB
:10175000B6010E94873C60934B0E70934C0E8093B1
:101760004D0E90934E0E68EC70E080E090E00E9489
:1017700018308FEC9CE00E941C280150110909F0E0
:101780008ACF8DEC9CE00E943A2887EB9CE00E9477
:101790003A2820E030E040E251E460913F0E709141
:1017A000400E8091410E9091420E0E94F33C609356
:1017B0003F0E7093400E8093410E9093420E20E0B6
:1017C00030E040E251E46091430E7091440E80910C
:1017D000450E9091460E0E94F33C6093430E709329
:1017E000440E8093450E9093460E20E030E040E298
:1017F00051E46091470E7091480E8091490E90918E
:101800004A0E0E94F33C6093470E7093480E8093FB
:10181000490E90934A0E20E030E040E251E460919E
:101820004B0E70914C0E80914D0E90914E0E0E9479
:10183000F33C60934B0E70934C0E80934D0E90933F
:101840004E0E81E090E00E9446288BE79CE00E94CB
:101850003A288CE59CE00E943A2889E59CE00E94A9
:101860001C2860913F0E7091400E8091410E909126
:10187000420E0E94372885E59CE00E941C2860915A
:10188000430E7091440E8091450E9091460E0E9439
:10189000372881E59CE00E941C286091470E7091DA
:1018A000480E8091490E90914A0E0E9437288DE48F
:1018B0009CE00E941C2860914B0E70914C0E809110
:1018C0004D0E90914E0E0E940F288CE89EE00E94D3
:1018D0003A2887E69EE00E943A2880E99AE10E9431
:1018E0009C258823D1F388EF94E00E94C61F68EC02
:1018F00070E080E090E00E94183088EF94E00E9451
:10190000CB1F86E39CE00E943A288BE29CE00E9479
:101910001C2860E37AE1CE0187599F4F0E94B828C6
:101920008CE0FE01E759FF4FAFE5BEE001900D925C
:101930008A95E1F760E37AE1CE0187599F4F0E94D3
:10194000A6288CE0FE01E759FF4FABE6BEE0019010
:101950000D928A95E1F780915F0E9091600EA091B3
:10196000610EB091620E8093950E9093960EA093A7
:10197000970EB093980E80916B0E90916C0EA09183
:101980006D0EB0916E0E8093A10E9093A20EA09357
:10199000A30EB093A40E8091630E9091640EA0915B
:1019A000650EB091660E8093990E90939A0EA09357
:1019B0009B0EB0939C0E80916F0E9091700EA09133
:1019C000710EB091720E8093A50E9093A60EA09307
:1019D000A70EB093A80E8091670E9091680EA0910B
:1019E000690EB0916A0E80939D0E90939E0EA09307
:1019F0009F0EB093A00E8091730E9091740EA091E3
:101A0000750EB091760E8093A90E9093AA0EA093B6
:101A1000AB0EB093AC0E0AE010E060E37AE1CE01C9
:101A200087599F4F0E94B8288CE0FE01E759FF4F6D
:101A3000AFE5BEE001900D928A95E1F760E37AE1AF
:101A4000CE0187599F4F0E94A6288CE0FE01E759DE
:101A5000FF4FABE6BEE001900D928A95E1F7209131
:101A60005F0E3091600E4091610E5091620E609158
:101A7000950E7091960E8091970E9091980E0E94FF
:101A8000873C20E030E040E05FE30E946E3B6093E3
:101A9000950E7093960E8093970E9093980E2091CA
:101AA0006B0E30916C0E40916D0E50916E0E6091E8
:101AB000A10E7091A20E8091A30E9091A40E0E948F
:101AC000873C20E030E040E05FE30E946E3B6093A3
:101AD000A10E7093A20E8093A30E9093A40E20915A
:101AE000630E3091640E4091650E5091660E6091C8
:101AF000990E70919A0E80919B0E90919C0E0E946F
:101B0000873C20E030E040E05FE30E946E3B609362
:101B1000990E70939A0E80939B0E90939C0E209139
:101B20006F0E3091700E4091710E5091720E609157
:101B3000A50E7091A60E8091A70E9091A80E0E94FE
:101B4000873C20E030E040E05FE30E946E3B609322
:101B5000A50E7093A60E8093A70E9093A80E2091C9
:101B6000670E3091680E4091690E50916A0E609137
:101B70009D0E70919E0E80919F0E9091A00E0E94DE
:101B8000873C20E030E040E05FE30E946E3B6093E2
:101B90009D0E70939E0E80939F0E9093A00E2091A9
:101BA000730E3091740E4091750E5091760E6091C7
:101BB000A90E7091AA0E8091AB0E9091AC0E0E946E
:101BC000873C20E030E040E05FE30E946E3B6093A2
:101BD000A90E7093AA0E8093AB0E9093AC0E68EC96
:101BE00070E080E090E00E94183089E29CE00E9462
:101BF0001C280150110909F010CF87E29CE00E94D7
:101C00003A2881E19CE00E943A2881E090E00E941D
:101C100046288EED9BE00E943A2886EC9BE00E94CD
:101C20003A2880EC9BE00E941C286091950E7091F0
:101C3000960E8091970E9091980E0E94372886EB11
:101C40009BE00E941C286091A10E7091A20E8091D1
:101C5000A30E9091A40E0E940F2880EB9BE00E949F
:101C60001C286091990E70919A0E80919B0E909114
:101C70009C0E0E94372884EA9BE00E941C286091F9
:101C8000A50E7091A60E8091A70E9091A80E0E94AD
:101C90000F288EE99BE00E941C2860919D0E709198
:101CA0009E0E80919F0E9091A00E0E94372884E98D
:101CB0009BE00E941C286091A90E7091AA0E809151
:101CC000AB0E9091AC0E0E940F288CE19EE00E941A
:101CD0003A2888EF9DE00E943A2882E99AE10E9422
:101CE0009C258823D1F38AEF94E00E94CB1F8DE7D7
:101CF0009BE00E943A2882E79BE00E941C2860E358
:101D00007AE1CE0187599F4F0E94B8288CE0FE01EE
:101D1000E759FF4FAFE5BEE001900D928A95E1F7DC
:101D200060E37AE1CE0187599F4F0E94A6288CE09C
:101D3000FE01E759FF4FABE6BEE001900D928A9598
:101D4000E1F780915F0E9091600EA091610EB091CD
:101D5000620E80937D0E90937E0EA0937F0EB093C3
:101D6000800E80916B0E90916C0EA0916D0EB091D3
:101D70006E0E8093890E90938A0EA0938B0EB09373
:101D80008C0E8091630E9091640EA091650EB091BF
:101D9000660E8093810E9093820EA093830EB09373
:101DA000840E80916F0E9091700EA091710EB09183
:101DB000720E80938D0E90938E0EA0938F0EB09323
:101DC000900E8091670E9091680EA091690EB0916F
:101DD0006A0E8093850E9093860EA093870EB09323
:101DE000880E8091730E9091740EA091750EB09133
:101DF000760E8093910E9093920EA093930EB093D3
:101E0000940E0AE010E0C0902F0ED090300EE090BB
:101E1000310EF090320E86E390E00E94AD269B01D9
:101E2000AC01C701B6010E94873C60932F0E7093EE
:101E3000300E8093310E9093320EC090330ED090BE
:101E4000340EE090350EF090360E87E390E00E945D
:101E5000AD269B01AC01C701B6010E94873C60938F
:101E6000330E7093340E8093350E9093360EC090DF
:101E7000370ED090380EE090390EF0903A0E88E38D
:101E800090E00E94AD269B01AC01C701B6010E9403
:101E9000873C6093370E7093380E8093390E909381
:101EA0003A0EC0903B0ED0903C0EE0903D0EF0906C
:101EB0003E0E89E390E00E94AD269B01AC01C70174
:101EC000B6010E94873C60933B0E70933C0E80935A
:101ED0003D0E90933E0E60E37AE1CE0187599F4F0D
:101EE0000E94B8288CE0FE01E759FF4FAFE5BEE045
:101EF00001900D928A95E1F760E37AE1CE0187596E
:101F00009F4F0E94A6288CE0FE01E759FF4FABE6E9
:101F1000BEE001900D928A95E1F720915F0E30911D
:101F2000600E4091610E5091620E60917D0E709135
:101F30007E0E80917F0E9091800E0E94873C20E063
:101F400030E040E05FE30E946E3B60937D0E709353
:101F50007E0E80937F0E9093800E20916B0E3091B9
:101F60006C0E40916D0E50916E0E6091890E7091C5
:101F70008A0E80918B0E90918C0E0E94873C20E0FF
:101F800030E040E05FE30E946E3B6093890E709307
:101F90008A0E80938B0E90938C0E2091630E30915D
:101FA000640E4091650E5091660E6091810E7091A5
:101FB000820E8091830E9091840E0E94873C20E0D7
:101FC00030E040E05FE30E946E3B6093810E7093CF
:101FD000820E8093830E9093840E20916F0E309129
:101FE000700E4091710E5091720E60918D0E709135
:101FF0008E0E80918F0E9091900E0E94873C20E073
:1020000030E040E05FE30E946E3B60938D0E709382
:102010008E0E80938F0E9093900E2091670E3091CC
:10202000680E4091690E50916A0E6091850E709114
:10203000860E8091870E9091880E0E94873C20E04A
:1020400030E040E05FE30E946E3B6093850E70934A
:10205000860E8093870E9093880E2091730E309198
:10206000740E4091750E5091760E6091910E7091A4
:10207000920E8091930E9091940E0E94873C20E0E6
:1020800030E040E05FE30E946E3B6093910E7093FE
:10209000920E8093930E9093940E68EC70E080E023
:1020A00090E00E94183080E79BE00E941C280150BD
:1020B000110909F0A8CE8EE69BE00E943A2888E537
:1020C0009BE00E943A2820E030E040E251E4609139
:1020D0002F0E7091300E8091310E9091320E0E9431
:1020E000F33C60932F0E7093300E8093310E9093DB
:1020F000320E20E030E040E251E46091330E709106
:10210000340E8091350E9091360E0E94F33C609310
:10211000330E7093340E8093350E9093360E20E07C
:1021200030E040E251E46091370E7091380E8091BA
:10213000390E90913A0E0E94F33C6093370E7093E3
:10214000380E8093390E90933A0E20E030E040E252
:1021500051E460913B0E70913C0E80913D0E909148
:102160003E0E0E94F33C60933B0E70933C0E8093B6
:102170003D0E90933E0E82E090E00E9446288BE157
:102180009BE00E943A288CEF9AE00E943A2889EF5F
:102190009AE00E941C2860912F0E7091300E809161
:1021A000310E9091320E0E94372885EF9AE00E94FE
:1021B0001C286091330E7091340E8091350E9091F1
:1021C000360E0E94372881EF9AE00E941C28609109
:1021D000370E7091380E8091390E90913A0E0E9410
:1021E00037288DEE9AE00E941C2860913B0E70917A
:1021F0003C0E80913D0E90913E0E0E940F2889EB7F
:102200009AE00E943A2881EA9AE00E943A288BE9F3
:102210009AE00E941C2860917D0E70917E0E809144
:102220007F0E9091800E0E94372881E99AE00E94EB
:102230001C286091890E70918A0E80918B0E90916E
:102240008C0E0E940F288BE89AE00E941C28609157
:10225000810E7091820E8091830E9091840E0E9467
:1022600037288FE79AE00E941C2860918D0E7091AC
:102270008E0E80918F0E9091900E0E940F2889E70C
:102280009AE00E941C286091850E7091860E8091C4
:10229000870E9091880E0E9437288FE69AE00E9460
:1022A0001C286091910E7091920E8091930E9091E6
:1022B000940E0E940F2887EB9DE00E943A2883E944
:1022C0009DE00E943A2884E99AE10E949C25882397
:1022D000D1F38CEF94E00E94CB1F88E59AE00E9436
:1022E0003A288DE49AE00E941C2860E37AE1CE014E
:1022F00087599F4F0E94B8288CE0FE01E759FF4F95
:10230000AFE5BEE001900D928A95E1F780915F0EF6
:102310009091600EA091610EB091620E8093AD0E0F
:102320009093AE0EA093AF0EB093B00E8091630E5B
:102330009091640EA091650EB091660E8093B10EDF
:102340009093B20EA093B30EB093B40E8091670E2B
:102350009091680EA091690EB0916A0E8093B50EAF
:102360009093B60EA093B70EB093B80E80E39AE1A7
:102370000E94CD282093C50E3093C60E4093C70E01
:102380005093C80E6093C90E7093CA0E80E39AE111
:102390000E94CD282093D10E3093D20E4093D30EBD
:1023A0005093D40E6093D50E7093D60E0AE010E0D1
:1023B00060E37AE1CE0187599F4F0E94B8288CE0F4
:1023C000FE01E759FF4FAFE5BEE001900D928A95FF
:1023D000E1F720915F0E3091600E4091610E5091B7
:1023E000620E6091AD0E7091AE0E8091AF0E909125
:1023F000B00E0E94873C20E030E040E05FE30E94A6
:102400006E3B6093AD0E7093AE0E8093AF0E9093C3
:10241000B00E2091630E3091640E4091650E509184
:10242000660E6091B10E7091B20E8091B30E9091D4
:10243000B40E0E94873C20E030E040E05FE30E9461
:102440006E3B6093B10E7093B20E8093B30E909377
:10245000B40E2091670E3091680E4091690E509134
:102460006A0E6091B50E7091B60E8091B70E909184
:10247000B80E0E94873C20E030E040E05FE30E941D
:102480006E3B6093B50E7093B60E8093B70E90932B
:10249000B80E80E39AE10E94CD282093770E309306
:1024A000780E4093790E50937A0E60937B0E709362
:1024B0007C0E4091790E50917A0E8091C70E9091CA
:1024C000C80E8417950724F45093C80E4093C70E86
:1024D0002091770E3091780E8091C50E9091C60EA6
:1024E0008217930724F43093C60E2093C50E809173
:1024F0007B0E90917C0E6091C90E7091CA0E681788
:10250000790724F49093CA0E8093C90E6091D30E7C
:102510007091D40E4617570724F45093D40E40936D
:10252000D30E4091D10E5091D20E2417350724F4CA
:102530003093D20E2093D10E2091D50E3091D60E2D
:102540008217930724F49093D60E8093D50E68ECEF
:1025500070E080E090E00E9418308BE49AE00E94E6
:102560001C280150110909F023CF89E49AE00E9448
:102570003A2883E39AE00E943A2883E090E00E94A0
:10258000462888EF99E00E943A2882EF99E00E945D
:102590001C286091AD0E7091AE0E8091AF0E90919F
:1025A000B00E0E940F288CEE99E00E941C286091CA
:1025B000B10E7091B20E8091B30E9091B40E0E9444
:1025C0000F2886EE99E00E941C286091B50E70914C
:1025D000B60E8091B70E9091B80E0E940F2883E539
:1025E0009DE00E943A288EE29DE00E943A2884E90C
:1025F0009AE10E949C258823D1F38CEF94E00E94FD
:10260000C61F68EC70E080E090E00E9418308CEF0C
:1026100094E00E94CB1F8FEC99E00E943A2884EC52
:1026200099E00E941C2860E37AE1CE0187599F4F10
:102630000E94A6288CE0FE01E759FF4FABE6BEE002
:1026400001900D928A95E1F780916B0E90916C0E3E
:10265000A0916D0EB0916E0E8093B90E9093BA0E4C
:10266000A093BB0EB093BC0E80916F0E9091700E34
:10267000A091710EB091720E8093BD0E9093BE0E1C
:10268000A093BF0EB093C00E8091730E9091740E04
:10269000A091750EB091760E8093C10E9093C20EEC
:1026A000A093C30EB093C40E80E39AE10E940B295D
:1026B0002093CB0E3093CC0E4093CD0E5093CE0E84
:1026C0006093CF0E7093D00E80E39AE10E940B29A5
:1026D0002093D70E3093D80E4093D90E5093DA0E34
:1026E0006093DB0E7093DC0E0AE010E060E37AE1A9
:1026F000CE0187599F4F0E94A6288CE0FE01E75922
:10270000FF4FABE6BEE001900D928A95E1F7209174
:102710006B0E30916C0E40916D0E50916E0E60916B
:10272000B90E7091BA0E8091BB0E9091BC0E0E94B2
:10273000873C20E030E040E05FE30E946E3B609326
:10274000B90E7093BA0E8093BB0E9093BC0E20917D
:102750006F0E3091700E4091710E5091720E60911B
:10276000BD0E7091BE0E8091BF0E9091C00E0E9462
:10277000873C20E030E040E05FE30E946E3B6093E6
:10278000BD0E7093BE0E8093BF0E9093C00E20912D
:10279000730E3091740E4091750E5091760E6091CB
:1027A000C10E7091C20E8091C30E9091C40E0E9412
:1027B000873C20E030E040E05FE30E946E3B6093A6
:1027C000C10E7093C20E8093C30E9093C40E80E32B
:1027D0009AE10E940B292093770E3093780E409354
:1027E000790E50937A0E60937B0E70937C0E40911D
:1027F000790E50917A0E8091CD0E9091CE0E841765
:10280000950724F45093CE0E4093CD0E2091770E71
:102810003091780E8091CB0E9091CC0E8217930759
:1028200024F43093CC0E2093CB0E80917B0E9091AC
:102830007C0E6091CF0E7091D00E6817790724F44A
:102840009093D00E8093CF0E6091D90E7091DA0ED6
:102850004617570724F45093DA0E4093D90E40914F
:10286000D70E5091D80E2417350724F43093D80E84
:102870002093D70E2091DB0E3091DC0E8217930748
:1028800024F49093DC0E8093DB0E68EC70E080E023
:1028900090E00E94183082EC99E00E941C280150C0
:1028A000110909F023CF80EC99E00E943A288AEAC6
:1028B00099E00E943A2883E090E00E94462880E751
:1028C00099E00E943A288AE699E00E941C286091CB
:1028D000B90E7091BA0E8091BB0E9091BC0E0E9401
:1028E0000F2884E699E00E941C286091BD0E70912B
:1028F000BE0E8091BF0E9091C00E0E940F288EE5F3
:1029000099E00E941C286091C10E7091C20E8091C6
:10291000C30E9091C40E0E940F288EE09DE00E948D
:102920003A2868EE73E080E090E00E941830209131
:102930002F0E3091300E4091310E5091320E609139
:102940003F0E7091400E8091410E9091420E0E9478
:10295000873C20E030E040E05FE30E946E3B609304
:102960005B0E70935C0E80935D0E90935E0E2091D3
:10297000330E3091340E4091350E5091360E6091E9
:10298000430E7091440E8091450E9091460E0E9428
:10299000873C20E030E040E05FE30E946E3B6093C4
:1029A000570E7093580E8093590E90935A0E2091A3
:1029B000370E3091380E4091390E50913A0E609199
:1029C000470E7091480E8091490E90914A0E0E94D8
:1029D000873C20E030E040E05FE30E946E3B609384
:1029E000530E7093540E8093550E9093560E209173
:1029F0003B0E30913C0E40913D0E50913E0E609149
:102A00004B0E70914C0E80914D0E90914E0E0E9487
:102A1000873C20E030E040E05FE30E946E3B609343
:102A20004F0E7093500E8093510E9093520E89E288
:102A300099E00E943A2889E099E00E943A2885E0CE
:102A400099E00E941C2860915B0E70915C0E809151
:102A50005D0E90915E0E0E94372881E099E00E9401
:102A60001C286091570E7091580E8091590E9091CC
:102A70005A0E0E9437288DEF98E00E941C28609122
:102A8000530E7091540E8091550E9091560E0E94E7
:102A9000372889EF98E00E941C2860914F0E7091B2
:102AA000500E8091510E9091520E0E940F288DEC85
:102AB00098E00E943A2885EB98E00E943A288FEA35
:102AC00098E00E941C286091950E7091960E80915E
:102AD000970E9091980E0E94372885EA98E00E9400
:102AE0001C286091A10E7091A20E8091A30E90916E
:102AF000A40E0E940F288FE998E00E941C28609184
:102B0000990E70919A0E80919B0E90919C0E0E944E
:102B1000372883E998E00E941C286091A50E7091E7
:102B2000A60E8091A70E9091A80E0E940F288DE806
:102B300098E00E941C2860919D0E70919E0E8091DD
:102B40009F0E9091A00E0E94372883E898E00E9483
:102B50001C286091A90E7091AA0E8091AB0E9091E5
:102B6000AC0E0E940F2860915B0E70915C0E8091FC
:102B70005D0E90915E0E0E94653D70932E0E6093E7
:102B80002D0E6091570E7091580E8091590E9091B4
:102B90005A0E0E94653D70932C0E60932B0E60912F
:102BA000530E7091540E8091550E9091560E0E94C6
:102BB000653D7093280E6093270E60914F0E7091C3
:102BC000500E8091510E9091520E0E94653D70936F
:102BD0002A0E6093290E8091950E9091960EA091E9
:102BE000970EB091980E8093EB0D9093EC0DA093FF
:102BF000ED0DB093EE0D8091990E90919A0EA091EB
:102C00009B0EB0919C0E8093EF0D9093F00DA093CE
:102C1000F10DB093F20D80919D0E90919E0EA091BA
:102C20009F0EB091A00E8093F30D9093F40DA0939E
:102C3000F50DB093F60D8091A10E9091A20EA0918A
:102C4000A30EB091A40E8093DF0D9093E00DA0939E
:102C5000E10DB093E20D8091A50E9091A60EA0918A
:102C6000A70EB091A80E8093E30D9093E40DA0936E
:102C7000E50DB093E60D8091A90E9091AA0EA0915A
:102C8000AB0EB091AC0E8093E70D9093E80DA0933E
:102C9000E90DB093EA0D80917D0E90917E0EA0918A
:102CA0007F0EB091800E8093D30D9093D40DA0939E
:102CB000D50DB093D60D8091810E9091820EA0918A
:102CC000830EB091840E8093D70D9093D80DA0936E
:102CD000D90DB093DA0D8091850E9091860EA0915A
:102CE000870EB091880E8093DB0D9093DC0DA0933E
:102CF000DD0DB093DE0D8091890E90918A0EA0912A
:102D00008B0EB0918C0E8093C70D9093C80DA0933D
:102D1000C90DB093CA0D80918D0E90918E0EA09129
:102D20008F0EB091900E8093CB0D9093CC0DA0930D
:102D3000CD0DB093CE0D8091910E9091920EA091F9
:102D4000930EB091940E8093CF0D9093D00DA093DD
:102D5000D10DB093D20D8091AD0E9091AE0EA09199
:102D6000AF0EB091B00E8093030E9093040EA0931B
:102D7000050EB093060E8091B10E9091B20EA09107
:102D8000B30EB091B40E8093070E9093080EA093EB
:102D9000090EB0930A0E8091B50E9091B60EA091D7
:102DA000B70EB091B80E80930B0E90930C0EA093BB
:102DB0000D0EB0930E0E8091B90E9091BA0EA091A7
:102DC000BB0EB091BC0E8093F70D9093F80DA093BD
:102DD000F90DB093FA0D8091BD0E9091BE0EA091A9
:102DE000BF0EB091C00E8093FB0D9093FC0DA0938D
:102DF000FD0DB093FE0D8091C10E9091C20EA09179
:102E0000C30EB091C40E8093FF0D9093000EA0935B
:102E1000010EB093020E88E6E7ECFDE0DE011196AC
:102E200001900D928A95E1F7CE0101966C01E12C9B
:102E3000F12CF60111916F01C7010E942C3C18176B
:102E400021F0612FC7010E94343CFFEFEF1AFF0A07
:102E500028E6E216F10469F786E698E00E943A282F
:102E600087EC9DE00E94482983EF9CE00E943A286D
:102E700068EC70E080E090E00E94183064E070E060
:102E800086EC9DE00E940F2168EC70E080E090E00D
:102E90000E94183081E08093C50DB2C486EA96E0A6
:102EA0000E949C25882311F40C94D70A8DE69FE09C
:102EB0000E943A288DED9EE00E9403218CEF94E061
:102EC0000E94CB1F68EE73E080E090E00E94183013
:102ED00063E070E08DED9EE00E940F2180E598E0B8
:102EE0000E943A288BE398E00E943A2886E298E014
:102EF0000E943A2810E0111134C088ED97E00E943A
:102F00003A2887EB97E00E943A2888E997E00E94E8
:102F10003A288BE797E00E943A288EE597E00E94D6
:102F20003A288AE397E00E943A2888E197E00E94D5
:102F30003A2889EF96E00E943A2880EE96E00E94B7
:102F40003A288FEB96E00E943A288DEA96E00E949C
:102F50003A288AE996E00E943A2887E796E00E949C
:102F60003A288DE493E00E94EF29892BD1F30E9447
:102F700042346B017C01672BC9F087E696E00E9422
:102F80001C28C6010E9464290E940B280D2C000CED
:102F9000EE08FF08F6013196ED30F10508F01EC489
:102FA0008827EE58FF4F8F4F0C947E3C83E696E0C7
:102FB0000E943A2811E0D5CF8AE296E00E943A2892
:102FC00084E096E00E943A280E9442346F3F7F4F8F
:102FD0008F4F9F4F09F406C486E390E00E94AD2610
:102FE0006093D7107093D8108093D9109093DA1013
:102FF00087E390E00E94AD266093DB107093DC10B5
:103000008093DD109093DE1088E390E00E94AD265F
:103010006093DF107093E0108093E1109093E210C2
:1030200089E390E00E94AD266093E3107093E41072
:103030008093E5109093E61084EE92E00E941C28A5
:103040006091D7107091D8108091D9109091DA10BA
:103050000E94372881EE92E00E941C286091DB10CC
:103060007091DC108091DD109091DE100E94372865
:103070008EED92E00E941C286091DF107091E010AC
:103080008091E1109091E2100E9437288BED92E040
:103090000E941C286091E3107091E4108091E5106B
:1030A0009091E6100E940F286AEF70E080E090E0B7
:1030B0000E94183089CF8DEC95E00E943A2887EA6B
:1030C00095E00E943A280E9442346F3F7F4F8F4F15
:1030D0009F4F09F487C38AEB95E00E94FC1D0E9474
:1030E0000F3B2091BE053091BF054091C005509126
:1030F000C1050E94F33C20E030E040E05FE30E9425
:103100006E3B6093B5137093B6138093B71390938F
:10311000B8138AEA95E00E94FC1D0E940F3B2091A3
:10312000AE053091AF054091B0055091B1050E94B8
:10313000F33C20E030E040E05FE30E946E3B6093B0
:10314000B1137093B2138093B3139093B4138AE9BD
:1031500095E00E94FC1D0E940F3B20919E0530913E
:103160009F054091A0055091A1050E94F33C20E0ED
:1031700030E040E05FE30E946E3B6093AD137093DC
:10318000AE138093AF139093B01381EC92E00E9442
:103190001C286091AD137091AE138091AF13909184
:1031A000B0130E94372884EB92E00E941C286091A3
:1031B000B1137091B2138091B3139091B4130E9424
:1031C000372888EA92E00E941C286091B51370911C
:1031D000B6138091B7139091B8130E940F2864EF33
:1031E00071E080E090E00E9418306DCF8DED9EE0A0
:1031F0000E94032180E392E00E94BD2C8EE692E0C3
:103200000E94BD2C0E9442346F3F7F4F8F4F9F4FD3
:1032100009F4E8C280EB96E00E94CD2820938F113C
:1032200030939011409391115093921160939311A8
:103230007093941180EB96E00E940B2920939511D6
:103240003093961140939711509398116093991170
:1032500070939A1189E992E00E941C288091911143
:10326000909192110E94642986E992E00E941C28A4
:1032700080918F11909190110E94642983E992E0CE
:103280000E941C2880919311909194110E946429AE
:1032900081E892E00E941C288091971190919811EA
:1032A0000E9464298EE792E00E941C28809195116B
:1032B000909196110E9464298BE792E00E941C284D
:1032C0008091991190919A110E9464290E940B2873
:1032D00064EF71E080E090E00E94183093CF8DEDB4
:1032E0009EE00E94032189E695E00E943A2883E44B
:1032F00095E00E943A280E9442346F3F7F4F8F4FE3
:103300009F4F09F46FC260EB76E0CE0187599F4F63
:103310000E94B8288CE0FE01E759FF4FABE9B1E10C
:1033200001900D928A95E1F760EB76E0CE01875926
:103330009F4F0E94A6288CE0FE01E759FF4FA7EAA5
:10334000B1E101900D928A95E1F78CE692E00E943E
:103350001C2860919B1170919C1180919D119091FE
:103360009E110E94372889E692E00E941C286091F5
:103370009F117091A0118091A1119091A2110E94B2
:10338000372886E692E00E941C286091A311709174
:10339000A4118091A5119091A6110E94372884E56F
:1033A00092E00E941C286091A7117091A811809151
:1033B000A9119091AA110E94372881E592E00E94FC
:1033C0001C286091AB117091AC118091AD1190915E
:1033D000AE110E9437288EE492E00E941C28609172
:1033E000AF117091B0118091B1119091B2110E9402
:1033F00037280E940B2864E670E080E090E00E948D
:10340000183079CF87E095E00E943A2881EE94E069
:103410000E943A280E9442346F3F7F4F8F4F9F4F48
:1034200009F4E0C184E992E00E94D1350E9444355C
:103430006091BB137091BC13072E000C880B990B85
:103440000E940F3B0E9437288BE992E00E94D13501
:103450000E9444356091BD137091BE13072E000C7D
:10346000880B990B0E940F3B0E94372885EA92E057
:103470000E94D1350E9444356091BF137091C013F2
:10348000072E000C880B990B0E940F3B0E940F28FF
:103490006CE271E080E090E00E941830BBCF87EAD8
:1034A00094E00E943A2881E894E00E943A280E9421
:1034B00042346F3F7F4F8F4F9F4F09F493C186EC8B
:1034C00092E00E94D1350E9444356091C113709101
:1034D000C213072E000C880B990B0E940F3B0E9411
:1034E00037288FEA92E00E94D1350E9444356091DE
:1034F000C3137091C413072E000C880B990B0E9404
:103500000F3B0E94372889EB92E00E94D1350E9440
:1035100044356091C5137091C613072E000C880BBB
:10352000990B0E940F3B0E940F286CE271E080E033
:1035300090E00E941830BBCF86E494E00E943A28C5
:1035400080E294E00E943A280E9442346F3F7F4F0D
:103550008F4F9F4F09F446C184E992E00E94D13514
:103560000E9444356091BB137091BC13072E000C70
:10357000880B990B0E940F3B0E9437288BE992E041
:103580000E94D1350E9444356091BD137091BE13E5
:10359000072E000C880B990B0E940F3B0E943728C6
:1035A00085EA92E00E94D1350E9444356091BF13B4
:1035B0007091C013072E000C880B990B0E940F3BD3
:1035C0000E94372883EC92E00E94D1350E94443556
:1035D0006091C1137091C213072E000C880B990BD8
:1035E0000E940F3B0E9437288FEA92E00E94D1355B
:1035F0000E9444356091C3137091C413072E000CD0
:10360000880B990B0E940F3B0E94372889EB92E0B0
:103610000E94D1350E9444356091C5137091C61344
:10362000072E000C880B990B0E940F3B0E940F285D
:103630006CE271E080E090E00E94183085CF8FE16D
:1036400094E00E943A2885EC9DE00E947E248EEF53
:1036500093E00E943A280E9442346F3F7F4F8F4F81
:103660009F4FC9F7BFC081EB93E00E943A2889E8D9
:1036700093E00E943A2860ED77E080E090E00E94BD
:1036800018300E94423400E010E09801613071056A
:103690008105910549F040E050E068E472E482E47D
:1036A00096E00E943E32EDCFB901A80182E496E097
:1036B0000E943E3289E593E00E943A2884E393E039
:1036C0000E943A2860ED77E080E090E00E94183098
:1036D0000E9442346F3F7F4F8F4F9F4F61F000E059
:1036E00010E028E432E440E050E0BA0182E496E0E1
:1036F0000E943E32EDCF00E010E09801B901A80130
:1037000082E496E00E943E326DC060EB76E0CE012E
:1037100087599F4F0E94B8288CE0FE01E759FF4F60
:10372000ABE9B1E101900D928A95E1F7C090A31148
:10373000D090A411E090A511F090A61120916711EE
:10374000309168114091691150916A11C701B60119
:103750000E94083B87FF4DC0209173113091741176
:103760004091751150917611C701B6010E94083B36
:1037700087FF3FC0C0909B11D0909C11E0909D119D
:10378000F0909E1120915F11309160114091611174
:1037900050916211C701B6010E94083B87FF29C002
:1037A00020916B1130916C1140916D1150916E11FF
:1037B000C701B6010E94083B87FF1BC08CEA96E058
:1037C0000E94CB1F8DEC92E00E94BD2C0E944234DF
:1037D0006F3F7F4F8F4F9F4F09F097CF80E193E06E
:1037E0000E943A2810E089CB0E949B0A11E00C94B9
:1037F000D70A8CEA96E00E94C61F86ED92E0E4CFDD
:10380000CC58DF4F0FB6F894DEBF0FBECDBFDF91AF
:10381000CF911F910F91FF90EF90DF90CF9008957F
:1038200080E090E0892B21F00E94FB29811125C0C6
:1038300080E090E0892B41F080E090E0892B21F03E
:103840000E94000081111CC080E090E0892B41F0B3
:1038500080E090E0892B21F00E940000811113C0CC
:1038600080E090E0892BA1F080E090E0892B81F04E
:103870000E94000081110AC008950E940000D8CF64
:103880000E940000E1CF0E940000EACF0C940000EB
:10389000089585ED8093BC008091BC0084FDFCCF31
:1038A0001092F11B089540911403262F30E0240F4D
:1038B000311D21323105DCF42091F11B2430C9F493
:1038C000FC0180E090E0861758F4309114032191B8
:1038D000DC01AC50BD4FA30FB11D2C930196F3CF6B
:1038E00080911403680F6093140380E0089581E0D1
:1038F000089582E0089508950895E091861B8091CF
:10390000851BE81730F4F0E0E555F44E808190E037
:1039100008958FEF9FEF08959091861B8091851BEE
:10392000981750F4E92FF0E0E555F44E208130E08F
:103930009F5F9093861B02C02FEF3FEFC901089550
:103940008091851B90E02091861B821B9109089530
:10395000CF92DF92EF92FF920F931F93CF93DF935B
:103960007C01CB018A012091871B222389F0EB0186
:103970006B01C40ED51ECC15DD0569F06991D70128
:10398000ED91FC910190F081E02DC7011995F3CFE5
:10399000642F0E94531CC801DF91CF911F910F919A
:1039A000FF90EF90DF90CF900895CF93DF931F9219
:1039B000CDB7DEB769832091871B2223D1F02091F8
:1039C000AA1B203240F021E030E0FC013383228347
:1039D00080E090E015C08091881BE82FF0E0E75769
:1039E000F44E998190838F5F8093881B8093AA1BEC
:1039F00005C061E0CE0101960E94531C81E090E079
:103A00000F90DF91CF910895089580E090E00895A0
:103A1000CF92DF92EF92FF920F931F93CF93DF939A
:103A2000EC0187E3E82E83E0F82E00E010E08091BF
:103A30004B0390914C03081719075CF4F701808140
:103A4000F2E0EF0EF11C60E00E942E2E0F5F1F4F80
:103A5000EECF61E088850E942E2E64E070E080E069
:103A600090E00E9418300E9452306CE370E080E0D9
:103A700090E00E9418308091EA03811102C00E94F8
:103A8000523084E10E94AA2D86E10E94AA2D6C0189
:103A900088E10E94AA2D7C018AE10E94AA2D8C0156
:103AA0008091ED039091EE03853D910519F150F45D
:103AB000009729F1803C910541F56AE970E080E0CA
:103AC00090E021C0863F910581F08F3F910541F044
:103AD0008B3E9105D1F462E370E080E090E013C08A
:103AE00063E070E080E090E00EC068E170E080E0AC
:103AF00090E009C065E670E080E090E004C06CEB07
:103B000072E080E090E00E941830DD82CC82FB827F
:103B1000EA821F830E83DF91CF911F910F91FF9057
:103B2000EF90DF90CF900895CF93DF93EC0160E0AA
:103B300088850E942E2E60E08A850E942E2E8C851C
:103B40000E94052E61E0019709F460E020E432E470
:103B50004FE050E08C850E94D32D7D836C8361E023
:103B60008A850E942E2E8C850E94052E61E0019789
:103B700009F460E020E432E44FE050E08C850E94DC
:103B8000D32D7F836E8361E088850E942E2E8C85E5
:103B90000E94052E61E0019709F460E020E432E420
:103BA0004FE050E08C850E94D32D7B836A83DF91A8
:103BB000CF910895FC01848DDF01A80FB11DA35A98
:103BC000BF4F2C91848D90E001968F739927848F3D
:103BD000A689B7892C93A089B1898C918370806460
:103BE0008C93938D848D981306C00288F389E02D01
:103BF00080818F7D80830895CF93DF93EC0160E017
:103C000088810E942E2E83E090E00197F1F761E019
:103C100088810E942E2E83E290E00197F1F760E008
:103C200088810E942E2E20E137E240E050E061E0E2
:103C30008A810E94D32D161617061806190624F03D
:103C400060E177E280E090E0DF91CF9108952F92DC
:103C50003F924F925F926F927F928F929F92AF921C
:103C6000BF92CF92DF92EF92FF920F931F93CF9369
:103C7000DF9300D01F92CDB7DEB79A8389838B0183
:103C8000DB01ED91FC910190F081E02DCB011995C4
:103C9000F80124803580268137813C832B83028183
:103CA00013814101032C000CAA08BB082016310621
:103CB00064F020173107CCF40215130584F0B1012C
:103CC00022153305CCF4B90117C02B813C81221594
:103CD000330584F58B819C810817190744F0AB816B
:103CE000BC812A163B0634F402C0B80105C060E06E
:103CF00070E002C06B817C81072E000C880B990B51
:103D00000E940F3B2B013C010215130544F0EB818F
:103D1000FC810E171F072CF520163106B4F02B81FD
:103D20003C8122163306C4F420173107BCF06B81A6
:103D30007C8118C0C501B4010E940F3B2B013C01DE
:103D4000EB81FC810E171F0764F48B819C81821527
:103D5000930524F0BC0106C0B10104C060E070E02E
:103D600001C0B801072E000C880B990B0E940F3B75
:103D70006B017C01C501B4010E940F3B9B01AC01AA
:103D8000C701B6010E94083B81113EC0C801AB814A
:103D9000BC818A1B9B0B2CE3289FB001299F700DCF
:103DA0001124072E000C880B990B0A171B07BCF077
:103DB0000E940F3B4B015C01A3019201C701B601B8
:103DC0000E94863C9B01AC01C501B4010E94F33CFA
:103DD000E981FA8160837183828393837FC00E942B
:103DE0000F3B4B015C01A3019201C701B6010E9488
:103DF000863C9B01AC01C501B4010E94F33C20E06C
:103E000030E044EB53E431C0B801012E000C880BC4
:103E1000990B0E940F3B9B01AC01C701B6010E94A8
:103E2000083BEB81FC8181112AC0E219F3098CE384
:103E30008E9FB0018F9F700D1124072E000C880BF0
:103E4000990B0E940F3B4B015C01A3019201C7013A
:103E5000B6010E94863C9B01AC01C501B4010E94E1
:103E6000F33C20E030E040EF52E40E94873CA9811F
:103E7000BA816D937D938D939C9313972FC0BF014F
:103E8000FF0F880B990B0E940F3B9B01AC01C701F0
:103E9000B6010E94083B811121C0201A310A8CE32F
:103EA000829DB001839D700D1124072E000C880B9C
:103EB000990B0E940F3B4B015C01A3019201C701CA
:103EC000B6010E94863C9B01AC01C501B4010E9471
:103ED000F33C20E030E040E753E4C7CFA301920178
:103EE000C701B6010E94863CA70196010E94F33CDF
:103EF000E981FA816483758386839783C086D1863E
:103F0000E286F386CF010F900F900F900F90DF9114
:103F1000CF911F910F91FF90EF90DF90CF90BF90C6
:103F2000AF909F908F907F906F905F904F903F9059
:103F30002F9008950F931F93CF93DF9300D000D05D
:103F4000CDB7DEB78C01DC01ED91FC910190F081E1
:103F5000E02D199586E0F8013296DE011196019068
:103F60000D928A95E1F729813A814B815C816D81BF
:103F70007E8180E090E026960FB6F894DEBF0FBEFB
:103F8000CDBFDF91CF911F910F91089560E0FC01AB
:103F900080810C942E2E61E0FC0180810C942E2EE9
:103FA0001F920F920FB60F9211240BB60F922F9300
:103FB0003F934F935F936F937F938F939F93AF93B1
:103FC000BF93EF93FF938091B900887F803609F407
:103FD0009CC068F5883209F45BC090F4803109F424
:103FE00054C038F4882309F4F6C0883009F44DC071
:103FF000F6C0883109F44CC0803209F45DC0EFC0CE
:10400000803409F468C048F4803309F455C088331B
:1040100009F0E5C08093EF1BD8C0803509F44FC08C
:10402000883509F45DC0883409F0D9C0D6C0883914
:1040300009F4C7C0A8F4883709F467C038F4883693
:1040400009F463C0803709F460C0C9C0883809F436
:10405000B8C0803909F45FC0803809F0C0C05BC0C7
:10406000803B09F486C038F4803A09F466C0883A87
:1040700009F47FC0B4C0803C09F4A7C0883C09F4AF
:10408000A4C0883B09F48AC0AAC08091EC1B10C070
:104090009091EE1B8091ED1B981770F5E091EE1B4F
:1040A00081E08E0F8093EE1BF0E0E553F44E8081AB
:1040B0008093BB0085EC86C08093EF1B8EC0E0919F
:1040C000EE1B81E08E0F8093EE1B8091BB00F0E031
:1040D000E553F44E80839091EE1B8091ED1B6EC0F2
:1040E000E091EE1B81E08E0F8093EE1B8091BB0070
:1040F000F0E0E553F44E80838091F01B81116DC098
:1041000081E08093EB1B84EA61C083E08093F11B24
:1041100010923603CFCF80913603803208F051C021
:10412000E091360381E08E0F809336038091BB00CF
:10413000F0E0EA5EFC4F8083BDCF85EC8093BC004D
:104140001092F11B80913603803230F4E0913603F7
:10415000F0E0EA5EFC4F10826091360370E0E0917F
:10416000781BF091791B86E193E019951092360344
:1041700036C084E08093F11B109215031092140353
:10418000E0917A1BF0917B1B1995809114038111AA
:1041900005C081E0809314031092F402E0911503AE
:1041A00081E08E0F80931503F0E0EC50FD4F80818D
:1041B0008093BB009091150380911403981708F425
:1041C00079CF85E88093BC000AC085EC8093BC0061
:1041D0001092F11B04C01092EF1B0E94491CFF912A
:1041E000EF91BF91AF919F918F917F916F915F916F
:1041F0004F913F912F910F900BBE0F900FBE0F90DC
:104200001F901895089588EF94E00E94C61F8AEFCA
:1042100094E00E94C61F8CEF94E00C94C61FEF92AE
:10422000FF920F931F93CF93DF938C017B01C0E02C
:10423000D0E0CE15DF05E9F088EF94E00E94CB1FB7
:104240008AEF94E00E94CB1F8CEF94E00E94CB1F7A
:1042500066E970E080E090E00E941830C8010E949A
:10426000032166E970E080E090E00E94183021961A
:10427000E0CFDF91CF911F910F91FF90EF900895C4
:104280000F931F93CF93DF93EC01FC01EF55FE4F8B
:1042900080E090E0A8ECB2E480839183A283B383B2
:1042A000349680839183A283B383349680839183F1
:1042B000A283B383349680839183A283B383CE0198
:1042C000875E9E4F0E9448298E010F571E4FFE01A8
:1042D000E158FE4F60817181072E000C880B990B0D
:1042E0000E940F3BF80160837183828393830C5F8C
:1042F0001F4F349760817181072E000C880B990B3A
:104300000E940F3BF80160837183828393830C5F6B
:104310001F4F3C9760817181072E000C880B990B11
:104320000E940F3BF80160837183828393830C5F4B
:104330001F4FC558DE4F68817981072E000C880B0E
:10434000990B0E940F3BF8016083718382839383F2
:10435000DF91CF911F910F9108954F925F926F92CD
:104360007F928F929F92AF92BF92CF92DF92EF9205
:10437000FF920F931F93CF93DF93CDB7DEB72E97A6
:104380000FB6F894DEBF0FBECDBF9E878D87FC01B0
:10439000E451FF4F80809180A280B3808C01085946
:1043A0001F4F78972081318142815381C501B4012B
:1043B0000E94873C20E030E040E05FE30E946E3BDB
:1043C000D8016D937D938D939C931397ED85FE8516
:1043D000E051FF4F4080518062807380ED84FE8405
:1043E000BCE6EB0EF11CED85FE85E852FF4F208107
:1043F000318142815381C301B2010E94873C20E098
:1044000030E040E05FE30E946E3BF7016083718320
:1044100082839383ED85FE85EC50FF4F80819181EF
:10442000A281B38189839A83AB83BC83ED84FE84AC
:1044300090E7E90EF11CED85FE85E452FF4F2081E7
:1044400031814281538169817A818B819C810E9473
:10445000873C20E030E040E05FE30E946E3BD70104
:104460006D937D938D939C931397ED85FE85E85016
:10447000FF4F80819181A281B3818D839E83AF8321
:10448000B887ED84FE8490E8E90EF11CED85FE8589
:10449000E052FF4F20813181428153816D817E81C5
:1044A0008F8198850E94873C20E030E040E05FE308
:1044B0000E946E3BD7016D937D938D939C931397D0
:1044C000ED85FE85E450FF4F80819181A281B3810B
:1044D00089879A87AB87BC87ED84FE8494E8E90ED0
:1044E000F11CED85FE85EC51FF4F20813181428129
:1044F000538169857A858B859C850E94873C20E065
:1045000030E040E05FE30E946E3BD7016D937D9306
:104510008D939C931397ED85FE85F395C080D18094
:10452000E280F3800D851E8508571F4FED85FE85BF
:10453000E851FF4F2081318142815381C701B6018B
:104540000E94873C20E030E040E05FE30E946E3B49
:10455000F80160837183828393830D851E850C58D7
:104560001F4FED85FE85E454FF4F2081318142814C
:104570005381C501B4010E94873C20E030E040E057
:104580005FE30E946E3BD8016D937D938D939C9366
:104590001397AD84BE84B8E7AB0EB11CED85FE85E4
:1045A000E054FF4F2081318142815381C301B20128
:1045B0000E94873C20E030E040E05FE30E946E3BD9
:1045C000F5016083718382839383AD84BE84FCE7AD
:1045D000AF0EB11CED85FE85EC53FF4F208131817C
:1045E0004281538169817A818B819C810E94873CC1
:1045F00020E030E040E05FE30E946E3BD5016D9328
:104600007D938D939C931397AD84BE84BCE8AB0ED1
:10461000B11CED85FE85E853FF4F20813181428139
:1046200053816D817E818F8198850E94873C20E037
:1046300030E040E05FE30E946E3BF50160837183F0
:1046400082839383AD84BE84F0E9AF0EB11CED8507
:10465000FE85E453FF4F208131814281538169857A
:104660007A858B859C850E94873C20E030E040E085
:104670005FE30E946E3BD5016D937D938D939C9378
:1046800013970D851E850C561F4FED85FE85E05353
:10469000FF4F2081318142815381C701B6010E94C1
:1046A000873C20E030E040E05FE30E946E3BD801B1
:1046B0006D937D938D939C9313972E960FB6F894DC
:1046C000DEBF0FBECDBFDF91CF911F910F91FF9045
:1046D000EF90DF90CF90BF90AF909F908F907F90A2
:1046E0006F905F904F9008950F931F9300E010E03C
:1046F0009801B901A80186ED95E00E943E321F9114
:104700000F9108950F931F93CF93DF93EC01875E72
:104710009E4F0E9440218E0106531D4F81E090E084
:104720009093AF068093AE06C8010E9448299E016F
:1047300022563C4FF80184A195A1A6A1B7A1F90189
:1047400080839183A283B3832C5F3F4FF80180A5C0
:1047500091A5A2A5B3A5F90180839183A283B38318
:104760002C5F3F4FF80184A595A5A6A5B7A5F90133
:1047700080839183A283B3832C5F3F4FF801808DA8
:10478000918DA28DB38DF90180839183A283B38330
:104790002C5F3F4FF801848D958DA68DB78DF90163
:1047A00080839183A283B3832C5F3F4FF80180A164
:1047B00091A1A2A1B3A1F90180839183A283B383C4
:1047C0002C523109F80184859585A685B785F901B4
:1047D00080839183A283B3832C5F3F4FF80180894C
:1047E0009189A289B389F90180839183A283B383DC
:1047F0002C5F3F4FF80184899589A689B789F90113
:1048000080839183A283B3832C5F3F4FF801808123
:104810009181A281B381F90180839183A283B383C3
:104820002C5F3F4FF80184819581A681B781F90102
:1048300080839183A283B3832C5F3F4FF8018085EF
:104840009185A285B385F90180839183A283B38387
:10485000245E3F4FF80184AD95ADA6ADB7ADF9012B
:1048600080839183A283B3833496DE01A65FBC4F1D
:104870008D919D910D90BC91A02D80839183A283F9
:10488000B3833496DE01A25FBC4F8D919D910D9054
:10489000BC91A02D80839183A283B383245F3F4F7B
:1048A000F80180A991A9A2A9B3A9F90180839183F4
:1048B000A283B3832C5F3F4FF80184A995A9A6A9D1
:1048C000B7A9F90180839183A283B3832C5F3F4F03
:1048D000F80180AD91ADA2ADB3ADF90180839183B4
:1048E000A283B383C8010E94AD21CE0181539C4FA6
:1048F000DF91CF911F910F910C944021CF93DF93C3
:10490000EC0102960E9448298BE693E10E943A2826
:1049100084E493E10E943A2880E293E10E943A28DD
:1049200084E093E10E943A2885EE92E10E943A28C1
:1049300082EE92E10E941C28FE01E859FF4F80811F
:1049400091810E9464298BED92E10E941C28FE0156
:10495000EA59FF4F808191810E94642984ED92E1A0
:104960000E941C28FE01EE59FF4F808191810E9418
:1049700064298DEC92E10E941C28FE01EC59FF4F46
:10498000808191810E9464290E940B2880EB92E132
:104990000E943A2888E992E10E943A2882E992E14D
:1049A0000E941C286EA17FA188A599A50E94372886
:1049B00088E892E10E941C286A8D7B8D8C8D9D8DEC
:1049C0000E940F2882E892E10E941C286AA57BA51C
:1049D0008CA59DA50E94372886E792E10E941C289D
:1049E0006E8D7F8D88A199A10E940F2880E792E1AA
:1049F0000E941C286EA57FA588A999A90E94372826
:104A000086E692E10E941C286AA17BA18CA19DA14F
:104A10000E940F2889E492E10E943A2881E392E102
:104A20000E943A288BE292E10E941C28FE01FE9629
:104A300060817181828193810E94372881E292E1B5
:104A40000E941C286AA97BA98CA99DA90E940F28F5
:104A50008BE192E10E941C28FE01EE5BFF4F60811A
:104A60007181828193810E9437288FE092E10E94B8
:104A70001C286EA97FA988AD99AD0E940F2889E0F6
:104A800092E10E941C28FE01EA5BFF4F6081718168
:104A9000828193810E9437288FEF91E10E941C2828
:104AA0006AAD7BAD8CAD9DAD0E940F2881EE91E18A
:104AB0000E943A2889EC91E10E943A2883EC91E126
:104AC0000E941C286E857F85888999890E943728D5
:104AD00089EB91E10E941C286A817B818C819D81F8
:104AE0000E940F2883EB91E10E941C286A897B8930
:104AF0008C899D890E94372887EA91E10E941C28B1
:104B00006E817F81888599850E940F2881EA91E1D5
:104B10000E941C286E897F89888D998D0E94372874
:104B200087E991E10E941C286A857B858C859D859B
:104B3000DF91CF910C940F28FC0180810E94052EFB
:104B400021E0892B09F020E0822F08958F929F9217
:104B5000AF92BF92CF92DF92EF92FF920F931F938B
:104B6000CF93DF93EC010AE012E0198308838CE114
:104B700090E0998788878EE190E09B878A8780E222
:104B800090E09D878C8761E08CE10E94DC2F61E0E2
:104B90008A850E94DC2F60E08C850E94DC2F1F87B5
:104BA0000E8780E390E09F8B8E8B82E390E0998F5D
:104BB000888F84E390E09B8F8A8F61E080E30E947E
:104BC000DC2F61E0888D0E94DC2F60E08A8D0E94DE
:104BD000DC2F84E092E09D8F8C8F26E230E03DA3B5
:104BE0002CA380914B0390914C038A30910564F47F
:104BF000FC01EE0FFF1FE95CFC4F3183208301961F
:104C000090934C0380934B0384E092E09FA38EA388
:104C100022E330E03FA72EA780914B0390914C03F5
:104C20008A30910564F4FC01EE0FFF1FE95CFC4F34
:104C300031832083019690934C0380934B0361E072
:104C400080E10E94DC2F60E081E10E94DC2F80E1A6
:104C500090E099AB88AB81E190E09BAB8AAB85E8B3
:104C6000882E8CEF982E8CEDA82E81E4B82E8CAA7D
:104C70009DAAAEAABFAA9CE9C92E93E5D92E9CE8AD
:104C8000E92E92E4F92EC8AED9AEEAAEFBAE61E0F1
:104C900086E10E94DC2F60E088E10E94DC2FFE01AB
:104CA000E05CFF4F86E190E09183808388E190E0B3
:104CB0009383828384829582A682B782C086D186BE
:104CC000E286F38661E087E10E94DC2F60E089E103
:104CD0000E94DC2FFE01E05BFF4F87E190E09183B3
:104CE000808389E190E09383828384829582A68287
:104CF000B782C086D186E286F38670968DE190E019
:104D000091838083329681E290E091838083329612
:104D100089E290E091838083329685E390E09183ED
:104D20008083329683E390E091838083C659DF4F7E
:104D300081E390E0998388831092AF061092AE06CB
:104D4000DF91CF911F910F91FF90EF90DF90CF9067
:104D5000BF90AF909F908F900895863308F0865350
:104D600090917B00282F2870977F922B90937B0047
:104D70008770806480937C0080917A008064809347
:104D80007A0080917A0086FDFCCF60917800809156
:104D9000790070E0782B072E000C880B990B0E948D
:104DA0000F3B20E030E048EC52E40E946E3B20E0F4
:104DB00030EC4FE754E40E94F33C9B01AC0160E00F
:104DC00070E088EC92E40E94863C0895009769F0B8
:104DD000FC0101900020E9F73197AF01481B590B06
:104DE000BC018DE493E00C94942980E090E0089558
:104DF0008F929F92AF92BF920F931F93CF93DF93A7
:104E0000CDB7DEB7A1970FB6F894DEBF0FBECDBF0A
:104E100019A2423008F44AE08E010F5D1F4F842E24
:104E2000912CA12CB12CA50194010E944D3CE62FA0
:104E3000B901CA0101501109EA3014F4E05D01C062
:104E4000E95CD801EC93232B242B252B61F7C801B7
:104E50000E94E626A1960FB6F894DEBF0FBECDBF26
:104E6000DF91CF911F910F91BF90AF909F908F9046
:104E700008958F929F92AF92BF92CF92DF92EF925E
:104E8000FF920F931F93CF93DF936B017C01142F3D
:104E90009B01AC010E94A03D882319F084EE92E0B2
:104EA00027C046015701E894B7F82FEF3FEF4FE7CF
:104EB0005FE7C501B4010E94A03D81110DC02FEF35
:104EC0003FEF4FE75FE7C501B4010E94083B1816AA
:104ED0001CF488EE92E00CC02FEF3FEF4FE75FE449
:104EE000C701B6010E949B3D181684F48CEE92E037
:104EF000DF91CF911F910F91FF90EF90DF90CF90B6
:104F0000BF90AF909F908F900C94E6262FEF3FEFCD
:104F10004FE75FECC701B6010E94083B87FDE6CF73
:104F200020E030E0A901C701B6010E94083B87FFDD
:104F30000BC06DE28DE493E00E94072AEC01F7FAC2
:104F4000F094F7F8F09402C0C0E0D0E000E060E038
:104F500070E080E09FE3101741F020E030E040E295
:104F600051E40E94F33C0F5FF6CFA70196010E9427
:104F7000873C6B017C010E946C3D4B015C014AE067
:104F80000E94F826C80FD91F1123B9F1C501B40139
:104F90000E940D3B9B01AC01C701B6010E94863CFB
:104FA0006B017C016EE28DE493E00E94072AC80F3A
:104FB000D91F20E030E040E251E4C701B6010E9471
:104FC0006E3B4B015C010E946C3D6B01E12CF12CAE
:104FD0004AE0C701B6010E94F826C80FD91FC701D1
:104FE000B6010E940D3B9B01AC01C501B4010E94BA
:104FF000863C6B017C011150E1F6CE01DF91CF912F
:105000001F910F91FF90EF90DF90CF90BF90AF90E6
:105010009F908F90089580EF92E00C94E626CF93B6
:10502000DF9342E00E943927EC010E940B288C0F8D
:105030009D1FDF91CF9108950F931F93CF93DF931F
:105040008C01C0E0D0E0F801EC0FFD1F64916623F5
:1050500041F08DE493E00E94072A892B11F02196FC
:10506000F2CFCE01DF91CF911F910F91089542E0D1
:105070000C943927CF93DF930E941C28EC010E94E7
:105080000B288C0F9D1FDF91CF910895CF93DF9355
:105090008230910549F083309105D1F1019709F0F3
:1050A00052C0CAE0D0E003C0C0E0D0E018C088EF32
:1050B00094E00E94C61F62E370E080E090E00E94EE
:1050C000183088EF94E00E94CB1F62E370E080E02C
:1050D00090E00E941830219751F7CAE0D0E0CA3022
:1050E000D105C1F08AEF94E00E94C61F62E370E030
:1050F00080E090E00E9418308AEF94E00E94CB1F7D
:1051000062E370E080E090E00E9418302196E7CFE3
:10511000C0E0D0E0CA30D105B1F08CEF94E00E943D
:10512000C61F62E370E080E090E00E9418308CEFD0
:1051300094E00E94CB1F62E370E080E090E00E9468
:1051400018302196E7CFDF91CF910895CF93DF9369
:10515000EC018091AE069091AF06019711F4645E68
:105160007F4FCE010E94271ECE01DF91CF9108957F
:10517000CF93DF93EC018091AE069091AF0601973B
:1051800019F46A5D7F4F02C0625F7F4FCE010E94BB
:10519000271ECE01DF91CF910895CF93DF93CDB736
:1051A000DEB72C970FB6F894DEBF0FBECDBF2091AF
:1051B000AE063091AF062130310599F486960E94F3
:1051C0009A1F29833A834B835C836D837E8386E0B9
:1051D000FE013196DE01179601900D928A95E1F756
:1051E00009C00E960E949A1F2F83388749875A87D5
:1051F0006B877C872F81388549855A856B857C85AF
:1052000080E090E02C960FB6F894DEBF0FBECDBFC5
:10521000DF91CF910895CF93DF93CDB7DEB72C9771
:105220000FB6F894DEBF0FBECDBF2091AE06309111
:10523000AF062130310599F44C960E949A1F2983BC
:105240003A834B835C836D837E8386E0FE013196D7
:10525000DE01179601900D928A95E1F708C00E9431
:105260009A1F2F83388749875A876B877C872F81BE
:10527000388549855A856B857C8580E090E02C9641
:105280000FB6F894DEBF0FBECDBFDF91CF9108956A
:10529000EF92FF920F931F93CF93DF937C018C01CA
:1052A000C0E0D0E0CE010E942C3CF80181938F0138
:1052B0002196C836D105B1F7C701DF91CF911F9173
:1052C0000F91FF90EF900895CF92DF92EF92FF92AF
:1052D000CF93DF936C01990FEE08FF08F7FE19C01A
:1052E0006DE28DE493E00E94072AEC0166277727A0
:1052F000CB016C197D098E099F094AE00E94F826AE
:105300008C0F9D1FDF91CF91FF90EF90DF90CF909A
:1053100008954AE0C701B601DF91CF91FF90EF9069
:10532000DF90CF900C94F826CF92DF92EF92FF920D
:105330000F931F93CF93DF936C017A018B01C0E031
:10534000D0E0CE15DF0581F0D8016D918D01D60139
:10535000ED91FC910190F081E02DC6011995892B0A
:1053600011F02196EECF7E01C701DF91CF911F9101
:105370000F91FF90EF90DF90CF900895FC01538D37
:10538000448D252F30E0842F90E0821B930B54171F
:1053900010F0CF96089501970895FC01918D828DAC
:1053A000981761F0828DDF01A80FB11D5D968C9179
:1053B000928D9F5F9F73928F90E008958FEF9FEF84
:1053C0000895FC01918D828D981731F0828DE80F40
:1053D000F11D858D90E008958FEF9FEF0895FC01FA
:1053E000918D228D892F90E0805C9F4F821B9109C7
:1053F0008F73992708958DE493E00E94EF2921E0AF
:10540000892B09F420E0822F08950E94A53DEF9298
:10541000FF920F931F93CF93DF93EC0181E0888F6E
:105420009B8D8C8D981305C0E889F989808185FD55
:1054300026C0F62E0B8D10E00F5F1F4F0F73112744
:10544000E02E8C8DE8120CC00FB607FCFACFE8896D
:10545000F989808185FFF5CFCE010E94DA1DF1CF59
:105460008B8DFE01E80FF11DE35AFF4FF0829FB7CD
:10547000F8940B8FEA89FB89808180620AC09FB70C
:10548000F894EE89FF896083E889F98980818370C7
:10549000806480839FBF81E090E0DF91CF911F9176
:1054A0000F91FF90EF900895CF93DF93EC01888DDB
:1054B0008823C9F0EA89FB89808185FD05C0A88918
:1054C000B9898C9186FD0FC00FB607FCF5CF80819E
:1054D00085FFF2CFA889B9898C9185FFEDCFCE01E8
:1054E0000E94DA1DE7CFDF91CF9108951F920F92AE
:1054F0000FB60F9211240BB60F922F933F934F9339
:105500005F936F937F938F939F93AF93BF93EF932B
:10551000FF938DE493E00E94DA1DFF91EF91BF911C
:10552000AF919F918F917F916F915F914F913F913B
:105530002F910F900BBE0F900FBE0F901F901895DC
:105540001F920F920FB60F9211240BB60F922F934A
:105550008F939F93EF93FF93E0915D03F0915E0330
:105560008081E0916303F091640382FD12C0908119
:10557000809166038F5F8F7320916703821751F0CC
:10558000E0916603F0E0E35BFC4F958F8093660348
:1055900001C08081FF91EF919F918F912F910F908A
:1055A0000BBE0F900FBE0F901F9018950F931F9377
:1055B00000E010E09801B901A8018EEF94E00E948C
:1055C0003E3264EF71E080E090E00E9418300E946B
:1055D0002A348823B9F084E695E00E94C61F64EF60
:1055E00071E080E090E00E94183084E695E00E942F
:1055F000CB1F64EF71E080E090E00E94183084E6F9
:1056000095E016C086E695E00E94C61F64EF71E043
:1056100080E090E00E94183086E695E00E94CB1F63
:1056200064EF71E080E090E00E94183086E695E03B
:105630000E94C61F0E94EA338823B9F084E695E0F1
:105640000E94C61F64EF71E080E090E00E94183075
:1056500084E695E00E94CB1F64EF71E080E090E06B
:105660000E94183084E695E016C086E695E00E9418
:10567000C61F64EF71E080E090E00E94183086E67B
:1056800095E00E94CB1F64EF71E080E090E00E9403
:10569000183086E695E00E94C61F0E94AA33882330
:1056A000B9F084E695E00E94C61F64EF71E080E0E7
:1056B00090E00E94183084E695E00E94CB1F64EFD2
:1056C00071E080E090E00E94183084E695E016C01A
:1056D00086E695E00E94C61F64EF71E080E090E0EE
:1056E0000E94183086E695E00E94CB1F64EF71E0BF
:1056F00080E090E00E94183086E695E00E94C61F88
:105700000E946A338823B9F084E695E00E94C61FA0
:1057100064EF71E080E090E00E94183084E695E04C
:105720000E94CB1F64EF71E080E090E00E9418308F
:1057300084E695E016C086E695E00E94C61F64EFF9
:1057400071E080E090E00E94183086E695E00E94CB
:10575000CB1F64EF71E080E090E00E94183086E695
:1057600095E00E94C61F64EF71E080E090E01F9119
:105770000F910C941830CF93DF93EC0180EC9DE0F7
:105780000E947423BE01DD0F880B990BDF91CF912E
:105790000C9418300F931F9387E390E00E94AD267E
:1057A0002091F20A3091F30A4091F40A5091F50ADF
:1057B0000E949B3D1816B4F58DE499E00E94742375
:1057C00064EF71E080E090E00E94183000E010E0AB
:1057D00020EA31EC40E050E060EA71E486ED95E0CB
:1057E0000E943E3264EF71E080E090E00E94183049
:1057F0008DE499E00E94742364EF71E080E090E012
:105800000E94183000E010E028EC31E4B901A80152
:1058100086ED95E00E943E3268EE73E080E090E015
:105820000E94183080E01F910F9108950E94023469
:10583000882361F00E94EA33882341F00E94AA3352
:10584000882321F00E946A33811102C00C94CA2B74
:1058500081E008950E942A34882361F00E94EA338F
:10586000882341F00E94AA33882321F00E9442330A
:10587000811102C00C94CA2B81E008950F931F93ED
:1058800000E010E028EC31EC40E050E0BA0186ED99
:1058900095E00E943E321F910F9108950E940234BC
:1058A000882361F00E94C233882341F00E94823332
:1058B000882321F00E944233811102C00C94CA2B2C
:1058C00081E008950F931F938091C10D811108C04D
:1058D0008091C30D811108C08091C20D81110DC04E
:1058E0001F910F910C942A3300E010E020E232EC7B
:1058F00040E050E060E272E408C000E010E020E226
:1059000032E440E050E060E272EC86ED95E00E9407
:105910003E3269E170E080E090E00E94183080EC57
:105920009DE01F910F910C9474230E942A348823C8
:1059300061F00E94EA33882341F00E948233882379
:1059400021F00E944233811102C00C94CA2B81E0E5
:1059500008950E940234882361F00E94C233882394
:1059600041F00E94AA33882321F00E946A338111FA
:1059700002C00C94CA2B81E00895CF93DF930E945C
:10598000E626EC010E940B288C0F9D1FDF91CF9122
:1059900008952FB7F8948091741B9091751BA09176
:1059A000761BB091771B2FBF8093550390935603BE
:1059B000A0935703B09358038DE493E00E94E1292C
:1059C00097FF26C02FB7F8948091741B9091751B98
:1059D000A091761BB091771B2FBF4091550350913A
:1059E00056036091570370915803841B950BA60BC7
:1059F000B70B409151035091520360915303709142
:105A0000540384179507A607B707B0F28FEF9FEFEF
:105A1000089590E0FC013197E231F10508F04EC0A5
:105A20008827E158FF4F8F4F0C947E3C8091800077
:105A30008F7703C0809180008F7D809380000895D0
:105A400080918000877FF9CF84B58F7702C084B5BD
:105A50008F7D84BD08958091B0008F7703C08091C1
:105A6000B0008F7D8093B0000895809190008F7773
:105A700007C0809190008F7D03C080919000877F48
:105A80008093900008958091A0008F7707C0809147
:105A9000A0008F7D03C08091A000877F8093A0002D
:105AA0000895809120018F7707C0809120018F7D1C
:105AB00003C080912001877F8093200108953FB724
:105AC000F89480917D1B90917E1BA0917F1BB091DB
:105AD000801B26B5A89B05C02F3F19F00196A11D7C
