:100000000C94680A0C94990A0C94990A0C94990A15
:100010000C94990A0C94990A0C94990A0C94990AD4
:100020000C94990A0C94990A0C94990A0C94990AC4
:100030000C94990A0C94990A0C94990A0C94990AB4
:100040000C94990A0C942B310C94990A0C94990AEB
:100050000C94990A0C94990A0C94990A0C945E32A7
:100060000C94990A0C94081F0C94DE1E0C94990AA7
:100070000C94990A0C94990A0C94990A0C94990A74
:100080000C94FD300C94990A0C94990A0C94990ADA
:100090000C94990A0C94990A0C94990A0C941221C4
:1000A0000C94990A0C94990A0C94CF300C94990AE8
:1000B0000C94990A0C94990A0C94990A0C94A13006
:1000C0000C94990A0C94990A0C94990A0C94990A24
:1000D0000C94990A0C94990A0C94990A0C94990A14
:1000E0000C94990AF41BEE1BDC175B18F6186F19B9
:1000F000021A4F1A9C1A7B171F1B331BE61B382B47
:100100003D2B422B4C2B562BCF2B602B682B702B6F
:100110007A2B842B8E2B9D2BA72BCF2BB12BBB2B7C
:10012000C52BA12EA42E932E972E9D2EDB2EA82E0E
:10013000AC2EB22EB62EBA2EC02EC42EC82EDB2E5A
:10014000CE2ED22ED62E0C94682B0C947D1D0C94A2
:10015000DC170C94071E0C940C1E0C945D1C0C9464
:100160004C2B0C94C02E0C947B170C947E1D0C947D
:10017000EE1B0C94972E0C941F1B0C943D2B0C948F
:10018000D62E0C94842B0C946B1C0C94422B0C9448
:10019000702B0C946F190C94CE2E0C94AA1D0C94F9
:1001A0004F1A0C94E61B0C9422380C94C82E0C9415
:1001B0007F1D0C949D2E0C948E1D0C945B180C943A
:1001C000021A0C9444220C94A21D0C949D2B0C94A6
:1001D000A82E0C94B12B0C94CF2B0C94F6180C94E5
:1001E000101C0C94A72B0C943A1C0C948E2B0C9482
:1001F000562B0C94981E0C949C1A0C94A42E0C94C0
:10020000C52B0C94D22E0C94BB2B0C94DB2E0C948F
:10021000C42E0C94D71D0C94AC2E0C94932E0C94DD
:10022000A12E0C94BA2E0C94F41B0C94602B0C94FD
:10023000491C0C94F01C0C94B62E0C94331B0C949B
:10024000A31C0C94B22E0C947A2B0C94382B2C20DB
:10025000002C2000202020436F72204469726569C1
:10026000746F3A2020002C20002C2000436F722055
:10027000457371756572646F3A20002C20002C2044
:1002800000202020436F72204469726569746F3AC0
:100290002020002C20002C2000436F722045737119
:1002A000756572646F3A2000202044697265697434
:1002B0006F3A20002020457371756572646F3A2093
:1002C0000056616C6F7220646F2073656E736F727D
:1002D0002066726F6E74616C3A20003B20003B20F8
:1002E000003B200053656E736F7265732072656604
:1002F0006C6574616E6369613A202B6573713B2094
:100300006573713B206469723B202B646972200025
:100310000A4F70C3A7C3A36F20496E76616C6964EE
:10032000612C2074656E7465206E6F76616D656EEC
:100330007465210028446967697465202D31207037
:10034000617261207465726D696E6172206F204CFC
:10035000696D70657A61290A000A456E7472616E72
:10036000646F20656D204C6F6F702070617261202A
:100370006769726172206F206D6F746F72204469BB
:10038000726569746F2E2E2E002844696769746542
:1003900020312070617261206C696D706172206F14
:1003A000206D6F746F72204469726569746F290AD9
:1003B000000A456E7472616E646F20656D204C6F2B
:1003C0006F702070617261206769726172206F20A6
:1003D0006D6F746F7220457371756572646F2E2E28
:1003E0002E204C656D6272652D7365206465206CEE
:1003F00069676172206F20537769746368000A2807
:10040000446967697465202D3120706172612076BE
:100410006F6C74617220616F206D656E75290000CC
:1004200028446967697465202D31207061726120EC
:100430007361697220646120526570657469C3A735
:10044000C3A36F290A000A456E7472616E646F203F
:10045000656D204C6F6F70207061726120766572DF
:1004600020746F646F73206F73206461646F7320F6
:10047000646F2073656E736F7220494D552E2E2E5A
:100480000028446967697465202D312070617261AC
:10049000207361697220646120526570657469C35C
:1004A000A7C3A36F290A000A456E7472616E646F58
:1004B00020656D204C6F6F702070617261207665D1
:1004C00072206F204769726F7363C3B470696F20C5
:1004D000646F2073656E736F7220494D552E2E2EFA
:1004E0000028446967697465202D3120706172614C
:1004F000207361697220646120526570657469C3FC
:10050000A7C3A36F290A000A456E7472616E646FF7
:1005100020656D204C6F6F70207061726120766570
:1005200072206F204163656C6572C3B46D6574722F
:100530006F20646F2073656E736F7220494D552E66
:100540002E2E0028446967697465202D3120706162
:1005500072612073616972206461205265706574F4
:1005600069C3A7C3A36F290A000A456E7472616E3E
:10057000646F20656D204C6F6F7020706172612018
:10058000766572206F732053656E736F726573208A
:10059000646520436F72206E6120666F726D61200A
:1005A0004853562E2E2E0028446967697465202D05
:1005B0003120706172612073616972206461205220
:1005C0006570657469C3A7C3A36F290A000A456EE5
:1005D0007472616E646F20656D204C6F6F70207057
:1005E00061726120766572206F732053656E736F40
:1005F0007265732064652044697374616E63696118
:100600002E2E2E0028446967697465202D312070D4
:100610006172612073616972206461205265706546
:100620007469C3A7C3A36F290A000A456E74726177
:100630006E646F20656D204C6F6F70207061726109
:1006400020766572206F732053656E736F726573C9
:10065000206465205265666C6574616E6369612E05
:100660002E2E002E2E2E00566F63C3AA20646967BB
:1006700069746F753A2000446967697465202D318B
:100680002070617261207361697220646F204D6512
:100690006E752053657269616C00202031312D2008
:1006A0005465737461722056657264650020203150
:1006B000302D204C696D70617220526F6461002092
:1006C00020392D205665722076616C6F726573201B
:1006D00064612063616C69627261C3A7C3A36F0028
:1006E0002020382D2043616C69627261722073652D
:1006F0006E736F7220494D55002020372D205665AE
:10070000722073656E736F7220494D552028436FB8
:100710006D706C65746F29002020362D205665722F
:100720002073656E736F7220494D5520284769729A
:100730006F7363C3B470696F29002020352D205674
:1007400065722073656E736F7220494D5520284184
:1007500063656C6572C3B46D6574726F2900202087
:10076000342D205665722073656E736F7265732029
:10077000646520436F7220485356002020332D209B
:100780005665722073656E736F72657320646520A1
:10079000436F7220524742002020322D205665724E
:1007A0002073656E736F726573206465204469738E
:1007B00074616E636961002020312D2056657220BE
:1007C00073656E736F726573206465205265666C25
:1007D0006574616E636961000A4F207175652064FC
:1007E0006573656A612046617A657220636F6D206A
:1007F0006F2073657520526F62C3B43F202844692F
:1008000067697465206F206EC3BA6D65726F20656D
:1008100071756976616C656E74652061206F70C357
:10082000A7C3A36F29002D2D2D2D2D2D2D2D2D2D61
:100830002D2D2D2D2D2D2D2D2D2D004D656E752041
:1008400053657269616C20496E69636961646F0008
:100850000A2D2D2D2D2D2D2D2D2D2D2D2D2D2D2DEB
:100860002D2D2D2D2D000A20204461646F7320470B
:100870007561726461646F73206E612045455052EA
:100880004F4D00202020202020563A2000202056C6
:100890003A20002020202020202020533A20002031
:1008A00020533A2000202020202020483A200020F9
:1008B00020483A200020206573712020202020202D
:1008C000202020202020646972202020000A20207F
:1008D00056616C6F7265732043616C63756C616403
:1008E0006F7320646F732073656E736F726573200E
:1008F000646520436F723A200020202000202020D1
:100900000020202000202020002020202B65737153
:10091000202020206573712020202020646972200F
:10092000202020202B646972000A202056616C6F01
:100930007265732043616C63756C61646F732064CE
:100940006F732073656E736F7265732064652072B8
:1009500065666C6574C3A26E6369613A20002020ED
:10096000563A20002020533A20002020483A200008
:100970000A202056616C6F72657320646F20566583
:100980007264652043617074757261646F73206472
:100990006F2053656E736F7220646520436F722001
:1009A0004469726569746F3A200020207C20202001
:1009B00020436F6E636C7569646F202020207C007B
:1009C0007C002D0020207C2D2D2D2D2D2D2D000A7D
:1009D00020207C20436F6C6574616E646F204461DD
:1009E000646F73207C002020563A20002020533A68
:1009F00020002020483A20000A202056616C6F72A7
:100A0000657320646F20566572646520436170745D
:100A1000757261646F7320646F2053656E736F72BB
:100A200020646520436F7220457371756572646F31
:100A30003A200020207C20202020436F6E636C75BC
:100A400069646F202020207C007C002D0020207C09
:100A50002D2D2D2D2D2D2D000A20207C20436F6C57
:100A60006574616E646F204461646F73207C002044
:100A70002020202020563A20002020563A20002016
:100A800020202020202020533A20002020533A20EC
:100A900000202020202020483A20002020483A2012
:100AA000002020657371202020202020202020207D
:100AB0002020646972202020000A202056616C6F7B
:100AC000726573204272616E636F7320436170744C
:100AD000757261646F7320646F732053656E736FFA
:100AE00072657320646520436F723A2000202020D5
:100AF00000202020002020200020200020202B6526
:100B000073712020202065737120202020206469CB
:100B10007220202020202B646972000A2020566158
:100B20006C6F726573204272616E636F73204361F4
:100B30007074757261646F7320646F732053656E97
:100B4000736F726573206465205265666C6574C34B
:100B5000A26E6369613A200020207C20202020437F
:100B60006F6E636C7569646F202020207C007C00B0
:100B70002D0020207C2D2D2D2D2D2D2D000A202007
:100B80007C20436F6C6574616E646F204461646F98
:100B900073207C00202020202020563A2000202096
:100BA000563A20002020202020202020533A2000E8
:100BB0002020533A2000202020202020483A2000E6
:100BC0002020483A2000202065737120202020201A
:100BD00020202020202020646972202020000A206C
:100BE0002056616C6F72657320507265746F73204C
:100BF00043617074757261646F7320646F73205306
:100C0000656E736F72657320646520436F723A205E
:100C10000020207C20202020436F6E636C75696467
:100C20006F202020207C007C002D0020207C2D2D9A
:100C30002D2D2D2D2D000A20207C20436F6C6574F6
:100C4000616E646F204461646F73207C00202020FB
:100C500000202020002020200020200020202B65C4
:100C6000737120202020657371202020202064696A
:100C70007220202020202B646972000A20205661F7
:100C80006C6F72657320507265746F73204361706E
:100C900074757261646F7320646F732053656E7333
:100CA0006F726573206465205265666C6574C3A2BB
:100CB0006E6369613A200020207C20202020436F51
:100CC0006E636C7569646F202020207C007C002D91
:100CD0000020207C2D2D2D2D2D2D2D000A20207C57
:100CE00020436F6C6574616E646F204461646F7340
:100CF000207C000A43414C49425241C387C3834F81
:100D00002046494E414C495A4144412121000A5252
:100D100065616C697A616E646F20C39A6C74696DE9
:100D200061732041C3A7C3B565732E2E2E00507288
:100D3000657373696F6E65206F20426F74C3A36F14
:100D40002033207061726120436F6E74696E75612B
:100D50007221000A506172746520353A20436F6C2D
:100D6000657461722076616C6F72657320646F20A8
:100D700056657264652070617261206F2053656EE4
:100D8000736F7220646520436F72204469726569D5
:100D9000746F005072657373696F6E65206F2042C7
:100DA0006F74C3A36F2033207061726120436F6D35
:100DB00065C3A7617221000A506172746520343ADC
:100DC00020436F6C657461722076616C6F7265731D
:100DD00020646F2056657264652070617261206FB7
:100DE0002053656E736F7220646520436F722045D7
:100DF0007371756572646F005072657373696F6E9D
:100E000065206F20426F74C3A36F2032207061721F
:100E10006120436F6D65C3A7617221000A50617242
:100E2000746520333A20436F6C657461722076617B
:100E30006C6F72657320646F204272616E636F2005
:100E400070617261206F732053656E736F7265738A
:100E5000206465205265666C6574C3A26E63696127
:100E6000206520436F72005072657373696F6E6501
:100E7000206F20426F74C3A36F20312070617261B4
:100E800020436F6E74696E75617221000A50617241
:100E9000746520323A20436F6C657461722076610C
:100EA0006C6F72657320646F20507265746F207070
:100EB000617261206F732053656E736F726573206A
:100EC000646520436F720050726563696F6E6520C0
:100ED0006F20426F74C3A36F203120706172612054
:100EE000436F6D65C3A76172210050617274652004
:100EF000313A20436F6C657461722076616C6F7259
:100F0000657320646F20507265746F207061726128
:100F1000206F732053656E736F7265732064652054
:100F20005265666C6574C3A26E636961002D2D2DD8
:100F30002D2D2D2D2D2D2D2D2D2D2D2D2D2D2D2DE1
:100F40000A0043616C69627261C3A7C3A36F204941
:100F50006E696369616461000A2D2D2D2D2D2D2D83
:100F60002D2D2D2D2D2D2D2D2D2D2D2D00202042E3
:100F70006F74C3A36F20332053656C6563696F6E14
:100F800061646F3A20496E6963696172204D656ED4
:100F9000752053657269616C002020426F74C3A391
:100FA0006F20322053656C6563696F6E61646F3AC0
:100FB00020496E69636961722043616C6962726184
:100FC00067656D21002D2D2D2D2D2D2D2D2D2D2DD8
:100FD0002D2D2D2D2D2D2D2D2D2D2D2D2D2D2D2D41
:100FE0002D0A0045737472617465676961204578E4
:100FF00065637574617220496E69636961646F210C
:10100000000A2D2D2D2D2D2D2D2D2D2D2D2D2D2D60
:101010002D2D2D2D2D2D2D2D2D2D2D2D2D2D00203A
:1010200020426F74C3A36F20312053656C656369E0
:101030006F6E61646F3A20496E6963696172204323
:101040006F6D70657469C3A7C3A36F21004361739B
:101050006F206573636F6C686120496E69636961B5
:101060007220436F6D70657469C3A7C3A36F2C2092
:101070006F73206461646F732064612063616C69C5
:10108000627261C3A7C3A36F20736572C3A36F208D
:1010900070656761646F7320646120454550524FED
:1010A0004D2028C39A6C74696D612043616C69623C
:1010B0007261C3A7C3A36F204665697461290020CC
:1010C00020426F74C3A36F20333A20496E6963696D
:1010D0006172204D656E752053657269616C0020E8
:1010E00020426F74C3A36F20323A20496E6963694E
:1010F00061722043616C69627261646F72002020CA
:10110000426F74C3A36F20313A20496E69636961ED
:101110007220436F6D70657469C3A7C3A36F0056D7
:101120006F63C3AA2064657665206573636F6C681E
:101130006572206F2071756520646573656A612032
:1011400066617A657220636F6D206F7320626F74C1
:10115000C3B56573002D2D2D2D2D2D2D2D2D2D2D50
:101160002D2D2D2D2D2D2D2D2D0A004D656E75202B
:10117000426F74C3B5657320496E69636961646FBA
:10118000000A2D2D2D2D2D2D2D2D2D2D2D2D2D2DDF
:101190002D2D2D2D2D2D00202020202020563A20D1
:1011A000002020563A2000202020202020202053FC
:1011B0003A20002020533A200020202020202048E0
:1011C0003A20002020483A2000202065737120201A
:1011D0002020202020202020202064697220202030
:1011E000000A202053656E736F726573206465205A
:1011F000436F7220284272616E636F293A2000208B
:101200002020202020563A20002020563A2000207E
:1012100020202020202020533A20002020533A2054
:1012200000202020202020483A20002020483A207A
:1012300000202065737120202020202020202020E5
:101240002020646972202020000A202053656E73DC
:101250006F72657320646520436F72202856657233
:101260006465293A2000202020202020563A2000C2
:101270002020563A20002020202020202020533AF1
:1012800020002020533A2000202020202020483A0F
:1012900020002020483A2000202065737120202063
:1012A000202020202020202020646972202020007F
:1012B0000A202053656E736F726573206465204346
:1012C0006F722028507265746F293A200020202008
:1012D000202020002020202020200020202020204E
:1012E000200020200020202B657371202020206505
:1012F0007371202020202064697220202020202B60
:1013000064697200202053656E736F726573206488
:1013100065205265666C6574C3A26E6369613A00AC
:101320002D2D2D2D2D2D2D2D2D2D2D2D2D2D2D2DED
:101330002D2D2D2D2D2D2D2D2D2D2D2D2D2D2D2DDD
:101340002D2D2D004461646F7320646120C39A6C5D
:1013500074696D612043616C69627261C3A7C3A344
:101360006F2028454550524F4D29002D2D2D2D2DF4
:101370002D2D2D2D2D2D2D2D2D2D2D2D2D2D2D2D9D
:101380002D2D2D2D2D2D2D2D2D2D2D2D2D2D005691
:101390006F6C74616E646F2070617261204D656E58
:1013A0007520426F74C3B565732E2E2E0000000A9F
:1013B0000B02090C0D0E08070304010000000000D9
:1013C000000000000000000000000000000000001D
:1013D00000000000000000000012111000000000DA
:1013E00000000000000000000000000000000000FD
:1013F00000000000002100240027002A002D0030FA
:1014000000330001010000040107010A010000226D
:1014100000250028002B002E0031003400020100BE
:1014200000050108010B010000200023002600290F
:10143000002C002F0032000001000003010601090A
:101440000105050505070508080808020202020A49
:101450000A08080404040401010101010101010357
:1014600003030303030303040707070C0C0C0C0C12
:101470000C0C0C0202020206060606060606060B05
:101480000B0B0B0B0B0B0B0102102020080810207C
:101490004010204080020102010804020101020400
:1014A00008102040808040201008040201800402BF
:1014B0000180402010080402010804020101020416
:1014C00008102040800102040810204080002238CB
:1014D00011241FBECFEFD1E2DEBFCDBF00E00CBFB5
:1014E00012E0A0E0B2E0E4EAF9E700E00BBF02C0DE
:1014F00007900D92A43FB107D9F72BE1A4EFB2E01A
:1015000001C01D92A23FB207E1F71AE0C8E6DAE097
:1015100000E006C021970109802FFE010E94A43B34
:10152000C736D10780E00807A9F70E94BB340C94A6
:10153000D03C0C940000CF92DF92EF92FF920F9379
:101540001F93CF93DF93CDB7DEB7C457D1090FB642
:10155000F894DEBF0FBECDBF81E891E10E947C29E7
:101560008BE691E10E947C2985E591E10E947C292E
:101570008FE191E10E947C298EEF90E10E947C290D
:101580008FED90E10E947C298FEB90E10E947C29F5
:101590008DE490E10E947C298DED9EE00E94452221
:1015A0006BE470E081E090E00E94393410E01111AA
:1015B0000C94001C82EA96E00E94DE268823F9F053
:1015C0008DED9EE00E94452288EF94E00E940D215F
:1015D0008FE190E10E947C2968EE73E080E090E06A
:1015E0000E94953181E090E10E947C2983EE9FE08A
:1015F0000E947C2985EC9FE00E947C2911E084EA0E
:1016000096E00E94DE26882311F40C944E1789E997
:101610009FE00E947C298DED9EE00E9445228AEF8A
:1016200094E00E940D2168EE73E080E090E00E945B
:10163000953164E670E083E090E00E94393488E5FB
:101640009FE00E947C2982E49FE00E947C298DE239
:101650009FE00E947C298AEE9EE00E947C2987EC14
:101660009EE00E947C2980E99AE10E94DE26882380
:10167000D1F386EC9DE00E94452288EF94E00E9421
:101680000D218CED9CE00E947C2981ED9CE00E9464
:101690005E290AE010E0C0903F0ED090400EE0902E
:1016A000410EF090420E86E390E00E94EF279B01EE
:1016B000AC01C701B6010E94AD3B60933F0E709331
:1016C000400E8093410E9093420EC090430ED090F6
:1016D000440EE090450EF090460E87E390E00E94A5
:1016E000EF279B01AC01C701B6010E94AD3B60939F
:1016F000430E7093440E8093450E9093460EC09017
:10170000470ED090480EE090490EF0904A0E88E3C4
:1017100090E00E94EF279B01AC01C701B6010E9437
:10172000AD3B6093470E7093480E8093490E9093A3
:101730004A0EC0904B0ED0904C0EE0904D0EF090A3
:101740004E0E89E390E00E94EF279B01AC01C70198
:10175000B6010E94AD3B60934B0E70934C0E80938C
:101760004D0E90934E0E68EC70E080E090E00E9489
:1017700095318FEC9CE00E945E290150110909F01F
:101780008ACF8DEC9CE00E947C2987EB9CE00E9434
:101790007C2920E030E040E251E460913F0E7091FE
:1017A000400E8091410E9091420E0E94193C609330
:1017B0003F0E7093400E8093410E9093420E20E0B6
:1017C00030E040E251E46091430E7091440E80910C
:1017D000450E9091460E0E94193C6093430E709303
:1017E000440E8093450E9093460E20E030E040E298
:1017F00051E46091470E7091480E8091490E90918E
:101800004A0E0E94193C6093470E7093480E8093D5
:10181000490E90934A0E20E030E040E251E460919E
:101820004B0E70914C0E80914D0E90914E0E0E9479
:10183000193C60934B0E70934C0E80934D0E909319
:101840004E0E81E090E00E9488298BE79CE00E9488
:101850007C298CE59CE00E947C2989E59CE00E9423
:101860005E2960913F0E7091400E8091410E9091E3
:10187000420E0E94792985E59CE00E945E296091D4
:10188000430E7091440E8091450E9091460E0E9439
:10189000792981E59CE00E945E296091470E709154
:1018A000480E8091490E90914A0E0E9479298DE44C
:1018B0009CE00E945E2960914B0E70914C0E8091CD
:1018C0004D0E90914E0E0E9451298CE89EE00E9490
:1018D0007C2987E69EE00E947C2980E99AE10E94AB
:1018E000DE268823D1F388EF94E00E94082168EC7B
:1018F00070E080E090E00E94953188EF94E00E94D3
:101900000D2186E39CE00E947C298BE29CE00E94F2
:101910005E2960E37AE1CE0187599F4F0E94FA2940
:101920008CE0FE01E759FF4FAFE5BEE001900D925C
:101930008A95E1F760E37AE1CE0187599F4F0E94D3
:10194000E8298CE0FE01E759FF4FABE6BEE00190CD
:101950000D928A95E1F780915F0E9091600EA091B3
:10196000610EB091620E8093950E9093960EA093A7
:10197000970EB093980E80916B0E90916C0EA09183
:101980006D0EB0916E0E8093A10E9093A20EA09357
:10199000A30EB093A40E8091630E9091640EA0915B
:1019A000650EB091660E8093990E90939A0EA09357
:1019B0009B0EB0939C0E80916F0E9091700EA09133
:1019C000710EB091720E8093A50E9093A60EA09307
:1019D000A70EB093A80E8091670E9091680EA0910B
:1019E000690EB0916A0E80939D0E90939E0EA09307
:1019F0009F0EB093A00E8091730E9091740EA091E3
:101A0000750EB091760E8093A90E9093AA0EA093B6
:101A1000AB0EB093AC0E0AE010E060E37AE1CE01C9
:101A200087599F4F0E94FA298CE0FE01E759FF4F2A
:101A3000AFE5BEE001900D928A95E1F760E37AE1AF
:101A4000CE0187599F4F0E94E8298CE0FE01E7599B
:101A5000FF4FABE6BEE001900D928A95E1F7209131
:101A60005F0E3091600E4091610E5091620E609158
:101A7000950E7091960E8091970E9091980E0E94FF
:101A8000AD3B20E030E040E05FE30E94943A609399
:101A9000950E7093960E8093970E9093980E2091CA
:101AA0006B0E30916C0E40916D0E50916E0E6091E8
:101AB000A10E7091A20E8091A30E9091A40E0E948F
:101AC000AD3B20E030E040E05FE30E94943A609359
:101AD000A10E7093A20E8093A30E9093A40E20915A
:101AE000630E3091640E4091650E5091660E6091C8
:101AF000990E70919A0E80919B0E90919C0E0E946F
:101B0000AD3B20E030E040E05FE30E94943A609318
:101B1000990E70939A0E80939B0E90939C0E209139
:101B20006F0E3091700E4091710E5091720E609157
:101B3000A50E7091A60E8091A70E9091A80E0E94FE
:101B4000AD3B20E030E040E05FE30E94943A6093D8
:101B5000A50E7093A60E8093A70E9093A80E2091C9
:101B6000670E3091680E4091690E50916A0E609137
:101B70009D0E70919E0E80919F0E9091A00E0E94DE
:101B8000AD3B20E030E040E05FE30E94943A609398
:101B90009D0E70939E0E80939F0E9093A00E2091A9
:101BA000730E3091740E4091750E5091760E6091C7
:101BB000A90E7091AA0E8091AB0E9091AC0E0E946E
:101BC000AD3B20E030E040E05FE30E94943A609358
:101BD000A90E7093AA0E8093AB0E9093AC0E68EC96
:101BE00070E080E090E00E94953189E29CE00E94E4
:101BF0005E290150110909F010CF87E29CE00E9494
:101C00007C2981E19CE00E947C2981E090E00E9497
:101C100088298EED9BE00E947C2986EC9BE00E9447
:101C20007C2980EC9BE00E945E296091950E70916A
:101C3000960E8091970E9091980E0E94792986EBCE
:101C40009BE00E945E296091A10E7091A20E80918E
:101C5000A30E9091A40E0E94512980EB9BE00E945C
:101C60005E296091990E70919A0E80919B0E9091D1
:101C70009C0E0E94792984EA9BE00E945E29609173
:101C8000A50E7091A60E8091A70E9091A80E0E94AD
:101C900051298EE99BE00E945E2960919D0E709112
:101CA0009E0E80919F0E9091A00E0E94792984E94A
:101CB0009BE00E945E296091A90E7091AA0E80910E
:101CC000AB0E9091AC0E0E9451298CE19EE00E94D7
:101CD0007C2988EF9DE00E947C2982E99AE10E949C
:101CE000DE268823D1F38AEF94E00E940D218DE750
:101CF0009BE00E947C2982E79BE00E945E2960E3D2
:101D00007AE1CE0187599F4F0E94FA298CE0FE01AB
:101D1000E759FF4FAFE5BEE001900D928A95E1F7DC
:101D200060E37AE1CE0187599F4F0E94E8298CE059
:101D3000FE01E759FF4FABE6BEE001900D928A9598
:101D4000E1F780915F0E9091600EA091610EB091CD
:101D5000620E80937D0E90937E0EA0937F0EB093C3
:101D6000800E80916B0E90916C0EA0916D0EB091D3
:101D70006E0E8093890E90938A0EA0938B0EB09373
:101D80008C0E8091630E9091640EA091650EB091BF
:101D9000660E8093810E9093820EA093830EB09373
:101DA000840E80916F0E9091700EA091710EB09183
:101DB000720E80938D0E90938E0EA0938F0EB09323
:101DC000900E8091670E9091680EA091690EB0916F
:101DD0006A0E8093850E9093860EA093870EB09323
:101DE000880E8091730E9091740EA091750EB09133
:101DF000760E8093910E9093920EA093930EB093D3
:101E0000940E0AE010E0C0902F0ED090300EE090BB
:101E1000310EF090320E86E390E00E94EF279B0196
:101E2000AC01C701B6010E94AD3B60932F0E7093C9
:101E3000300E8093310E9093320EC090330ED090BE
:101E4000340EE090350EF090360E87E390E00E945D
:101E5000EF279B01AC01C701B6010E94AD3B609327
:101E6000330E7093340E8093350E9093360EC090DF
:101E7000370ED090380EE090390EF0903A0E88E38D
:101E800090E00E94EF279B01AC01C701B6010E94C0
:101E9000AD3B6093370E7093380E8093390E90935C
:101EA0003A0EC0903B0ED0903C0EE0903D0EF0906C
:101EB0003E0E89E390E00E94EF279B01AC01C70131
:101EC000B6010E94AD3B60933B0E70933C0E809335
:101ED0003D0E90933E0E60E37AE1CE0187599F4F0D
:101EE0000E94FA298CE0FE01E759FF4FAFE5BEE002
:101EF00001900D928A95E1F760E37AE1CE0187596E
:101F00009F4F0E94E8298CE0FE01E759FF4FABE6A6
:101F1000BEE001900D928A95E1F720915F0E30911D
:101F2000600E4091610E5091620E60917D0E709135
:101F30007E0E80917F0E9091800E0E94AD3B20E03E
:101F400030E040E05FE30E94943A60937D0E70932E
:101F50007E0E80937F0E9093800E20916B0E3091B9
:101F60006C0E40916D0E50916E0E6091890E7091C5
:101F70008A0E80918B0E90918C0E0E94AD3B20E0DA
:101F800030E040E05FE30E94943A6093890E7093E2
:101F90008A0E80938B0E90938C0E2091630E30915D
:101FA000640E4091650E5091660E6091810E7091A5
:101FB000820E8091830E9091840E0E94AD3B20E0B2
:101FC00030E040E05FE30E94943A6093810E7093AA
:101FD000820E8093830E9093840E20916F0E309129
:101FE000700E4091710E5091720E60918D0E709135
:101FF0008E0E80918F0E9091900E0E94AD3B20E04E
:1020000030E040E05FE30E94943A60938D0E70935D
:102010008E0E80938F0E9093900E2091670E3091CC
:10202000680E4091690E50916A0E6091850E709114
:10203000860E8091870E9091880E0E94AD3B20E025
:1020400030E040E05FE30E94943A6093850E709325
:10205000860E8093870E9093880E2091730E309198
:10206000740E4091750E5091760E6091910E7091A4
:10207000920E8091930E9091940E0E94AD3B20E0C1
:1020800030E040E05FE30E94943A6093910E7093D9
:10209000920E8093930E9093940E68EC70E080E023
:1020A00090E00E94953180E79BE00E945E290150FC
:1020B000110909F0A8CE8EE69BE00E947C2988E5F4
:1020C0009BE00E947C2920E030E040E251E46091F6
:1020D0002F0E7091300E8091310E9091320E0E9431
:1020E000193C60932F0E7093300E8093310E9093B5
:1020F000320E20E030E040E251E46091330E709106
:10210000340E8091350E9091360E0E94193C6093EA
:10211000330E7093340E8093350E9093360E20E07C
:1021200030E040E251E46091370E7091380E8091BA
:10213000390E90913A0E0E94193C6093370E7093BD
:10214000380E8093390E90933A0E20E030E040E252
:1021500051E460913B0E70913C0E80913D0E909148
:102160003E0E0E94193C60933B0E70933C0E809390
:102170003D0E90933E0E82E090E00E9488298BE114
:102180009BE00E947C298CEF9AE00E947C2989EFD9
:102190009AE00E945E2960912F0E7091300E80911E
:1021A000310E9091320E0E94792985EF9AE00E94BB
:1021B0005E296091330E7091340E8091350E9091AE
:1021C000360E0E94792981EF9AE00E945E29609183
:1021D000370E7091380E8091390E90913A0E0E9410
:1021E00079298DEE9AE00E945E2960913B0E7091F4
:1021F0003C0E80913D0E90913E0E0E94512989EB3C
:102200009AE00E947C2981EA9AE00E947C298BE96D
:102210009AE00E945E2960917D0E70917E0E809101
:102220007F0E9091800E0E94792981E99AE00E94A8
:102230005E296091890E70918A0E80918B0E90912B
:102240008C0E0E9451298BE89AE00E945E296091D1
:10225000810E7091820E8091830E9091840E0E9467
:1022600079298FE79AE00E945E2960918D0E709126
:102270008E0E80918F0E9091900E0E94512989E7C9
:102280009AE00E945E296091850E7091860E809181
:10229000870E9091880E0E9479298FE69AE00E941D
:1022A0005E296091910E7091920E8091930E9091A3
:1022B000940E0E94512987EB9DE00E947C2983E9BE
:1022C0009DE00E947C2984E99AE10E94DE26882311
:1022D000D1F38CEF94E00E940D2188E59AE00E94F2
:1022E0007C298DE49AE00E945E2960E37AE1CE01C8
:1022F00087599F4F0E94FA298CE0FE01E759FF4F52
:10230000AFE5BEE001900D928A95E1F780915F0EF6
:102310009091600EA091610EB091620E8093AD0E0F
:102320009093AE0EA093AF0EB093B00E8091630E5B
:102330009091640EA091650EB091660E8093B10EDF
:102340009093B20EA093B30EB093B40E8091670E2B
:102350009091680EA091690EB0916A0E8093B50EAF
:102360009093B60EA093B70EB093B80E80E39AE1A7
:102370000E940F2A2093C50E3093C60E4093C70EBD
:102380005093C80E6093C90E7093CA0E80E39AE111
:102390000E940F2A2093D10E3093D20E4093D30E79
:1023A0005093D40E6093D50E7093D60E0AE010E0D1
:1023B00060E37AE1CE0187599F4F0E94FA298CE0B1
:1023C000FE01E759FF4FAFE5BEE001900D928A95FF
:1023D000E1F720915F0E3091600E4091610E5091B7
:1023E000620E6091AD0E7091AE0E8091AF0E909125
:1023F000B00E0E94AD3B20E030E040E05FE30E9481
:10240000943A6093AD0E7093AE0E8093AF0E90939E
:10241000B00E2091630E3091640E4091650E509184
:10242000660E6091B10E7091B20E8091B30E9091D4
:10243000B40E0E94AD3B20E030E040E05FE30E943C
:10244000943A6093B10E7093B20E8093B30E909352
:10245000B40E2091670E3091680E4091690E509134
:102460006A0E6091B50E7091B60E8091B70E909184
:10247000B80E0E94AD3B20E030E040E05FE30E94F8
:10248000943A6093B50E7093B60E8093B70E909306
:10249000B80E80E39AE10E940F2A2093770E3093C2
:1024A000780E4093790E50937A0E60937B0E709362
:1024B0007C0E4091790E50917A0E8091C70E9091CA
:1024C000C80E8417950724F45093C80E4093C70E86
:1024D0002091770E3091780E8091C50E9091C60EA6
:1024E0008217930724F43093C60E2093C50E809173
:1024F0007B0E90917C0E6091C90E7091CA0E681788
:10250000790724F49093CA0E8093C90E6091D30E7C
:102510007091D40E4617570724F45093D40E40936D
:10252000D30E4091D10E5091D20E2417350724F4CA
:102530003093D20E2093D10E2091D50E3091D60E2D
:102540008217930724F49093D60E8093D50E68ECEF
:1025500070E080E090E00E9495318BE49AE00E9468
:102560005E290150110909F023CF89E49AE00E9405
:102570007C2983E39AE00E947C2983E090E00E941A
:10258000882988EF99E00E947C2982EF99E00E94D7
:102590005E296091AD0E7091AE0E8091AF0E90915C
:1025A000B00E0E9451298CEE99E00E945E29609144
:1025B000B10E7091B20E8091B30E9091B40E0E9444
:1025C000512986EE99E00E945E296091B50E7091C6
:1025D000B60E8091B70E9091B80E0E94512983E5F6
:1025E0009DE00E947C298EE29DE00E947C2984E986
:1025F0009AE10E94DE268823D1F38CEF94E00E94BA
:10260000082168EC70E080E090E00E9495318CEF4A
:1026100094E00E940D218FEC99E00E947C2984ECCB
:1026200099E00E945E2960E37AE1CE0187599F4FCD
:102630000E94E8298CE0FE01E759FF4FABE6BEE0BF
:1026400001900D928A95E1F780916B0E90916C0E3E
:10265000A0916D0EB0916E0E8093B90E9093BA0E4C
:10266000A093BB0EB093BC0E80916F0E9091700E34
:10267000A091710EB091720E8093BD0E9093BE0E1C
:10268000A093BF0EB093C00E8091730E9091740E04
:10269000A091750EB091760E8093C10E9093C20EEC
:1026A000A093C30EB093C40E80E39AE10E944D2A1A
:1026B0002093CB0E3093CC0E4093CD0E5093CE0E84
:1026C0006093CF0E7093D00E80E39AE10E944D2A62
:1026D0002093D70E3093D80E4093D90E5093DA0E34
:1026E0006093DB0E7093DC0E0AE010E060E37AE1A9
:1026F000CE0187599F4F0E94E8298CE0FE01E759DF
:10270000FF4FABE6BEE001900D928A95E1F7209174
:102710006B0E30916C0E40916D0E50916E0E60916B
:10272000B90E7091BA0E8091BB0E9091BC0E0E94B2
:10273000AD3B20E030E040E05FE30E94943A6093DC
:10274000B90E7093BA0E8093BB0E9093BC0E20917D
:102750006F0E3091700E4091710E5091720E60911B
:10276000BD0E7091BE0E8091BF0E9091C00E0E9462
:10277000AD3B20E030E040E05FE30E94943A60939C
:10278000BD0E7093BE0E8093BF0E9093C00E20912D
:10279000730E3091740E4091750E5091760E6091CB
:1027A000C10E7091C20E8091C30E9091C40E0E9412
:1027B000AD3B20E030E040E05FE30E94943A60935C
:1027C000C10E7093C20E8093C30E9093C40E80E32B
:1027D0009AE10E944D2A2093770E3093780E409311
:1027E000790E50937A0E60937B0E70937C0E40911D
:1027F000790E50917A0E8091CD0E9091CE0E841765
:10280000950724F45093CE0E4093CD0E2091770E71
:102810003091780E8091CB0E9091CC0E8217930759
:1028200024F43093CC0E2093CB0E80917B0E9091AC
:102830007C0E6091CF0E7091D00E6817790724F44A
:102840009093D00E8093CF0E6091D90E7091DA0ED6
:102850004617570724F45093DA0E4093D90E40914F
:10286000D70E5091D80E2417350724F43093D80E84
:102870002093D70E2091DB0E3091DC0E8217930748
:1028800024F49093DC0E8093DB0E68EC70E080E023
:1028900090E00E94953182EC99E00E945E290150FF
:1028A000110909F023CF80EC99E00E947C298AEA83
:1028B00099E00E947C2983E090E00E94882980E7CB
:1028C00099E00E947C298AE699E00E945E29609145
:1028D000B90E7091BA0E8091BB0E9091BC0E0E9401
:1028E000512984E699E00E945E296091BD0E7091A5
:1028F000BE0E8091BF0E9091C00E0E9451298EE5B0
:1029000099E00E945E296091C10E7091C20E809183
:10291000C30E9091C40E0E9451298EE09DE00E944A
:102920007C2968EE73E080E090E00E949531209170
:102930002F0E3091300E4091310E5091320E609139
:102940003F0E7091400E8091410E9091420E0E9478
:10295000AD3B20E030E040E05FE30E94943A6093BA
:102960005B0E70935C0E80935D0E90935E0E2091D3
:10297000330E3091340E4091350E5091360E6091E9
:10298000430E7091440E8091450E9091460E0E9428
:10299000AD3B20E030E040E05FE30E94943A60937A
:1029A000570E7093580E8093590E90935A0E2091A3
:1029B000370E3091380E4091390E50913A0E609199
:1029C000470E7091480E8091490E90914A0E0E94D8
:1029D000AD3B20E030E040E05FE30E94943A60933A
:1029E000530E7093540E8093550E9093560E209173
:1029F0003B0E30913C0E40913D0E50913E0E609149
:102A00004B0E70914C0E80914D0E90914E0E0E9487
:102A1000AD3B20E030E040E05FE30E94943A6093F9
:102A20004F0E7093500E8093510E9093520E89E288
:102A300099E00E947C2989E099E00E947C2985E048
:102A400099E00E945E2960915B0E70915C0E80910E
:102A50005D0E90915E0E0E94792981E099E00E94BE
:102A60005E296091570E7091580E8091590E909189
:102A70005A0E0E9479298DEF98E00E945E2960919C
:102A8000530E7091540E8091550E9091560E0E94E7
:102A9000792989EF98E00E945E2960914F0E70912C
:102AA000500E8091510E9091520E0E9451298DEC42
:102AB00098E00E947C2985EB98E00E947C298FEAAF
:102AC00098E00E945E296091950E7091960E80911B
:102AD000970E9091980E0E94792985EA98E00E94BD
:102AE0005E296091A10E7091A20E8091A30E90912B
:102AF000A40E0E9451298FE998E00E945E296091FE
:102B0000990E70919A0E80919B0E90919C0E0E944E
:102B1000792983E998E00E945E296091A50E709161
:102B2000A60E8091A70E9091A80E0E9451298DE8C3
:102B300098E00E945E2960919D0E70919E0E80919A
:102B40009F0E9091A00E0E94792983E898E00E9440
:102B50005E296091A90E7091AA0E8091AB0E9091A2
:102B6000AC0E0E94512960915B0E70915C0E8091B9
:102B70005D0E90915E0E0E948B3C70932E0E6093C2
:102B80002D0E6091570E7091580E8091590E9091B4
:102B90005A0E0E948B3C70932C0E60932B0E60910A
:102BA000530E7091540E8091550E9091560E0E94C6
:102BB0008B3C7093280E6093270E60914F0E70919E
:102BC000500E8091510E9091520E0E948B3C70934A
:102BD0002A0E6093290E8091950E9091960EA091E9
:102BE000970EB091980E8093EB0D9093EC0DA093FF
:102BF000ED0DB093EE0D8091990E90919A0EA091EB
:102C00009B0EB0919C0E8093EF0D9093F00DA093CE
:102C1000F10DB093F20D80919D0E90919E0EA091BA
:102C20009F0EB091A00E8093F30D9093F40DA0939E
:102C3000F50DB093F60D8091A10E9091A20EA0918A
:102C4000A30EB091A40E8093DF0D9093E00DA0939E
:102C5000E10DB093E20D8091A50E9091A60EA0918A
:102C6000A70EB091A80E8093E30D9093E40DA0936E
:102C7000E50DB093E60D8091A90E9091AA0EA0915A
:102C8000AB0EB091AC0E8093E70D9093E80DA0933E
:102C9000E90DB093EA0D80917D0E90917E0EA0918A
:102CA0007F0EB091800E8093D30D9093D40DA0939E
:102CB000D50DB093D60D8091810E9091820EA0918A
:102CC000830EB091840E8093D70D9093D80DA0936E
:102CD000D90DB093DA0D8091850E9091860EA0915A
:102CE000870EB091880E8093DB0D9093DC0DA0933E
:102CF000DD0DB093DE0D8091890E90918A0EA0912A
:102D00008B0EB0918C0E8093C70D9093C80DA0933D
:102D1000C90DB093CA0D80918D0E90918E0EA09129
:102D20008F0EB091900E8093CB0D9093CC0DA0930D
:102D3000CD0DB093CE0D8091910E9091920EA091F9
:102D4000930EB091940E8093CF0D9093D00DA093DD
:102D5000D10DB093D20D8091AD0E9091AE0EA09199
:102D6000AF0EB091B00E8093030E9093040EA0931B
:102D7000050EB093060E8091B10E9091B20EA09107
:102D8000B30EB091B40E8093070E9093080EA093EB
:102D9000090EB0930A0E8091B50E9091B60EA091D7
:102DA000B70EB091B80E80930B0E90930C0EA093BB
:102DB0000D0EB0930E0E8091B90E9091BA0EA091A7
:102DC000BB0EB091BC0E8093F70D9093F80DA093BD
:102DD000F90DB093FA0D8091BD0E9091BE0EA091A9
:102DE000BF0EB091C00E8093FB0D9093FC0DA0938D
:102DF000FD0DB093FE0D8091C10E9091C20EA09179
:102E0000C30EB091C40E8093FF0D9093000EA0935B
:102E1000010EB093020E88E6E7ECFDE0DE011196AC
:102E200001900D928A95E1F7CE0101966C01E12C9B
:102E3000F12CF60111916F01C7010E94523B181746
:102E400021F0612FC7010E945A3BFFEFEF1AFF0AE2
:102E500028E6E216F10469F786E698E00E947C29EC
:102E600087EC9DE00E948A2A83EF9CE00E947C29E7
:102E700068EC70E080E090E00E94953164E070E0E2
:102E800086EC9DE00E94512268EC70E080E090E0CA
:102E90000E94953181E08093C50DB2C486EA96E028
:102EA0000E94DE26882311F40C94D70A8DE69FE059
:102EB0000E947C298DED9EE00E9445228CEF94E0DB
:102EC0000E940D2168EE73E080E090E00E94953151
:102ED00063E070E08DED9EE00E94512280E598E075
:102EE0000E947C298BE398E00E947C2986E298E08E
:102EF0000E947C2910E0111134C088ED97E00E94F7
:102F00007C2987EB97E00E947C2988E997E00E9462
:102F10007C298BE797E00E947C298EE597E00E9450
:102F20007C298AE397E00E947C2988E197E00E944F
:102F30007C2989EF96E00E947C2980EE96E00E9431
:102F40007C298FEB96E00E947C298DEA96E00E9416
:102F50007C298AE996E00E947C2987E796E00E9416
:102F60007C298DE493E00E946B1C892BD1F30E9495
:102F7000A8326B017C01672BC9F087E696E00E94BE
:102F80005E29C6010E94A62A0E944D290D2C000C24
:102F9000EE08FF08F6013196ED30F10508F01EC489
:102FA0008827EE58FF4F8F4F0C94A43B83E696E0A2
:102FB0000E947C2911E0D5CF8AE296E00E947C290C
:102FC00084E096E00E947C290E94A8326F3F7F4FE8
:102FD0008F4F9F4F09F406C486E390E00E94EF27CD
:102FE0006093D7107093D8108093D9109093DA1013
:102FF00087E390E00E94EF276093DB107093DC1072
:103000008093DD109093DE1088E390E00E94EF271C
:103010006093DF107093E0108093E1109093E210C2
:1030200089E390E00E94EF276093E3107093E4102F
:103030008093E5109093E61084EE92E00E945E2962
:103040006091D7107091D8108091D9109091DA10BA
:103050000E94792981EE92E00E945E296091DB1046
:103060007091DC108091DD109091DE100E94792922
:103070008EED92E00E945E296091DF107091E01069
:103080008091E1109091E2100E9479298BED92E0FD
:103090000E945E296091E3107091E4108091E51028
:1030A0009091E6100E9451296AEF70E080E090E074
:1030B0000E94953189CF8DEC95E00E947C2987EAAA
:1030C00095E00E947C290E94A8326F3F7F4F8F4F6E
:1030D0009F4F09F487C38AEB95E00E943E1F0E9430
:1030E000353A2091BE053091BF054091C005509101
:1030F000C1050E94193C20E030E040E05FE30E94FF
:10310000943A6093B5137093B6138093B71390936A
:10311000B8138AEA95E00E943E1F0E94353A20913A
:10312000AE053091AF054091B0055091B1050E94B8
:10313000193C20E030E040E05FE30E94943A609365
:10314000B1137093B2138093B3139093B4138AE9BD
:1031500095E00E943E1F0E94353A20919E053091D5
:103160009F054091A0055091A1050E94193C20E0C7
:1031700030E040E05FE30E94943A6093AD137093B7
:10318000AE138093AF139093B01381EC92E00E9442
:103190005E296091AD137091AE138091AF13909141
:1031A000B0130E94792984EB92E00E945E2960911D
:1031B000B1137091B2138091B3139091B4130E9424
:1031C000792988EA92E00E945E296091B513709196
:1031D000B6138091B7139091B8130E94512964EFF0
:1031E00071E080E090E00E9495316DCF8DED9EE022
:1031F0000E94452280E392E00E943A2E8EE692E001
:103200000E943A2E0E94A8326F3F7F4F8F4F9F4FF0
:1032100009F4E8C280EB96E00E940F2A20938F11F8
:1032200030939011409391115093921160939311A8
:103230007093941180EB96E00E944D2A2093951193
:103240003093961140939711509398116093991170
:1032500070939A1189E992E00E945E298091911100
:10326000909192110E94A62A86E992E00E945E291E
:1032700080918F11909190110E94A62A83E992E08B
:103280000E945E2980919311909194110E94A62A28
:1032900081E892E00E945E298091971190919811A7
:1032A0000E94A62A8EE792E00E945E2980919511E5
:1032B000909196110E94A62A8BE792E00E945E29C7
:1032C0008091991190919A110E94A62A0E944D29ED
:1032D00064EF71E080E090E00E94953193CF8DED36
:1032E0009EE00E94452289E695E00E947C2983E4C5
:1032F00095E00E947C290E94A8326F3F7F4F8F4F3C
:103300009F4F09F46FC260EB76E0CE0187599F4F63
:103310000E94FA298CE0FE01E759FF4FABE9B1E1C9
:1033200001900D928A95E1F760EB76E0CE01875926
:103330009F4F0E94E8298CE0FE01E759FF4FA7EA62
:10334000B1E101900D928A95E1F78CE692E00E943E
:103350005E2960919B1170919C1180919D119091BB
:103360009E110E94792989E692E00E945E2960916F
:103370009F117091A0118091A1119091A2110E94B2
:10338000792986E692E00E945E296091A3117091EE
:10339000A4118091A5119091A6110E94792984E52C
:1033A00092E00E945E296091A7117091A81180910E
:1033B000A9119091AA110E94792981E592E00E94B9
:1033C0005E296091AB117091AC118091AD1190911B
:1033D000AE110E9479298EE492E00E945E296091EC
:1033E000AF117091B0118091B1119091B2110E9402
:1033F00079290E944D2964E670E080E090E00E9407
:10340000953179CF87E095E00E947C2981EE94E0A8
:103410000E947C290E94A8326F3F7F4F8F4F9F4FA1
:1034200009F4E0C184E992E00E9437340E94AA3393
:103430006091BB137091BC13072E000C880B990B85
:103440000E94353A0E9479298BE992E00E94373434
:103450000E94AA336091BD137091BE13072E000C19
:10346000880B990B0E94353A0E94792985EA92E0EF
:103470000E9437340E94AA336091BF137091C01329
:10348000072E000C880B990B0E94353A0E94512997
:103490006CE271E080E090E00E949531BBCF87EA5A
:1034A00094E00E947C2981E894E00E947C290E949B
:1034B000A8326F3F7F4F8F4F9F4F09F493C186EC27
:1034C00092E00E9437340E94AA336091C113709138
:1034D000C213072E000C880B990B0E94353A0E94EC
:1034E00079298FEA92E00E9437340E94AA336091D2
:1034F000C3137091C413072E000C880B990B0E9404
:10350000353A0E94792989EB92E00E9437340E9473
:10351000AA336091C5137091C613072E000C880B57
:10352000990B0E94353A0E9451296CE271E080E0CB
:1035300090E00E949531BBCF86E494E00E947C2904
:1035400080E294E00E947C290E94A8326F3F7F4F66
:103550008F4F9F4F09F446C184E992E00E943734AF
:103560000E94AA336091BB137091BC13072E000C0C
:10357000880B990B0E94353A0E9479298BE992E0D9
:103580000E9437340E94AA336091BD137091BE131C
:10359000072E000C880B990B0E94353A0E9479295E
:1035A00085EA92E00E9437340E94AA336091BF13EB
:1035B0007091C013072E000C880B990B0E94353AAE
:1035C0000E94792983EC92E00E9437340E94AA334A
:1035D0006091C1137091C213072E000C880B990BD8
:1035E0000E94353A0E9479298FEA92E00E9437348E
:1035F0000E94AA336091C3137091C413072E000C6C
:10360000880B990B0E94353A0E94792989EB92E048
:103610000E9437340E94AA336091C5137091C6137B
:10362000072E000C880B990B0E94353A0E945129F5
:103630006CE271E080E090E00E94953185CF8FE1EF
:1036400094E00E947C2985EC9DE00E94C0258EEFCD
:1036500093E00E947C290E94A8326F3F7F4F8F4FDA
:103660009F4FC9F7BFC081EB93E00E947C2989E896
:1036700093E00E947C2960ED77E080E090E00E947A
:1036800095310E94A83200E010E098016130710588
:103690008105910549F040E050E068E472E482E47D
:1036A00096E00E94E92BEDCFB901A80182E496E0F3
:1036B0000E94E92B89E593E00E947C2984E393E052
:1036C0000E947C2960ED77E080E090E00E949531D7
:1036D0000E94A8326F3F7F4F8F4F9F4F61F000E0F5
:1036E00010E028E432E440E050E0BA0182E496E0E1
:1036F0000E94E92BEDCF00E010E09801B901A8018C
:1037000082E496E00E94E92B6DC060EB76E0CE018A
:1037100087599F4F0E94FA298CE0FE01E759FF4F1D
:10372000ABE9B1E101900D928A95E1F7C090A31148
:10373000D090A411E090A511F090A61120916711EE
:10374000309168114091691150916A11C701B60119
:103750000E942E3A87FF4DC0209173113091741151
:103760004091751150917611C701B6010E942E3A11
:1037700087FF3FC0C0909B11D0909C11E0909D119D
:10378000F0909E1120915F11309160114091611174
:1037900050916211C701B6010E942E3A87FF29C0DD
:1037A00020916B1130916C1140916D1150916E11FF
:1037B000C701B6010E942E3A87FF1BC08CEA96E033
:1037C0000E940D218DEC92E00E943A2E0E94A832B8
:1037D0006F3F7F4F8F4F9F4F09F097CF80E193E06E
:1037E0000E947C2910E089CB0E949B0A11E00C9476
:1037F000D70A8CEA96E00E94082186ED92E0E4CF99
:10380000CC58DF4F0FB6F894DEBF0FBECDBFDF91AF
:10381000CF911F910F91FF90EF90DF90CF9008957F
:10382000CF92DF92EF92FF920F931F93CF93DF938C
:103830006C017A018B01C0E0D0E0CE15DF0581F08C
:10384000D8016D918D01D601ED91FC910190F0812F
:10385000E02DC6011995892B11F02196EECF7E013E
:10386000C701DF91CF911F910F91FF90EF90DF90F3
:10387000CF900895FC01538D448D252F30E0842F87
:1038800090E0821B930B541710F0CF960895019788
:103890000895FC01918D828D981761F0828DDF0172
:1038A000A80FB11D5D968C91928D9F5F9F73928F33
:1038B00090E008958FEF9FEF0895FC01918D828D28
:1038C000981731F0828DE80FF11D858D90E00895F5
:1038D0008FEF9FEF0895FC01918D228D892F90E04D
:1038E000805C9F4F821B91098F73992708958DE407
:1038F00093E00E946B1C21E0892B09F420E0822FC9
:103900000895FC01848DDF01A80FB11DA35ABF4F9C
:103910002C91848D90E001968F739927848FA689CE
:10392000B7892C93A089B1898C91837080648C9322
:10393000938D848D981306C00288F389E02D8081D1
:103940008F7D80830895EF92FF920F931F93CF9303
:10395000DF93EC0181E0888F9B8D8C8D981305C0DF
:10396000E889F989808185FD26C0F62E0B8D10E04F
:103970000F5F1F4F0F731127E02E8C8DE8120CC0C4
:103980000FB607FCFACFE889F989808185FFF5CF6A
:10399000CE010E94811CF1CF8B8DFE01E80FF11D3D
:1039A000E35AFF4FF0829FB7F8940B8FEA89FB89A7
:1039B000808180620AC09FB7F894EE89FF89608396
:1039C000E889F98980818370806480839FBF81E06A
:1039D00090E0DF91CF911F910F91FF90EF900895AC
:1039E000CF93DF93EC01888D8823C9F0EA89FB89A6
:1039F000808185FD05C0A889B9898C9186FD0FC09D
:103A00000FB607FCF5CF808185FFF2CFA889B98971
:103A10008C9185FFEDCFCE010E94811CE7CFDF9115
:103A2000CF91089580E090E0892B21F00E94771CCF
:103A3000811125C080E090E0892B41F080E090E08A
:103A4000892B21F00E94000081111CC080E090E0D1
:103A5000892B41F080E090E0892B21F00E9400004A
:103A6000811113C080E090E0892BA1F080E090E00C
:103A7000892B81F00E94000081110AC008950E94E4
:103A80000000D8CF0E940000E1CF0E940000EACFE2
:103A90000C940000089585ED8093BC008091BC00DB
:103AA00084FDFCCF1092F11B089540911403262F42
:103AB00030E0240F311D21323105DCF42091F11B5F
:103AC0002430C9F4FC0180E090E0861758F430916E
:103AD00014032191DC01AC50BD4FA30FB11D2C93F9
:103AE0000196F3CF80911403680F6093140380E074
:103AF000089581E0089582E0089508950895E09181
:103B0000861B8091851BE81730F4F0E0E555F44EF4
:103B1000808190E008958FEF9FEF08959091861B2C
:103B20008091851B981750F4E92FF0E0E555F44E8D
:103B3000208130E09F5F9093861B02C02FEF3FEF04
:103B4000C90108958091851B90E02091861B821BFE
:103B500091090895CF92DF92EF92FF920F931F93F6
:103B6000CF93DF937C01CB018A012091871B222315
:103B700089F0EB016B01C40ED51ECC15DD0569F093
:103B80006991D701ED91FC910190F081E02DC70181
:103B90001995F3CF642F0E94551DC801DF91CF9175
:103BA0001F910F91FF90EF90DF90CF900895CF93EA
:103BB000DF931F92CDB7DEB769832091871B222345
:103BC000D1F02091AA1B203240F021E030E0FC012E
:103BD0003383228380E090E015C08091881BE82F1A
:103BE000F0E0E757F44E998190838F5F8093881BB4
:103BF0008093AA1B05C061E0CE0101960E94551D6D
:103C000081E090E00F90DF91CF910895089580E0DA
:103C100090E008950E94CB3CCF92DF92EF92FF920A
:103C20000F931F93CF93DF93EC0187E3E82E83E09C
:103C3000F82E00E010E080914B0390914C030817A0
:103C400019075CF4F7018081F2E0EF0EF11C60E0EF
:103C50000E94AB2F0F5F1F4FEECF61E088850E945F
:103C6000AB2F64E070E080E090E00E9495310E940C
:103C7000CF316CE370E080E090E00E94953180915C
:103C8000EA03811102C00E94CF3184E10E94272FF4
:103C900086E10E94272F6C0188E10E94272F7C017A
:103CA0008AE10E94272F8C018091ED039091EE0311
:103CB000853D910519F150F4009729F1803C91055B
:103CC00041F56AE970E080E090E021C0863F91050F
:103CD00081F08F3F910541F08B3E9105D1F462E375
:103CE00070E080E090E013C063E070E080E090E07E
:103CF0000EC068E170E080E090E009C065E670E029
:103D000080E090E004C06CEB72E080E090E00E9404
:103D10009531DD82CC82FB82EA821F830E83DF91A4
:103D2000CF911F910F91FF90EF90DF90CF9008956A
:103D3000CF93DF93EC0160E088850E94AB2F60E0B9
:103D40008A850E94AB2F8C850E94822F61E00197AB
:103D500009F460E020E432E44FE050E08C850E94FA
:103D6000502F7D836C8361E08A850E94AB2F8C8508
:103D70000E94822F61E0019709F460E020E432E4C0
:103D80004FE050E08C850E94502F7F836E8361E06E
:103D900088850E94AB2F8C850E94822F61E001975D
:103DA00009F460E020E432E44FE050E08C850E94AA
:103DB000502F7B836A83DF91CF9108951F920F92DA
:103DC0000FB60F9211240BB60F922F933F934F9380
:103DD0005F936F937F938F939F93AF93BF93EF9373
:103DE000FF938DE493E00E94811CFF91EF91BF91BE
:103DF000AF919F918F917F916F915F914F913F9183
:103E00002F910F900BBE0F900FBE0F901F90189523
:103E10001F920F920FB60F9211240BB60F922F9391
:103E20008F939F93EF93FF93E0915D03F0915E0377
:103E30008081E0916303F091640382FD12C0908160
:103E4000809166038F5F8F7320916703821751F013
:103E5000E0916603F0E0E35BFC4F958F809366038F
:103E600001C08081FF91EF919F918F912F910F90D1
:103E70000BBE0F900FBE0F901F901895CF93DF933E
:103E8000EC0160E088810E94AB2F83E090E0019715
:103E9000F1F761E088810E94AB2F83E290E0019707
:103EA000F1F760E088810E94AB2F20E137E240E02B
:103EB00050E061E08A810E94502F161617061806FE
:103EC000190624F060E177E280E090E0DF91CF9185
:103ED00008952F923F924F925F926F927F928F92AE
:103EE0009F92AF92BF92CF92DF92EF92FF920F9389
:103EF0001F93CF93DF9300D01F92CDB7DEB79A8385
:103F000089838B01DB01ED91FC910190F081E02D23
:103F1000CB011995F80124803580268137813C83B7
:103F20002B83028113814101032C000CAA08BB08DA
:103F30002016310664F020173107CCF40215130562
:103F400084F0B10122153305CCF4B90117C02B81DF
:103F50003C812215330584F58B819C810817190754
:103F600044F0AB81BC812A163B0634F402C0B80190
:103F700005C060E070E002C06B817C81072E000C00
:103F8000880B990B0E94353A2B013C010215130551
:103F900044F0EB81FC810E171F072CF5201631062B
:103FA000B4F02B813C8122163306C4F4201731076C
:103FB000BCF06B817C8118C0C501B4010E94353A08
:103FC0002B013C01EB81FC810E171F0764F48B81F0
:103FD0009C818215930524F0BC0106C0B10104C088
:103FE00060E070E001C0B801072E000C880B990B4F
:103FF0000E94353A6B017C01C501B4010E94353A3B
:104000009B01AC01C701B6010E942E3A81113EC04E
:10401000C801AB81BC818A1B9B0B2CE3289FB0019C
:10402000299F700D1124072E000C880B990B0A177D
:104030001B07BCF00E94353A4B015C01A3019201C1
:10404000C701B6010E94AC3B9B01AC01C501B401A4
:104050000E94193CE981FA81608371838283938392
:104060007FC00E94353A4B015C01A3019201C70158
:10407000B6010E94AC3B9B01AC01C501B4010E949A
:10408000193C20E030E044EB53E431C0B801012E8C
:10409000000C880B990B0E94353A9B01AC01C701BB
:1040A000B6010E942E3AEB81FC8181112AC0E219EF
:1040B000F3098CE38E9FB0018F9F700D1124072EA2
:1040C000000C880B990B0E94353A4B015C01A3014F
:1040D0009201C701B6010E94AC3B9B01AC01C50136
:1040E000B4010E94193C20E030E040EF52E40E940D
:1040F000AD3BA981BA816D937D938D939C9313976A
:104100002FC0BF01FF0F880B990B0E94353A9B010E
:10411000AC01C701B6010E942E3A811121C0201ABC
:10412000310A8CE3829DB001839D700D1124072E0E
:10413000000C880B990B0E94353A4B015C01A301DE
:104140009201C701B6010E94AC3B9B01AC01C501C5
:10415000B4010E94193C20E030E040E753E4C7CFAF
:10416000A3019201C701B6010E94AC3BA7019601D1
:104170000E94193CE981FA81648375838683978361
:10418000C086D186E286F386CF010F900F900F9004
:104190000F90DF91CF911F910F91FF90EF90DF90E3
:1041A000CF90BF90AF909F908F907F906F905F90D7
:1041B0004F903F902F9008950F931F93CF93DF93CD
:1041C00000D000D0CDB7DEB78C01DC01ED91FC91C1
:1041D0000190F081E02D199586E0F8013296DE011C
:1041E000119601900D928A95E1F729813A814B81D0
:1041F0005C816D817E8180E090E026960FB6F89418
:10420000DEBF0FBECDBFDF91CF911F910F910895FB
:1042100060E0FC0180810C94AB2F61E0FC018081A7
:104220000C94AB2F1F920F920FB60F9211240BB666
:104230000F922F933F934F935F936F937F938F933F
:104240009F93AF93BF93EF93FF938091B900887FC3
:10425000803609F49CC068F5883209F45BC090F49C
:10426000803109F454C038F4882309F4F6C088304A
:1042700009F44DC0F6C0883109F44CC0803209F40D
:104280005DC0EFC0803409F468C048F4803309F49D
:1042900055C0883309F0E5C08093EF1BD8C0803546
:1042A00009F44FC0883509F45DC0883409F0D9C0DD
:1042B000D6C0883909F4C7C0A8F4883709F467C0A4
:1042C00038F4883609F463C0803709F460C0C9C087
:1042D000883809F4B8C0803909F45FC0803809F023
:1042E000C0C05BC0803B09F486C038F4803A09F452
:1042F00066C0883A09F47FC0B4C0803C09F4A7C006
:10430000883C09F4A4C0883B09F48AC0AAC0809103
:10431000EC1B10C09091EE1B8091ED1B981770F56F
:10432000E091EE1B81E08E0F8093EE1BF0E0E553F1
:10433000F44E80818093BB0085EC86C08093EF1B98
:104340008EC0E091EE1B81E08E0F8093EE1B80917A
:10435000BB00F0E0E553F44E80839091EE1B80911A
:10436000ED1B6EC0E091EE1B81E08E0F8093EE1B83
:104370008091BB00F0E0E553F44E80838091F01B08
:1043800081116DC081E08093EB1B84EA61C083E002
:104390008093F11B10923603CFCF80913603803289
:1043A00008F051C0E091360381E08E0F8093360310
:1043B0008091BB00F0E0EA5EFC4F8083BDCF85ECCE
:1043C0008093BC001092F11B80913603803230F450
:1043D000E0913603F0E0EA5EFC4F10826091360314
:1043E00070E0E091781BF091791B86E193E01995DC
:1043F0001092360336C084E08093F11B10921503AF
:1044000010921403E0917A1BF0917B1B1995809117
:104410001403811105C081E0809314031092F4020B
:10442000E091150381E08E0F80931503F0E0EC50CE
:10443000FD4F80818093BB00909115038091140300
:10444000981708F479CF85E88093BC000AC085EC02
:104450008093BC001092F11B04C01092EF1B0E94CD
:104460004B1DFF91EF91BF91AF919F918F917F91E4
:104470006F915F914F913F912F910F900BBE0F90D5
:104480000FBE0F901F901895089588EF94E00E943A
:1044900008218AEF94E00E9408218CEF94E00C94AC
:1044A0000821EF92FF920F931F93CF93DF938C011C
:1044B0007B01C0E0D0E0CE15DF05E9F088EF94E0A5
:1044C0000E940D218AEF94E00E940D218CEF94E070
:1044D0000E940D2166E970E080E090E00E94953135
:1044E000C8010E94452266E970E080E090E00E94E9
:1044F00095312196E0CFDF91CF911F910F91FF90E1
:10450000EF9008950F931F93CF93DF93EC01FC017D
:10451000EF55FE4F80E090E0A8ECB2E480839183F9
:10452000A283B383349680839183A283B38334962A
:1045300080839183A283B383349680839183A28303
:10454000B383CE01875E9E4F0E948A2A8E010F5749
:104550001E4FFE01E158FE4F60817181072E000C55
:10456000880B990B0E94353AF8016083718382832E
:1045700093830C5F1F4F349760817181072E000C6D
:10458000880B990B0E94353AF8016083718382830E
:1045900093830C5F1F4F3C9760817181072E000C45
:1045A000880B990B0E94353AF801608371838283EE
:1045B00093830C5F1F4FC558DE4F68817981072EAA
:1045C000000C880B990B0E94353AF80160837183C7
:1045D00082839383DF91CF911F910F9108954F9222
:1045E0005F926F927F928F929F92AF92BF92CF9283
:1045F000DF92EF92FF920F931F93CF93DF93CDB78C
:10460000DEB72E970FB6F894DEBF0FBECDBF9E87E4
:104610008D87FC01E451FF4F80809180A280B380A0
:104620008C0108591F4F7897208131814281538135
:10463000C501B4010E94AD3B20E030E040E05FE303
:104640000E94943AD8016D937D938D939C93139718
:10465000ED85FE85E051FF4F408051806280738080
:10466000ED84FE84BCE6EB0EF11CED85FE85E85280
:10467000FF4F2081318142815381C301B2010E94E9
:10468000AD3B20E030E040E05FE30E94943AF70168
:104690006083718382839383ED85FE85EC50FF4FA9
:1046A00080819181A281B38189839A83AB83BC830A
:1046B000ED84FE8490E7E90EF11CED85FE85E45261
:1046C000FF4F208131814281538169817A818B81C1
:1046D0009C810E94AD3B20E030E040E05FE30E941F
:1046E000943AD7016D937D938D939C931397ED85A9
:1046F000FE85E850FF4F80819181A281B3818D8337
:104700009E83AF83B887ED84FE8490E8E90EF11CA8
:10471000ED85FE85E052FF4F20813181428153813A
:104720006D817E818F8198850E94AD3B20E030E0D5
:1047300040E05FE30E94943AD7016D937D938D939F
:104740009C931397ED85FE85E450FF4F8081918106
:10475000A281B38189879A87AB87BC87ED84FE8469
:1047600094E8E90EF11CED85FE85EC51FF4F2081A8
:1047700031814281538169857A858B859C850E9430
:10478000AD3B20E030E040E05FE30E94943AD70187
:104790006D937D938D939C931397ED85FE85F39593
:1047A000C080D180E280F3800D851E8508571F4FA1
:1047B000ED85FE85E851FF4F208131814281538193
:1047C000C701B6010E94AD3B20E030E040E05FE36E
:1047D0000E94943AF80160837183828393830D85EC
:1047E0001E850C581F4FED85FE85E454FF4F208138
:1047F000318142815381C501B4010E94AD3B20E06B
:1048000030E040E05FE30E94943AD8016D937D93DD
:104810008D939C931397AD84BE84B8E7AB0EB11C07
:10482000ED85FE85E054FF4F208131814281538127
:10483000C301B2010E94AD3B20E030E040E05FE305
:104840000E94943AF5016083718382839383AD84DF
:10485000BE84FCE7AF0EB11CED85FE85EC53FF4F27
:10486000208131814281538169817A818B819C8150
:104870000E94AD3B20E030E040E05FE30E94943ACC
:10488000D5016D937D938D939C931397AD84BE84D6
:10489000BCE8AB0EB11CED85FE85E853FF4F2081CF
:1048A0003181428153816D817E818F8198850E9403
:1048B000AD3B20E030E040E05FE30E94943AF50138
:1048C0006083718382839383AD84BE84F0E9AF0EED
:1048D000B11CED85FE85E453FF4F2081318142817B
:1048E000538169857A858B859C850E94AD3B20E04C
:1048F00030E040E05FE30E94943AD5016D937D93F0
:104900008D939C9313970D851E850C561F4FED8537
:10491000FE85E053FF4F2081318142815381C701E1
:10492000B6010E94AD3B20E030E040E05FE30E9432
:10493000943AD8016D937D938D939C9313972E9603
:104940000FB6F894DEBF0FBECDBFDF91CF911F91A0
:104950000F91FF90EF90DF90CF90BF90AF909F901E
:104960008F907F906F905F904F9008950F931F935B
:1049700000E010E09801B901A80186ED95E00E94E1
:10498000E92B1F910F9108950F931F93CF93DF93FE
:10499000EC01875E9E4F0E9482228E0106531D4FBE
:1049A00081E090E09093AF068093AE06C8010E942C
:1049B0008A2A9E0122563C4FF80184A195A1A6A106
:1049C000B7A1F90180839183A283B3832C5F3F4F0A
:1049D000F80180A591A5A2A5B3A5F90180839183D3
:1049E000A283B3832C5F3F4FF80184A595A5A6A5AC
:1049F000B7A5F90180839183A283B3832C5F3F4FD6
:104A0000F801808D918DA28DB38DF9018083918302
:104A1000A283B3832C5F3F4FF801848D958DA68DC3
:104A2000B78DF90180839183A283B3832C5F3F4FBD
:104A3000F80180A191A1A2A1B3A1F9018083918382
:104A4000A283B3832C523109F80184859585A6850C
:104A5000B785F90180839183A283B3832C5F3F4F95
:104A6000F80180899189A289B389F90180839183B2
:104A7000A283B3832C5F3F4FF80184899589A6896F
:104A8000B789F90180839183A283B3832C5F3F4F61
:104A9000F80180819181A281B381F90180839183A2
:104AA000A283B3832C5F3F4FF80184819581A68157
:104AB000B781F90180839183A283B3832C5F3F4F39
:104AC000F80180859185A285B385F9018083918362
:104AD000A283B383245E3F4FF80184AD95ADA6ADAC
:104AE000B7ADF90180839183A283B3833496DE014D
:104AF000A65FBC4F8D919D910D90BC91A02D8083A0
:104B00009183A283B3833496DE01A25FBC4F8D9163
:104B10009D910D90BC91A02D80839183A283B3833E
:104B2000245F3F4FF80180A991A9A2A9B3A9F90177
:104B300080839183A283B3832C5F3F4FF80184A9C4
:104B400095A9A6A9B7A9F90180839183A283B3830C
:104B50002C5F3F4FF80180AD91ADA2ADB3ADF9012F
:104B600080839183A283B383C8010E94EF22CE0188
:104B700081539C4FDF91CF911F910F910C94822212
:104B8000CF93DF93EC0102960E948A2A8BE693E191
:104B90000E947C2984E493E10E947C2980E293E1D5
:104BA0000E947C2984E093E10E947C2985EE92E1B9
:104BB0000E947C2982EE92E10E945E29FE01E85962
:104BC000FF4F808191810E94A62A8BED92E10E9485
:104BD0005E29FE01EA59FF4F808191810E94A62A39
:104BE00084ED92E10E945E29FE01EE59FF4F808123
:104BF00091810E94A62A8DEC92E10E945E29FE011D
:104C0000EC59FF4F808191810E94A62A0E944D2974
:104C100080EB92E10E947C2988E992E10E947C2944
:104C200082E992E10E945E296EA17FA188A599A5E3
:104C30000E94792988E892E10E945E296A8D7B8D25
:104C40008C8D9D8D0E94512982E892E10E945E29FF
:104C50006AA57BA58CA59DA50E94792986E792E18E
:104C60000E945E296E8D7F8D88A199A10E94512995
:104C700080E792E10E945E296EA57FA588A999A987
:104C80000E94792986E692E10E945E296AA17BA1B1
:104C90008CA19DA10E94512989E492E10E947C2966
:104CA00081E392E10E947C298BE292E10E945E29DD
:104CB000FE01FE9660817181828193810E94792933
:104CC00081E292E10E945E296AA97BA98CA99DA933
:104CD0000E9451298BE192E10E945E29FE01EE5B68
:104CE000FF4F60817181828193810E9479298FE0D9
:104CF00092E10E945E296EA97FA988AD99AD0E94BC
:104D0000512989E092E10E945E29FE01EA5BFF4F92
:104D100060817181828193810E9479298FEF91E175
:104D20000E945E296AAD7BAD8CAD9DAD0E9451297C
:104D300081EE91E10E947C2989EC91E10E947C291D
:104D400083EC91E10E945E296E857F85888999892F
:104D50000E94792989EB91E10E945E296A817B8119
:104D60008C819D810E94512983EB91E10E945E29F3
:104D70006A897B898C899D890E94792987EA91E1DA
:104D80000E945E296E817F81888599850E945129C4
:104D900081EA91E10E945E296E897F89888D998DD3
:104DA0000E94792987E991E10E945E296A857B85C5
:104DB0008C859D85DF91CF910C945129FC018081D8
:104DC0000E94822F21E0892B09F020E0822F089594
:104DD0008F929F92AF92BF92CF92DF92EF92FF920B
:104DE0000F931F93CF93DF93EC010AE012E0198336
:104DF00008838CE190E0998788878EE190E09B871B
:104E00008A8780E290E09D878C8761E08CE10E9438
:104E1000593161E08A850E94593160E08C850E9499
:104E200059311F870E8780E390E09F8B8E8B82E342
:104E300090E0998F888F84E390E09B8F8A8F61E068
:104E400080E30E94593161E0888D0E94593160E011
:104E50008A8D0E94593184E092E09D8F8C8F26E2EA
:104E600030E03DA32CA380914B0390914C038A30FA
:104E7000910564F4FC01EE0FFF1FE95CFC4F3183E8
:104E80002083019690934C0380934B0384E092E03F
:104E90009FA38EA322E330E03FA72EA780914B0370
:104EA00090914C038A30910564F4FC01EE0FFF1FD2
:104EB000E95CFC4F31832083019690934C038093EF
:104EC0004B0361E080E10E94593160E081E10E9482
:104ED000593180E190E099AB88AB81E190E09BABE8
:104EE0008AAB85E8882E8CEF982E8CEDA82E81E475
:104EF000B82E8CAA9DAAAEAABFAA9CE9C92E93E59A
:104F0000D92E9CE8E92E92E4F92EC8AED9AEEAAECD
:104F1000FBAE61E086E10E94593160E088E10E94C9
:104F20005931FE01E05CFF4F86E190E09183808380
:104F300088E190E09383828384829582A682B782FF
:104F4000C086D186E286F38661E087E10E9459310E
:104F500060E089E10E945931FE01E05BFF4F87E18B
:104F600090E09183808389E190E0938382838482BF
:104F70009582A682B782C086D186E286F386709635
:104F80008DE190E091838083329681E290E091837D
:104F90008083329689E290E091838083329685E324
:104FA00090E091838083329683E390E091838083C5
:104FB000C659DF4F81E390E0998388831092AF0652
:104FC0001092AE06DF91CF911F910F91FF90EF905D
:104FD000DF90CF90BF90AF909F908F9008958633D1
:104FE00008F0865390917B00282F2870977F922B92
:104FF00090937B008770806480937C0080917A001E
:10500000806480937A0080917A0086FDFCCF609165
:1050100078008091790070E0782B072E000C880BC7
:10502000990B0E94353A20E030E048EC52E40E94AF
:10503000943A20E030EC4FE754E40E94193C9B0185
:10504000AC0160E070E088EC92E40E94AC3B089513
:10505000009769F0FC0101900020E9F73197AF015A
:10506000481B590BBC018DE493E00C94101C80E0AC
:1050700090E008958F929F92AF92BF920F931F93EB
:10508000CF93DF93CDB7DEB7A1970FB6F894DEBF0D
:105090000FBECDBF19A2423008F44AE08E010F5D69
:1050A0001F4F842E912CA12CB12CA50194010E949C
:1050B000733BE62FB901CA0101501109EA3014F41B
:1050C000E05D01C0E95CD801EC93232B242B252B58
:1050D00061F7C8010E942828A1960FB6F894DEBF98
:1050E0000FBECDBFDF91CF911F910F91BF90AF90B9
:1050F0009F908F9008958F929F92AF92BF92CF9280
:10510000DF92EF92FF920F931F93CF93DF936B0188
:105110007C01142F9B01AC010E94C63C882319F02E
:1051200084EE92E027C046015701E894B7F82FEFCC
:105130003FEF4FE75FE7C501B4010E94C63C811114
:105140000DC02FEF3FEF4FE75FE7C501B4010E94AD
:105150002E3A18161CF488EE92E00CC02FEF3FEFA9
:105160004FE75FE4C701B6010E94C13C181684F402
:105170008CEE92E0DF91CF911F910F91FF90EF9015
:10518000DF90CF90BF90AF909F908F900C94282885
:105190002FEF3FEF4FE75FECC701B6010E942E3AB9
:1051A00087FDE6CF20E030E0A901C701B6010E94EB
:1051B0002E3A87FF0BC06DE28DE493E00E94A31CA2
:1051C000EC01F7FAF094F7F8F09402C0C0E0D0E0F8
:1051D00000E060E070E080E09FE3101741F020E025
:1051E00030E040E251E40E94193C0F5FF6CFA70186
:1051F00096010E94AD3B6B017C010E94923C4B01E9
:105200005C014AE00E943A28C80FD91F1123B9F166
:10521000C501B4010E94333A9B01AC01C701B6013C
:105220000E94AC3B6B017C016EE28DE493E00E9436
:10523000A31CC80FD91F20E030E040E251E4C701B1
:10524000B6010E94943A4B015C010E94923C6B01B2
:10525000E12CF12C4AE0C701B6010E943A28C80FA0
:10526000D91FC701B6010E94333A9B01AC01C501A9
:10527000B4010E94AC3B6B017C011150E1F6CE0100
:10528000DF91CF911F910F91FF90EF90DF90CF9022
:10529000BF90AF909F908F90089580EF92E00C9414
:1052A0002828CF93DF9342E00E947B28EC010E94E4
:1052B0004D298C0F9D1FDF91CF9108950F931F9360
:1052C000CF93DF938C01C0E0D0E0F801EC0FFD1F1D
:1052D0006491662341F08DE493E00E94A31C892B26
:1052E00011F02196F2CFCE01DF91CF911F910F9156
:1052F000089542E00C947B28CF93DF930E945E29AF
:10530000EC010E944D298C0F9D1FDF91CF910895D4
:10531000CF93DF938230910549F083309105D1F12D
:10532000019709F052C0CAE0D0E003C0C0E0D0E06D
:1053300018C088EF94E00E94082162E370E080E0EA
:1053400090E00E94953188EF94E00E940D2162E385
:1053500070E080E090E00E949531219751F7CAE01B
:10536000D0E0CA30D105C1F08AEF94E00E94082154
:1053700062E370E080E090E00E9495318AEF94E073
:105380000E940D2162E370E080E090E00E94953180
:105390002196E7CFC0E0D0E0CA30D105B1F08CEF64
:1053A00094E00E94082162E370E080E090E00E94B7
:1053B00095318CEF94E00E940D2162E370E080E073
:1053C00090E00E9495312196E7CFDF91CF9108952B
:1053D000CF93DF93EC018091AE069091AF060197D9
:1053E00011F4645E7F4FCE010E94691FCE01DF91F0
:1053F000CF910895CF93DF93EC018091AE06909109
:10540000AF06019719F46A5D7F4F02C0625F7F4F5C
:10541000CE010E94691FCE01DF91CF910895CF93F5
:10542000DF93CDB7DEB72C970FB6F894DEBF0FBE73
:10543000CDBF2091AE063091AF062130310599F4F1
:1054400086960E94DC2029833A834B835C836D839C
:105450007E8386E0FE013196DE01179601900D9263
:105460008A95E1F709C00E960E94DC202F833887C9
:1054700049875A876B877C872F81388549855A856C
:105480006B857C8580E090E02C960FB6F894DEBFAB
:105490000FBECDBFDF91CF910895CF93DF93CDB7EE
:1054A000DEB72C970FB6F894DEBF0FBECDBF2091AC
:1054B000AE063091AF062130310599F44C960E942A
:1054C000DC2029833A834B835C836D837E8386E073
:1054D000FE013196DE01179601900D928A95E1F753
:1054E00008C00E94DC202F83388749875A876B8742
:1054F0007C872F81388549855A856B857C8580E03E
:1055000090E02C960FB6F894DEBF0FBECDBFDF91B2
:10551000CF910895EF92FF920F931F93CF93DF9354
:105520007C018C01C0E0D0E0CE010E94523BF8012A
:1055300081938F012196C836D105B1F7C701DF915C
:10554000CF911F910F91FF90EF900895CF92DF922E
:10555000EF92FF92CF93DF936C01990FEE08FF0853
:10556000F7FE19C06DE28DE493E00E94A31CEC01EC
:1055700066277727CB016C197D098E099F094AE0C0
:105580000E943A288C0F9D1FDF91CF91FF90EF90E2
:10559000DF90CF9008954AE0C701B601DF91CF9127
:1055A000FF90EF90DF90CF900C943A28CF92DF924B
:1055B000EF92FF920F931F93CF93DF936B017C01C8
:1055C0008A0120E030E048EC52EC0E942E3A87FD40
:1055D00011C020E030E048EC52E4C701B6010E945F
:1055E000C13C18166CF4C12CD12C98ECE92E92E435
:1055F000F92E06C0C12CD12C88ECE82E82ECF82EB6
:1056000023E333E343E250E4C701B6010E94943A36
:105610006B017C0120E030E0A9010E94C13C18161A
:105620001CF4C701B60103C0C701B60190580E941F
:105630008B3CEB0161E0802F0E945931209709F4E7
:10564000B1C0CF3FD10509F4AFC0F801FF27E35542
:10565000FC4EE4918E2F90E0FC013197E231F10590
:1056600008F09DC08827E158FF4F8F4F0C94A43B52
:1056700084B5806884BDC7BDA3C084B5806284BD85
:10568000C8BD9EC080918000806880938000D093C8
:105690008900C093880094C08091800080628093CC
:1056A0008000D0938B00C0938A008AC080918000D4
:1056B000886080938000D0938D00C0938C0080C060
:1056C0008091B00080688093B000C093B30078C030
:1056D0008091B00080628093B000C093B40070C02D
:1056E00080919000806880939000D0939900C0933F
:1056F000980066C080919000806280939000D09363
:105700009B00C0939A005CC0809190008860809359
:105710009000D0939D00C0939C0052C08091A00047
:1057200080688093A0008091A0008F7B8093A00070
:10573000D093A900C093A80043C08091A0008062CC
:105740008093A000D093AB00C093AA0039C0809191
:10575000A00088608093A000D093AD00C093AC00FF
:105760002FC080912001806880932001D09329016F
:10577000C093280125C08091200180628093200180
:10578000D0932B01C0932A011BC080912001886017
:1057900080932001D0932D01C0932C0111C0C038FB
:1057A000D10514F460E001C061E0802FDF91CF915A
:1057B0001F910F91FF90EF90DF90CF900C94AB2F43
:1057C000DF91CF911F910F91FF90EF90DF90CF90DD
:1057D00008958F929F92AF92BF92CF92DF92EF92F5
:1057E000FF920F931F934A015B016801790120E04A
:1057F00030E0A901C501B4010E942E3A87FF09C01B
:1058000060E084E00E94AB2F45E050E0C501B401A8
:105810000EC061E084E00E94AB2FA501940160E01E
:1058200070E088EC92E40E94AC3B45E050E00E94BE
:10583000D62A20E030E0A901C701B6010E942E3A25
:1058400087FF09C060E087E00E94AB2F46E050E090
:10585000C701B6010EC061E087E00E94AB2FA7012F
:10586000960160E070E088EC92E40E94AC3B46E078
:1058700050E01F910F91FF90EF90DF90CF90BF907D
:10588000AF909F908F900C94D62A80EC9DE00E9460
:10589000B62486E396E00E94DE268823D1F363E0F7
:1058A00070E080EC9DE00C945122CF93DF93C3E035
:1058B000D0E088EF94E00E9408218AEF94E00E94F3
:1058C000082166E970E080E090E00E94953188EF61
:1058D00094E00E940D218AEF94E00E940D2166E978
:1058E00070E080E090E00E949531219711F7DF9100
:1058F000CF910C94452C0F931F9300E010E020E211
:1059000032ECB901A80186ED95E00E94E92B69E12E
:1059100070E080E090E00E94953180EC9DE01F9166
:105920000F910C94B62489E390E00E94EF279B012D
:10593000AC016091DA0A7091DB0A8091DC0A9091E7
:10594000DD0A0E942E3A87FF14C089E390E00E948E
:10595000EF279B01AC016091FA0A7091FB0A8091DC
:10596000FC0A9091FD0A0E94C13C181614F481E0D3
:10597000089580E00895CF9389E390E00E94EF2797
:105980009B01AC01C1E06091DA0A7091DB0A809161
:10599000DC0A9091DD0A0E94C13C18160CF0C0E0B0
:1059A0008C2FCF91089588E390E00E94EF279B0110
:1059B000AC016091D60A7091D70A8091D80A909173
:1059C000D90A0E942E3A87FF14C088E390E00E9413
:1059D000EF279B01AC016091F60A7091F70A809164
:1059E000F80A9091F90A0E94C13C181614F481E05B
:1059F000089580E00895CF9388E390E00E94EF2718
:105A00009B01AC01C1E06091D60A7091D70A8091E8
:105A1000D80A9091D90A0E94C13C18160CF0C0E037
:105A20008C2FCF91089587E390E00E94EF279B0190
:105A3000AC016091D20A7091D30A8091D40A9091FE
:105A4000D50A0E942E3A87FF14C087E390E00E9497
:105A5000EF279B01AC016091F20A7091F30A8091EB
:105A6000F40A9091F50A0E94C13C181614F481E0E2
:105A7000089580E00895CF9387E390E00E94EF2798
:105A80009B01AC01C1E06091D20A7091D30A809170
:105A9000D40A9091D50A0E94C13C18160CF0C0E0BF
:105AA0008C2FCF91089586E390E00E94EF279B0111
:105AB000AC016091CE0A7091CF0A8091D00A90918A
:105AC000D10A0E942E3A87FF14C086E390E00E941C
:105AD000EF279B01AC016091EE0A7091EF0A809173
